{
  "abi": [
    {
      "anonymous": false,
      "inputs": [
        {
          "indexed": true,
          "internalType": "uint256",
          "name": "productId",
          "type": "uint256"
        },
        {
          "indexed": false,
          "internalType": "string",
          "name": "name",
          "type": "string"
        },
        {
          "indexed": false,
          "internalType": "address",
          "name": "manufacturer",
          "type": "address"
        },
        {
          "indexed": false,
          "internalType": "uint256",
          "name": "timestamp",
          "type": "uint256"
        }
      ],
      "name": "ProductCreated",
      "type": "event"
    },
    {
      "anonymous": false,
      "inputs": [
        {
          "indexed": true,
          "internalType": "uint256",
          "name": "productId",
          "type": "uint256"
        },
        {
          "indexed": false,
          "internalType": "enum SupplyChain.Status",
          "name": "status",
          "type": "uint8"
        },
        {
          "indexed": false,
          "internalType": "uint256",
          "name": "timestamp",
          "type": "uint256"
        }
      ],
      "name": "StatusUpdated",
      "type": "event"
    },
    {
      "inputs": [
        {
          "internalType": "string",
          "name": "_name",
          "type": "string"
        },
        {
          "internalType": "string",
          "name": "_description",
          "type": "string"
        }
      ],
      "name": "createProduct",
      "outputs": [
        {
          "internalType": "uint256",
          "name": "",
          "type": "uint256"
        }
      ],
      "stateMutability": "nonpayable",
      "type": "function"
    },
    {
      "inputs": [
        {
          "internalType": "uint256",
          "name": "_id",
          "type": "uint256"
        }
      ],
      "name": "deleteProduct",
      "outputs": [],
      "stateMutability": "nonpayable",
      "type": "function"
    },
    {
      "inputs": [
        {
          "internalType": "uint256",
          "name": "_id",
          "type": "uint256"
        }
      ],
      "name": "getProduct",
      "outputs": [
        {
          "internalType": "uint256",
          "name": "id",
          "type": "uint256"
        },
        {
          "internalType": "string",
          "name": "name",
          "type": "string"
        },
        {
          "internalType": "string",
          "name": "description",
          "type": "string"
        },
        {
          "internalType": "address",
          "name": "manufacturer",
          "type": "address"
        },
        {
          "internalType": "uint8",
          "name": "status",
          "type": "uint8"
        },
        {
          "internalType": "uint256",
          "name": "timestamp",
          "type": "uint256"
        },
        {
          "internalType": "bool",
          "name": "exists",
          "type": "bool"
        }
      ],
      "stateMutability": "view",
      "type": "function"
    },
    {
      "inputs": [],
      "name": "productCount",
      "outputs": [
        {
          "internalType": "uint256",
          "name": "",
          "type": "uint256"
        }
      ],
      "stateMutability": "view",
      "type": "function"
    },
    {
      "inputs": [
        {
          "internalType": "uint256",
          "name": "",
          "type": "uint256"
        }
      ],
      "name": "products",
      "outputs": [
        {
          "internalType": "uint256",
          "name": "id",
          "type": "uint256"
        },
        {
          "internalType": "string",
          "name": "name",
          "type": "string"
        },
        {
          "internalType": "string",
          "name": "description",
          "type": "string"
        },
        {
          "internalType": "address",
          "name": "manufacturer",
          "type": "address"
        },
        {
          "internalType": "enum SupplyChain.Status",
          "name": "status",
          "type": "uint8"
        },
        {
          "internalType": "uint256",
          "name": "timestamp",
          "type": "uint256"
        },
        {
          "internalType": "bool",
          "name": "exists",
          "type": "bool"
        }
      ],
      "stateMutability": "view",
      "type": "function"
    },
    {
      "inputs": [
        {
          "internalType": "uint256",
          "name": "_id",
          "type": "uint256"
        },
        {
          "internalType": "uint8",
          "name": "_status",
          "type": "uint8"
        }
      ],
      "name": "updateProductStatus",
      "outputs": [],
      "stateMutability": "nonpayable",
      "type": "function"
    }
  ],
  "devdoc": {
    "kind": "dev",
    "methods": {},
    "version": 1
  },
  "evm": {
    "assembly": "    /* \"SupplyChain.sol\":60:2493  contract SupplyChain {... */\n  mstore(0x40, 0x80)\n  callvalue\n  dup1\n  iszero\n  tag_1\n  jumpi\n  revert(0x00, 0x00)\ntag_1:\n  pop\n  dataSize(sub_0)\n  dup1\n  dataOffset(sub_0)\n  0x00\n  codecopy\n  0x00\n  return\nstop\n\nsub_0: assembly {\n        /* \"SupplyChain.sol\":60:2493  contract SupplyChain {... */\n      mstore(0x40, 0x80)\n      callvalue\n      dup1\n      iszero\n      tag_1\n      jumpi\n      revert(0x00, 0x00)\n    tag_1:\n      pop\n      jumpi(tag_2, lt(calldatasize, 0x04))\n      shr(0xe0, calldataload(0x00))\n      dup1\n      0x7acc0b20\n      eq\n      tag_3\n      jumpi\n      dup1\n      0x87592bce\n      eq\n      tag_4\n      jumpi\n      dup1\n      0x920e2621\n      eq\n      tag_5\n      jumpi\n      dup1\n      0xb9db15b4\n      eq\n      tag_6\n      jumpi\n      dup1\n      0xe0f6ef87\n      eq\n      tag_7\n      jumpi\n      dup1\n      0xed90c7b7\n      eq\n      tag_8\n      jumpi\n    tag_2:\n      revert(0x00, 0x00)\n        /* \"SupplyChain.sol\":353:396  mapping(uint256 => Product) public products */\n    tag_3:\n      tag_9\n      tag_10\n      calldatasize\n      0x04\n      tag_11\n      jump\t// in\n    tag_10:\n      tag_12\n      jump\t// in\n    tag_9:\n      mload(0x40)\n      tag_13\n      swap8\n      swap7\n      swap6\n      swap5\n      swap4\n      swap3\n      swap2\n      swap1\n      tag_14\n      jump\t// in\n    tag_13:\n      mload(0x40)\n      dup1\n      swap2\n      sub\n      swap1\n      return\n        /* \"SupplyChain.sol\":636:1107  function createProduct(string memory _name, string memory _description) public returns (uint256) {... */\n    tag_4:\n      tag_15\n      tag_16\n      calldatasize\n      0x04\n      tag_17\n      jump\t// in\n    tag_16:\n      tag_18\n      jump\t// in\n    tag_15:\n      mload(0x40)\n        /* \"#utility.yul\":3268:3293   */\n      swap1\n      dup2\n      mstore\n        /* \"#utility.yul\":3256:3258   */\n      0x20\n        /* \"#utility.yul\":3241:3259   */\n      add\n        /* \"SupplyChain.sol\":636:1107  function createProduct(string memory _name, string memory _description) public returns (uint256) {... */\n      tag_13\n        /* \"#utility.yul\":3122:3299   */\n      jump\n        /* \"SupplyChain.sol\":1115:1603  function updateProductStatus(uint256 _id, uint8 _status) public {... */\n    tag_5:\n      tag_21\n      tag_22\n      calldatasize\n      0x04\n      tag_23\n      jump\t// in\n    tag_22:\n      tag_24\n      jump\t// in\n    tag_21:\n      stop\n        /* \"SupplyChain.sol\":1615:2246  function getProduct(uint256 _id) public view returns (... */\n    tag_6:\n      tag_25\n      tag_26\n      calldatasize\n      0x04\n      tag_11\n      jump\t// in\n    tag_26:\n      tag_27\n      jump\t// in\n    tag_25:\n      mload(0x40)\n      tag_13\n      swap8\n      swap7\n      swap6\n      swap5\n      swap4\n      swap3\n      swap2\n      swap1\n      tag_29\n      jump\t// in\n        /* \"SupplyChain.sol\":403:430  uint256 public productCount */\n    tag_7:\n      tag_15\n      sload(0x01)\n      dup2\n      jump\n        /* \"SupplyChain.sol\":2258:2490  function deleteProduct(uint256 _id) public {... */\n    tag_8:\n      tag_21\n      tag_34\n      calldatasize\n      0x04\n      tag_11\n      jump\t// in\n    tag_34:\n      tag_35\n      jump\t// in\n        /* \"SupplyChain.sol\":353:396  mapping(uint256 => Product) public products */\n    tag_12:\n      0x00\n      0x20\n      dup2\n      swap1\n      mstore\n      swap1\n      dup2\n      mstore\n      0x40\n      swap1\n      keccak256\n      dup1\n      sload\n      0x01\n      dup3\n      add\n      dup1\n      sload\n      swap2\n      swap3\n      swap2\n      tag_36\n      swap1\n      tag_37\n      jump\t// in\n    tag_36:\n      dup1\n      0x1f\n      add\n      0x20\n      dup1\n      swap2\n      div\n      mul\n      0x20\n      add\n      mload(0x40)\n      swap1\n      dup2\n      add\n      0x40\n      mstore\n      dup1\n      swap3\n      swap2\n      swap1\n      dup2\n      dup2\n      mstore\n      0x20\n      add\n      dup3\n      dup1\n      sload\n      tag_38\n      swap1\n      tag_37\n      jump\t// in\n    tag_38:\n      dup1\n      iszero\n      tag_39\n      jumpi\n      dup1\n      0x1f\n      lt\n      tag_40\n      jumpi\n      0x0100\n      dup1\n      dup4\n      sload\n      div\n      mul\n      dup4\n      mstore\n      swap2\n      0x20\n      add\n      swap2\n      jump(tag_39)\n    tag_40:\n      dup3\n      add\n      swap2\n      swap1\n      0x00\n      mstore\n      keccak256(0x00, 0x20)\n      swap1\n    tag_41:\n      dup2\n      sload\n      dup2\n      mstore\n      swap1\n      0x01\n      add\n      swap1\n      0x20\n      add\n      dup1\n      dup4\n      gt\n      tag_41\n      jumpi\n      dup3\n      swap1\n      sub\n      0x1f\n      and\n      dup3\n      add\n      swap2\n    tag_39:\n      pop\n      pop\n      pop\n      pop\n      pop\n      swap1\n      dup1\n      0x02\n      add\n      dup1\n      sload\n      tag_42\n      swap1\n      tag_37\n      jump\t// in\n    tag_42:\n      dup1\n      0x1f\n      add\n      0x20\n      dup1\n      swap2\n      div\n      mul\n      0x20\n      add\n      mload(0x40)\n      swap1\n      dup2\n      add\n      0x40\n      mstore\n      dup1\n      swap3\n      swap2\n      swap1\n      dup2\n      dup2\n      mstore\n      0x20\n      add\n      dup3\n      dup1\n      sload\n      tag_43\n      swap1\n      tag_37\n      jump\t// in\n    tag_43:\n      dup1\n      iszero\n      tag_44\n      jumpi\n      dup1\n      0x1f\n      lt\n      tag_45\n      jumpi\n      0x0100\n      dup1\n      dup4\n      sload\n      div\n      mul\n      dup4\n      mstore\n      swap2\n      0x20\n      add\n      swap2\n      jump(tag_44)\n    tag_45:\n      dup3\n      add\n      swap2\n      swap1\n      0x00\n      mstore\n      keccak256(0x00, 0x20)\n      swap1\n    tag_46:\n      dup2\n      sload\n      dup2\n      mstore\n      swap1\n      0x01\n      add\n      swap1\n      0x20\n      add\n      dup1\n      dup4\n      gt\n      tag_46\n      jumpi\n      dup3\n      swap1\n      sub\n      0x1f\n      and\n      dup3\n      add\n      swap2\n    tag_44:\n      pop\n      pop\n      pop\n      0x03\n      dup5\n      add\n      sload\n      0x04\n      dup6\n      add\n      sload\n      0x05\n      swap1\n      swap6\n      add\n      sload\n      swap4\n      swap5\n      sub(shl(0xa0, 0x01), 0x01)\n      dup3\n      and\n      swap5\n      0xff\n      shl(0xa0, 0x01)\n      swap1\n      swap4\n      div\n      dup4\n      and\n      swap5\n      pop\n      swap1\n      swap3\n      pop\n      and\n      dup8\n      jump\t// out\n        /* \"SupplyChain.sol\":636:1107  function createProduct(string memory _name, string memory _description) public returns (uint256) {... */\n    tag_18:\n        /* \"SupplyChain.sol\":744:756  productCount */\n      0x01\n        /* \"SupplyChain.sol\":744:758  productCount++ */\n      dup1\n      sload\n        /* \"SupplyChain.sol\":724:731  uint256 */\n      0x00\n      swap2\n      dup3\n        /* \"SupplyChain.sol\":744:758  productCount++ */\n      tag_48\n      dup4\n      tag_49\n      jump\t// in\n    tag_48:\n      swap1\n      swap2\n      sstore\n      pop\n      pop\n        /* \"SupplyChain.sol\":794:989  Product(... */\n      0x40\n      dup1\n      mload\n      0xe0\n      dup2\n      add\n      dup3\n      mstore\n        /* \"SupplyChain.sol\":816:828  productCount */\n      0x01\n      dup1\n      sload\n        /* \"SupplyChain.sol\":794:989  Product(... */\n      dup1\n      dup4\n      mstore\n      0x20\n      dup1\n      dup5\n      add\n      dup9\n      dup2\n      mstore\n      dup5\n      dup7\n      add\n      dup9\n      swap1\n      mstore\n        /* \"SupplyChain.sol\":890:900  msg.sender */\n      caller\n        /* \"SupplyChain.sol\":794:989  Product(... */\n      0x60\n      dup7\n      add\n      mstore\n      0x00\n      0x80\n      dup7\n      add\n      dup2\n      swap1\n      mstore\n        /* \"SupplyChain.sol\":944:959  block.timestamp */\n      timestamp\n        /* \"SupplyChain.sol\":794:989  Product(... */\n      0xa0\n      dup8\n      add\n      mstore\n      0xc0\n      dup7\n      add\n      dup6\n      swap1\n      mstore\n        /* \"SupplyChain.sol\":769:791  products[productCount] */\n      swap3\n      dup4\n      mstore\n      swap1\n      dup3\n      swap1\n      mstore\n      swap4\n      swap1\n      keccak256\n        /* \"SupplyChain.sol\":769:989  products[productCount] = Product(... */\n      dup3\n      mload\n      dup2\n      sstore\n      swap3\n      mload\n        /* \"SupplyChain.sol\":794:989  Product(... */\n      swap2\n      swap3\n        /* \"SupplyChain.sol\":769:791  products[productCount] */\n      swap2\n        /* \"SupplyChain.sol\":769:989  products[productCount] = Product(... */\n      swap1\n      dup3\n      add\n      swap1\n      tag_53\n      swap1\n      dup3\n      tag_54\n      jump\t// in\n    tag_53:\n      pop\n      0x40\n      dup3\n      add\n      mload\n      0x02\n      dup3\n      add\n      swap1\n      tag_55\n      swap1\n      dup3\n      tag_54\n      jump\t// in\n    tag_55:\n      pop\n      0x60\n      dup3\n      add\n      mload\n      0x03\n      dup3\n      add\n      dup1\n      sload\n      sub(shl(0xa0, 0x01), 0x01)\n      swap1\n      swap3\n      and\n      not(sub(shl(0xa0, 0x01), 0x01))\n      dup4\n      and\n      dup2\n      or\n      dup3\n      sstore\n      0x80\n      dup6\n      add\n      mload\n      swap3\n      not(sub(shl(0xa8, 0x01), 0x01))\n      and\n      or\n      shl(0xa0, 0x01)\n      dup4\n      0x02\n      dup2\n      gt\n      iszero\n      tag_57\n      jumpi\n      tag_57\n      tag_52\n      jump\t// in\n    tag_57:\n      mul\n      or\n      swap1\n      sstore\n      pop\n      0xa0\n      dup3\n      add\n      mload\n      0x04\n      dup3\n      add\n      sstore\n      0xc0\n      swap1\n      swap2\n      add\n      mload\n      0x05\n      swap1\n      swap2\n      add\n      dup1\n      sload\n      not(0xff)\n      and\n      swap2\n      iszero\n      iszero\n      swap2\n      swap1\n      swap2\n      or\n      swap1\n      sstore\n      0x01\n        /* \"SupplyChain.sol\":1020:1032  productCount */\n      sload\n        /* \"SupplyChain.sol\":1005:1069  ProductCreated(productCount, _name, msg.sender, block.timestamp) */\n      mload(0x40)\n      0x90934fc9dc1095f968f4207cb62e27da1da3e31653ff34cbf837b6c349ded760\n      swap1\n      tag_58\n      swap1\n        /* \"SupplyChain.sol\":1034:1039  _name */\n      dup7\n      swap1\n        /* \"SupplyChain.sol\":1041:1051  msg.sender */\n      caller\n      swap1\n        /* \"SupplyChain.sol\":1053:1068  block.timestamp */\n      timestamp\n      swap1\n        /* \"SupplyChain.sol\":1005:1069  ProductCreated(productCount, _name, msg.sender, block.timestamp) */\n      tag_59\n      jump\t// in\n    tag_58:\n      mload(0x40)\n      dup1\n      swap2\n      sub\n      swap1\n      log2\n      pop\n        /* \"SupplyChain.sol\":1087:1099  productCount */\n      sload(0x01)\n        /* \"SupplyChain.sol\":636:1107  function createProduct(string memory _name, string memory _description) public returns (uint256) {... */\n      swap3\n      swap2\n      pop\n      pop\n      jump\t// out\n        /* \"SupplyChain.sol\":1115:1603  function updateProductStatus(uint256 _id, uint8 _status) public {... */\n    tag_24:\n        /* \"SupplyChain.sol\":1205:1217  productCount */\n      sload(0x01)\n        /* \"SupplyChain.sol\":1198:1201  _id */\n      dup3\n        /* \"SupplyChain.sol\":1198:1217  _id <= productCount */\n      gt\n      iszero\n        /* \"SupplyChain.sol\":1190:1244  require(_id <= productCount, \"Product does not exist\") */\n      tag_61\n      jumpi\n      mload(0x40)\n      shl(0xe5, 0x461bcd)\n      dup2\n      mstore\n      0x04\n      add\n      tag_62\n      swap1\n      tag_63\n      jump\t// in\n    tag_62:\n      mload(0x40)\n      dup1\n      swap2\n      sub\n      swap1\n      revert\n    tag_61:\n        /* \"SupplyChain.sol\":1263:1271  products */\n      0x00\n        /* \"SupplyChain.sol\":1263:1276  products[_id] */\n      dup3\n      dup2\n      mstore\n      0x20\n      dup2\n      swap1\n      mstore\n      0x40\n      swap1\n      keccak256\n        /* \"SupplyChain.sol\":1263:1283  products[_id].exists */\n      0x05\n      add\n      sload\n      0xff\n      and\n        /* \"SupplyChain.sol\":1255:1312  require(products[_id].exists, \"Product has been deleted\") */\n      tag_64\n      jumpi\n      mload(0x40)\n      shl(0xe5, 0x461bcd)\n      dup2\n      mstore\n        /* \"#utility.yul\":8183:8185   */\n      0x20\n        /* \"SupplyChain.sol\":1255:1312  require(products[_id].exists, \"Product has been deleted\") */\n      0x04\n      dup3\n      add\n        /* \"#utility.yul\":8165:8186   */\n      mstore\n        /* \"#utility.yul\":8222:8224   */\n      0x18\n        /* \"#utility.yul\":8202:8220   */\n      0x24\n      dup3\n      add\n        /* \"#utility.yul\":8195:8225   */\n      mstore\n        /* \"#utility.yul\":8261:8287   */\n      0x50726f6475637420686173206265656e2064656c657465640000000000000000\n        /* \"#utility.yul\":8241:8259   */\n      0x44\n      dup3\n      add\n        /* \"#utility.yul\":8234:8288   */\n      mstore\n        /* \"#utility.yul\":8305:8323   */\n      0x64\n      add\n        /* \"SupplyChain.sol\":1255:1312  require(products[_id].exists, \"Product has been deleted\") */\n      tag_62\n        /* \"#utility.yul\":7981:8329   */\n      jump\n        /* \"SupplyChain.sol\":1255:1312  require(products[_id].exists, \"Product has been deleted\") */\n    tag_64:\n        /* \"SupplyChain.sol\":1342:1343  2 */\n      0x02\n        /* \"SupplyChain.sol\":1331:1338  _status */\n      dup2\n        /* \"SupplyChain.sol\":1331:1343  _status <= 2 */\n      0xff\n      and\n      gt\n      iszero\n        /* \"SupplyChain.sol\":1323:1368  require(_status <= 2, \"Invalid status value\") */\n      tag_67\n      jumpi\n      mload(0x40)\n      shl(0xe5, 0x461bcd)\n      dup2\n      mstore\n        /* \"#utility.yul\":8536:8538   */\n      0x20\n        /* \"SupplyChain.sol\":1323:1368  require(_status <= 2, \"Invalid status value\") */\n      0x04\n      dup3\n      add\n        /* \"#utility.yul\":8518:8539   */\n      mstore\n        /* \"#utility.yul\":8575:8577   */\n      0x14\n        /* \"#utility.yul\":8555:8573   */\n      0x24\n      dup3\n      add\n        /* \"#utility.yul\":8548:8578   */\n      mstore\n      shl(0x60, 0x496e76616c6964207374617475732076616c7565)\n        /* \"#utility.yul\":8594:8612   */\n      0x44\n      dup3\n      add\n        /* \"#utility.yul\":8587:8637   */\n      mstore\n        /* \"#utility.yul\":8654:8672   */\n      0x64\n      add\n        /* \"SupplyChain.sol\":1323:1368  require(_status <= 2, \"Invalid status value\") */\n      tag_62\n        /* \"#utility.yul\":8334:8678   */\n      jump\n        /* \"SupplyChain.sol\":1323:1368  require(_status <= 2, \"Invalid status value\") */\n    tag_67:\n        /* \"SupplyChain.sol\":1389:1412  Product storage product */\n      0x00\n        /* \"SupplyChain.sol\":1415:1428  products[_id] */\n      dup3\n      dup2\n      mstore\n      0x20\n      dup2\n      swap1\n      mstore\n      0x40\n      swap1\n      keccak256\n        /* \"SupplyChain.sol\":1456:1471  Status(_status) */\n      0xff\n      dup3\n      and\n      0x02\n      dup2\n      gt\n      iszero\n      tag_71\n      jumpi\n      tag_71\n      tag_52\n      jump\t// in\n    tag_71:\n        /* \"SupplyChain.sol\":1439:1453  product.status */\n      0x03\n      dup3\n      add\n        /* \"SupplyChain.sol\":1439:1471  product.status = Status(_status) */\n      dup1\n      sload\n      not(shl(0xa0, 0xff))\n      and\n      shl(0xa0, 0x01)\n      dup4\n      0x02\n      dup2\n      gt\n      iszero\n      tag_73\n      jumpi\n      tag_73\n      tag_52\n      jump\t// in\n    tag_73:\n      mul\n      or\n      swap1\n      sstore\n      pop\n        /* \"SupplyChain.sol\":1502:1517  block.timestamp */\n      timestamp\n        /* \"SupplyChain.sol\":1482:1499  product.timestamp */\n      0x04\n      dup3\n      add\n        /* \"SupplyChain.sol\":1482:1517  product.timestamp = block.timestamp */\n      sstore\n        /* \"SupplyChain.sol\":1557:1560  _id */\n      dup3\n        /* \"SupplyChain.sol\":1543:1595  StatusUpdated(_id, Status(_status), block.timestamp) */\n      0x4f4cecb8d0fd736cdab2e7eb7cfce8ea973e74f91fbcdfd5d02f6707ebd6c72c\n        /* \"SupplyChain.sol\":1562:1577  Status(_status) */\n      0xff\n      dup5\n      and\n      0x02\n      dup2\n      gt\n      iszero\n      tag_75\n      jumpi\n      tag_75\n      tag_52\n      jump\t// in\n    tag_75:\n        /* \"SupplyChain.sol\":1579:1594  block.timestamp */\n      timestamp\n        /* \"SupplyChain.sol\":1543:1595  StatusUpdated(_id, Status(_status), block.timestamp) */\n      mload(0x40)\n      tag_76\n      swap3\n      swap2\n      swap1\n      tag_77\n      jump\t// in\n    tag_76:\n      mload(0x40)\n      dup1\n      swap2\n      sub\n      swap1\n      log2\n        /* \"SupplyChain.sol\":1179:1603  {... */\n      pop\n        /* \"SupplyChain.sol\":1115:1603  function updateProductStatus(uint256 _id, uint8 _status) public {... */\n      pop\n      pop\n      jump\t// out\n        /* \"SupplyChain.sol\":1615:2246  function getProduct(uint256 _id) public view returns (... */\n    tag_27:\n        /* \"SupplyChain.sol\":1679:1689  uint256 id */\n      0x00\n        /* \"SupplyChain.sol\":1700:1718  string memory name */\n      0x60\n        /* \"SupplyChain.sol\":1729:1754  string memory description */\n      dup1\n        /* \"SupplyChain.sol\":1765:1785  address manufacturer */\n      0x00\n        /* \"SupplyChain.sol\":1796:1808  uint8 status */\n      0x00\n        /* \"SupplyChain.sol\":1819:1836  uint256 timestamp */\n      0x00\n        /* \"SupplyChain.sol\":1847:1858  bool exists */\n      0x00\n        /* \"SupplyChain.sol\":1892:1904  productCount */\n      sload(0x01)\n        /* \"SupplyChain.sol\":1885:1888  _id */\n      dup9\n        /* \"SupplyChain.sol\":1885:1904  _id <= productCount */\n      gt\n      iszero\n        /* \"SupplyChain.sol\":1877:1931  require(_id <= productCount, \"Product does not exist\") */\n      tag_79\n      jumpi\n      mload(0x40)\n      shl(0xe5, 0x461bcd)\n      dup2\n      mstore\n      0x04\n      add\n      tag_62\n      swap1\n      tag_63\n      jump\t// in\n    tag_79:\n        /* \"SupplyChain.sol\":1942:1965  Product storage product */\n      0x00\n        /* \"SupplyChain.sol\":1968:1981  products[_id] */\n      dup9\n      dup2\n      mstore\n      0x20\n      dup2\n      swap1\n      mstore\n      0x40\n      swap1\n      keccak256\n        /* \"SupplyChain.sol\":2024:2034  product.id */\n      dup1\n      sload\n        /* \"SupplyChain.sol\":2110:2130  product.manufacturer */\n      0x03\n      dup3\n      add\n      sload\n        /* \"SupplyChain.sol\":2049:2061  product.name */\n      0x01\n      dup4\n      add\n      swap1\n        /* \"SupplyChain.sol\":2076:2095  product.description */\n      0x02\n      dup1\n      dup6\n      add\n      swap2\n      sub(shl(0xa0, 0x01), 0x01)\n        /* \"SupplyChain.sol\":2110:2130  product.manufacturer */\n      dup2\n      and\n      swap2\n      shl(0xa0, 0x01)\n        /* \"SupplyChain.sol\":2151:2165  product.status */\n      swap1\n      swap2\n      div\n      0xff\n      and\n      swap1\n        /* \"SupplyChain.sol\":2145:2166  uint8(product.status) */\n      dup2\n      gt\n      iszero\n      tag_82\n      jumpi\n      tag_82\n      tag_52\n      jump\t// in\n    tag_82:\n        /* \"SupplyChain.sol\":2181:2198  product.timestamp */\n      0x04\n      dup7\n      add\n      sload\n        /* \"SupplyChain.sol\":2213:2227  product.exists */\n      0x05\n      dup8\n      add\n      sload\n        /* \"SupplyChain.sol\":2002:2238  return (... */\n      dup6\n      sload\n        /* \"SupplyChain.sol\":2213:2227  product.exists */\n      0xff\n      swap1\n      swap2\n      and\n      swap1\n        /* \"SupplyChain.sol\":2002:2238  return (... */\n      dup7\n      swap1\n      tag_83\n      swap1\n      tag_37\n      jump\t// in\n    tag_83:\n      dup1\n      0x1f\n      add\n      0x20\n      dup1\n      swap2\n      div\n      mul\n      0x20\n      add\n      mload(0x40)\n      swap1\n      dup2\n      add\n      0x40\n      mstore\n      dup1\n      swap3\n      swap2\n      swap1\n      dup2\n      dup2\n      mstore\n      0x20\n      add\n      dup3\n      dup1\n      sload\n      tag_84\n      swap1\n      tag_37\n      jump\t// in\n    tag_84:\n      dup1\n      iszero\n      tag_85\n      jumpi\n      dup1\n      0x1f\n      lt\n      tag_86\n      jumpi\n      0x0100\n      dup1\n      dup4\n      sload\n      div\n      mul\n      dup4\n      mstore\n      swap2\n      0x20\n      add\n      swap2\n      jump(tag_85)\n    tag_86:\n      dup3\n      add\n      swap2\n      swap1\n      0x00\n      mstore\n      keccak256(0x00, 0x20)\n      swap1\n    tag_87:\n      dup2\n      sload\n      dup2\n      mstore\n      swap1\n      0x01\n      add\n      swap1\n      0x20\n      add\n      dup1\n      dup4\n      gt\n      tag_87\n      jumpi\n      dup3\n      swap1\n      sub\n      0x1f\n      and\n      dup3\n      add\n      swap2\n    tag_85:\n      pop\n      pop\n      pop\n      pop\n      pop\n      swap6\n      pop\n      dup5\n      dup1\n      sload\n      tag_88\n      swap1\n      tag_37\n      jump\t// in\n    tag_88:\n      dup1\n      0x1f\n      add\n      0x20\n      dup1\n      swap2\n      div\n      mul\n      0x20\n      add\n      mload(0x40)\n      swap1\n      dup2\n      add\n      0x40\n      mstore\n      dup1\n      swap3\n      swap2\n      swap1\n      dup2\n      dup2\n      mstore\n      0x20\n      add\n      dup3\n      dup1\n      sload\n      tag_89\n      swap1\n      tag_37\n      jump\t// in\n    tag_89:\n      dup1\n      iszero\n      tag_90\n      jumpi\n      dup1\n      0x1f\n      lt\n      tag_91\n      jumpi\n      0x0100\n      dup1\n      dup4\n      sload\n      div\n      mul\n      dup4\n      mstore\n      swap2\n      0x20\n      add\n      swap2\n      jump(tag_90)\n    tag_91:\n      dup3\n      add\n      swap2\n      swap1\n      0x00\n      mstore\n      keccak256(0x00, 0x20)\n      swap1\n    tag_92:\n      dup2\n      sload\n      dup2\n      mstore\n      swap1\n      0x01\n      add\n      swap1\n      0x20\n      add\n      dup1\n      dup4\n      gt\n      tag_92\n      jumpi\n      dup3\n      swap1\n      sub\n      0x1f\n      and\n      dup3\n      add\n      swap2\n    tag_90:\n      pop\n      pop\n      pop\n      pop\n      pop\n      swap5\n      pop\n      swap8\n      pop\n      swap8\n      pop\n      swap8\n      pop\n      swap8\n      pop\n      swap8\n      pop\n      swap8\n      pop\n      swap8\n      pop\n      pop\n        /* \"SupplyChain.sol\":1615:2246  function getProduct(uint256 _id) public view returns (... */\n      swap2\n      swap4\n      swap6\n      swap8\n      swap1\n      swap3\n      swap5\n      swap7\n      pop\n      jump\t// out\n        /* \"SupplyChain.sol\":2258:2490  function deleteProduct(uint256 _id) public {... */\n    tag_35:\n        /* \"SupplyChain.sol\":2327:2339  productCount */\n      sload(0x01)\n        /* \"SupplyChain.sol\":2320:2323  _id */\n      dup2\n        /* \"SupplyChain.sol\":2320:2339  _id <= productCount */\n      gt\n      iszero\n        /* \"SupplyChain.sol\":2312:2366  require(_id <= productCount, \"Product does not exist\") */\n      tag_94\n      jumpi\n      mload(0x40)\n      shl(0xe5, 0x461bcd)\n      dup2\n      mstore\n      0x04\n      add\n      tag_62\n      swap1\n      tag_63\n      jump\t// in\n    tag_94:\n        /* \"SupplyChain.sol\":2385:2393  products */\n      0x00\n        /* \"SupplyChain.sol\":2385:2398  products[_id] */\n      dup2\n      dup2\n      mstore\n      0x20\n      dup2\n      swap1\n      mstore\n      0x40\n      swap1\n      keccak256\n        /* \"SupplyChain.sol\":2385:2405  products[_id].exists */\n      0x05\n      add\n      sload\n      0xff\n      and\n        /* \"SupplyChain.sol\":2377:2433  require(products[_id].exists, \"Product already deleted\") */\n      tag_96\n      jumpi\n      mload(0x40)\n      shl(0xe5, 0x461bcd)\n      dup2\n      mstore\n        /* \"#utility.yul\":9160:9162   */\n      0x20\n        /* \"SupplyChain.sol\":2377:2433  require(products[_id].exists, \"Product already deleted\") */\n      0x04\n      dup3\n      add\n        /* \"#utility.yul\":9142:9163   */\n      mstore\n        /* \"#utility.yul\":9199:9201   */\n      0x17\n        /* \"#utility.yul\":9179:9197   */\n      0x24\n      dup3\n      add\n        /* \"#utility.yul\":9172:9202   */\n      mstore\n        /* \"#utility.yul\":9238:9263   */\n      0x50726f6475637420616c72656164792064656c65746564000000000000000000\n        /* \"#utility.yul\":9218:9236   */\n      0x44\n      dup3\n      add\n        /* \"#utility.yul\":9211:9264   */\n      mstore\n        /* \"#utility.yul\":9281:9299   */\n      0x64\n      add\n        /* \"SupplyChain.sol\":2377:2433  require(products[_id].exists, \"Product already deleted\") */\n      tag_62\n        /* \"#utility.yul\":8958:9305   */\n      jump\n        /* \"SupplyChain.sol\":2377:2433  require(products[_id].exists, \"Product already deleted\") */\n    tag_96:\n        /* \"SupplyChain.sol\":2477:2482  false */\n      0x00\n        /* \"SupplyChain.sol\":2454:2467  products[_id] */\n      swap1\n      dup2\n      mstore\n      0x20\n      dup2\n      swap1\n      mstore\n      0x40\n      swap1\n      keccak256\n        /* \"SupplyChain.sol\":2454:2474  products[_id].exists */\n      0x05\n      add\n        /* \"SupplyChain.sol\":2454:2482  products[_id].exists = false */\n      dup1\n      sload\n      not(0xff)\n      and\n      swap1\n      sstore\n        /* \"SupplyChain.sol\":2258:2490  function deleteProduct(uint256 _id) public {... */\n      jump\t// out\n        /* \"#utility.yul\":14:240   */\n    tag_11:\n        /* \"#utility.yul\":73:79   */\n      0x00\n        /* \"#utility.yul\":126:128   */\n      0x20\n        /* \"#utility.yul\":114:123   */\n      dup3\n        /* \"#utility.yul\":105:112   */\n      dup5\n        /* \"#utility.yul\":101:124   */\n      sub\n        /* \"#utility.yul\":97:129   */\n      slt\n        /* \"#utility.yul\":94:146   */\n      iszero\n      tag_108\n      jumpi\n        /* \"#utility.yul\":142:143   */\n      0x00\n        /* \"#utility.yul\":139:140   */\n      0x00\n        /* \"#utility.yul\":132:144   */\n      revert\n        /* \"#utility.yul\":94:146   */\n    tag_108:\n      pop\n        /* \"#utility.yul\":187:210   */\n      calldataload\n      swap2\n        /* \"#utility.yul\":14:240   */\n      swap1\n      pop\n      jump\t// out\n        /* \"#utility.yul\":245:534   */\n    tag_99:\n        /* \"#utility.yul\":287:290   */\n      0x00\n        /* \"#utility.yul\":325:330   */\n      dup2\n        /* \"#utility.yul\":319:331   */\n      mload\n        /* \"#utility.yul\":352:358   */\n      dup1\n        /* \"#utility.yul\":347:350   */\n      dup5\n        /* \"#utility.yul\":340:359   */\n      mstore\n        /* \"#utility.yul\":408:414   */\n      dup1\n        /* \"#utility.yul\":401:405   */\n      0x20\n        /* \"#utility.yul\":394:399   */\n      dup5\n        /* \"#utility.yul\":390:406   */\n      add\n        /* \"#utility.yul\":383:387   */\n      0x20\n        /* \"#utility.yul\":378:381   */\n      dup7\n        /* \"#utility.yul\":374:388   */\n      add\n        /* \"#utility.yul\":368:415   */\n      mcopy\n        /* \"#utility.yul\":460:461   */\n      0x00\n        /* \"#utility.yul\":453:457   */\n      0x20\n        /* \"#utility.yul\":444:450   */\n      dup3\n        /* \"#utility.yul\":439:442   */\n      dup7\n        /* \"#utility.yul\":435:451   */\n      add\n        /* \"#utility.yul\":431:458   */\n      add\n        /* \"#utility.yul\":424:462   */\n      mstore\n        /* \"#utility.yul\":523:527   */\n      0x20\n        /* \"#utility.yul\":516:518   */\n      0x1f\n        /* \"#utility.yul\":512:519   */\n      not\n        /* \"#utility.yul\":507:509   */\n      0x1f\n        /* \"#utility.yul\":499:505   */\n      dup4\n        /* \"#utility.yul\":495:510   */\n      add\n        /* \"#utility.yul\":491:520   */\n      and\n        /* \"#utility.yul\":486:489   */\n      dup6\n        /* \"#utility.yul\":482:521   */\n      add\n        /* \"#utility.yul\":478:528   */\n      add\n        /* \"#utility.yul\":471:528   */\n      swap2\n      pop\n      pop\n        /* \"#utility.yul\":245:534   */\n      swap3\n      swap2\n      pop\n      pop\n      jump\t// out\n        /* \"#utility.yul\":539:666   */\n    tag_52:\n        /* \"#utility.yul\":600:610   */\n      0x4e487b71\n        /* \"#utility.yul\":595:598   */\n      0xe0\n        /* \"#utility.yul\":591:611   */\n      shl\n        /* \"#utility.yul\":588:589   */\n      0x00\n        /* \"#utility.yul\":581:612   */\n      mstore\n        /* \"#utility.yul\":631:635   */\n      0x21\n        /* \"#utility.yul\":628:629   */\n      0x04\n        /* \"#utility.yul\":621:636   */\n      mstore\n        /* \"#utility.yul\":655:659   */\n      0x24\n        /* \"#utility.yul\":652:653   */\n      0x00\n        /* \"#utility.yul\":645:660   */\n      revert\n        /* \"#utility.yul\":671:905   */\n    tag_100:\n        /* \"#utility.yul\":749:750   */\n      0x03\n        /* \"#utility.yul\":742:747   */\n      dup2\n        /* \"#utility.yul\":739:751   */\n      lt\n        /* \"#utility.yul\":729:872   */\n      tag_112\n      jumpi\n        /* \"#utility.yul\":794:804   */\n      0x4e487b71\n        /* \"#utility.yul\":789:792   */\n      0xe0\n        /* \"#utility.yul\":785:805   */\n      shl\n        /* \"#utility.yul\":782:783   */\n      0x00\n        /* \"#utility.yul\":775:806   */\n      mstore\n        /* \"#utility.yul\":829:833   */\n      0x21\n        /* \"#utility.yul\":826:827   */\n      0x04\n        /* \"#utility.yul\":819:834   */\n      mstore\n        /* \"#utility.yul\":857:861   */\n      0x24\n        /* \"#utility.yul\":854:855   */\n      0x00\n        /* \"#utility.yul\":847:862   */\n      revert\n        /* \"#utility.yul\":729:872   */\n    tag_112:\n        /* \"#utility.yul\":881:899   */\n      swap1\n      mstore\n        /* \"#utility.yul\":671:905   */\n      jump\t// out\n        /* \"#utility.yul\":910:1711   */\n    tag_14:\n        /* \"#utility.yul\":1247:1253   */\n      dup8\n        /* \"#utility.yul\":1236:1245   */\n      dup2\n        /* \"#utility.yul\":1229:1254   */\n      mstore\n        /* \"#utility.yul\":1290:1293   */\n      0xe0\n        /* \"#utility.yul\":1285:1287   */\n      0x20\n        /* \"#utility.yul\":1274:1283   */\n      dup3\n        /* \"#utility.yul\":1270:1288   */\n      add\n        /* \"#utility.yul\":1263:1294   */\n      mstore\n        /* \"#utility.yul\":1210:1214   */\n      0x00\n        /* \"#utility.yul\":1317:1363   */\n      tag_114\n        /* \"#utility.yul\":1358:1361   */\n      0xe0\n        /* \"#utility.yul\":1347:1356   */\n      dup4\n        /* \"#utility.yul\":1343:1362   */\n      add\n        /* \"#utility.yul\":1335:1341   */\n      dup10\n        /* \"#utility.yul\":1317:1363   */\n      tag_99\n      jump\t// in\n    tag_114:\n        /* \"#utility.yul\":1411:1420   */\n      dup3\n        /* \"#utility.yul\":1403:1409   */\n      dup2\n        /* \"#utility.yul\":1399:1421   */\n      sub\n        /* \"#utility.yul\":1394:1396   */\n      0x40\n        /* \"#utility.yul\":1383:1392   */\n      dup5\n        /* \"#utility.yul\":1379:1397   */\n      add\n        /* \"#utility.yul\":1372:1422   */\n      mstore\n        /* \"#utility.yul\":1439:1472   */\n      tag_115\n        /* \"#utility.yul\":1465:1471   */\n      dup2\n        /* \"#utility.yul\":1457:1463   */\n      dup10\n        /* \"#utility.yul\":1439:1472   */\n      tag_99\n      jump\t// in\n    tag_115:\n      sub(shl(0xa0, 0x01), 0x01)\n        /* \"#utility.yul\":1508:1540   */\n      dup9\n      and\n        /* \"#utility.yul\":1503:1505   */\n      0x60\n        /* \"#utility.yul\":1488:1506   */\n      dup6\n      add\n        /* \"#utility.yul\":1481:1541   */\n      mstore\n        /* \"#utility.yul\":1431:1472   */\n      swap2\n      pop\n        /* \"#utility.yul\":1550:1601   */\n      tag_116\n      swap1\n      pop\n        /* \"#utility.yul\":1596:1599   */\n      0x80\n        /* \"#utility.yul\":1581:1600   */\n      dup4\n      add\n        /* \"#utility.yul\":1573:1579   */\n      dup7\n        /* \"#utility.yul\":1550:1601   */\n      tag_100\n      jump\t// in\n    tag_116:\n        /* \"#utility.yul\":1638:1644   */\n      dup4\n        /* \"#utility.yul\":1632:1635   */\n      0xa0\n        /* \"#utility.yul\":1621:1630   */\n      dup4\n        /* \"#utility.yul\":1617:1636   */\n      add\n        /* \"#utility.yul\":1610:1645   */\n      mstore\n        /* \"#utility.yul\":1696:1702   */\n      dup3\n        /* \"#utility.yul\":1689:1703   */\n      iszero\n        /* \"#utility.yul\":1682:1704   */\n      iszero\n        /* \"#utility.yul\":1676:1679   */\n      0xc0\n        /* \"#utility.yul\":1665:1674   */\n      dup4\n        /* \"#utility.yul\":1661:1680   */\n      add\n        /* \"#utility.yul\":1654:1705   */\n      mstore\n        /* \"#utility.yul\":910:1711   */\n      swap9\n      swap8\n      pop\n      pop\n      pop\n      pop\n      pop\n      pop\n      pop\n      pop\n      jump\t// out\n        /* \"#utility.yul\":1716:1843   */\n    tag_101:\n        /* \"#utility.yul\":1777:1787   */\n      0x4e487b71\n        /* \"#utility.yul\":1772:1775   */\n      0xe0\n        /* \"#utility.yul\":1768:1788   */\n      shl\n        /* \"#utility.yul\":1765:1766   */\n      0x00\n        /* \"#utility.yul\":1758:1789   */\n      mstore\n        /* \"#utility.yul\":1808:1812   */\n      0x41\n        /* \"#utility.yul\":1805:1806   */\n      0x04\n        /* \"#utility.yul\":1798:1813   */\n      mstore\n        /* \"#utility.yul\":1832:1836   */\n      0x24\n        /* \"#utility.yul\":1829:1830   */\n      0x00\n        /* \"#utility.yul\":1822:1837   */\n      revert\n        /* \"#utility.yul\":1848:2574   */\n    tag_102:\n        /* \"#utility.yul\":1891:1896   */\n      0x00\n        /* \"#utility.yul\":1944:1947   */\n      dup3\n        /* \"#utility.yul\":1937:1941   */\n      0x1f\n        /* \"#utility.yul\":1929:1935   */\n      dup4\n        /* \"#utility.yul\":1925:1942   */\n      add\n        /* \"#utility.yul\":1921:1948   */\n      slt\n        /* \"#utility.yul\":1911:1966   */\n      tag_119\n      jumpi\n        /* \"#utility.yul\":1962:1963   */\n      0x00\n        /* \"#utility.yul\":1959:1960   */\n      0x00\n        /* \"#utility.yul\":1952:1964   */\n      revert\n        /* \"#utility.yul\":1911:1966   */\n    tag_119:\n        /* \"#utility.yul\":2002:2008   */\n      dup2\n        /* \"#utility.yul\":1989:2009   */\n      calldataload\n        /* \"#utility.yul\":2032:2050   */\n      0xffffffffffffffff\n        /* \"#utility.yul\":2024:2030   */\n      dup2\n        /* \"#utility.yul\":2021:2051   */\n      gt\n        /* \"#utility.yul\":2018:2074   */\n      iszero\n      tag_121\n      jumpi\n        /* \"#utility.yul\":2054:2072   */\n      tag_121\n      tag_101\n      jump\t// in\n    tag_121:\n        /* \"#utility.yul\":2103:2105   */\n      0x40\n        /* \"#utility.yul\":2097:2106   */\n      mload\n        /* \"#utility.yul\":2195:2197   */\n      0x1f\n        /* \"#utility.yul\":2157:2174   */\n      dup3\n      add\n      not(0x1f)\n        /* \"#utility.yul\":2153:2184   */\n      swap1\n      dup2\n      and\n        /* \"#utility.yul\":2186:2188   */\n      0x3f\n        /* \"#utility.yul\":2149:2189   */\n      add\n        /* \"#utility.yul\":2145:2199   */\n      and\n        /* \"#utility.yul\":2133:2200   */\n      dup2\n      add\n        /* \"#utility.yul\":2230:2248   */\n      0xffffffffffffffff\n        /* \"#utility.yul\":2215:2249   */\n      dup2\n      gt\n        /* \"#utility.yul\":2251:2273   */\n      dup3\n      dup3\n      lt\n        /* \"#utility.yul\":2212:2274   */\n      or\n        /* \"#utility.yul\":2209:2297   */\n      iszero\n      tag_123\n      jumpi\n        /* \"#utility.yul\":2277:2295   */\n      tag_123\n      tag_101\n      jump\t// in\n    tag_123:\n        /* \"#utility.yul\":2313:2315   */\n      0x40\n        /* \"#utility.yul\":2306:2328   */\n      mstore\n        /* \"#utility.yul\":2337:2359   */\n      dup2\n      dup2\n      mstore\n        /* \"#utility.yul\":2378:2397   */\n      dup4\n      dup3\n      add\n        /* \"#utility.yul\":2399:2403   */\n      0x20\n        /* \"#utility.yul\":2374:2404   */\n      add\n        /* \"#utility.yul\":2371:2410   */\n      dup6\n      lt\n        /* \"#utility.yul\":2368:2427   */\n      iszero\n      tag_124\n      jumpi\n        /* \"#utility.yul\":2423:2424   */\n      0x00\n        /* \"#utility.yul\":2420:2421   */\n      0x00\n        /* \"#utility.yul\":2413:2425   */\n      revert\n        /* \"#utility.yul\":2368:2427   */\n    tag_124:\n        /* \"#utility.yul\":2487:2493   */\n      dup2\n        /* \"#utility.yul\":2480:2484   */\n      0x20\n        /* \"#utility.yul\":2472:2478   */\n      dup6\n        /* \"#utility.yul\":2468:2485   */\n      add\n        /* \"#utility.yul\":2461:2465   */\n      0x20\n        /* \"#utility.yul\":2453:2459   */\n      dup4\n        /* \"#utility.yul\":2449:2466   */\n      add\n        /* \"#utility.yul\":2436:2494   */\n      calldatacopy\n        /* \"#utility.yul\":2542:2543   */\n      0x00\n        /* \"#utility.yul\":2514:2533   */\n      swap2\n      dup2\n      add\n        /* \"#utility.yul\":2535:2539   */\n      0x20\n        /* \"#utility.yul\":2510:2540   */\n      add\n        /* \"#utility.yul\":2503:2544   */\n      swap2\n      swap1\n      swap2\n      mstore\n        /* \"#utility.yul\":2518:2524   */\n      swap4\n        /* \"#utility.yul\":1848:2574   */\n      swap3\n      pop\n      pop\n      pop\n      jump\t// out\n        /* \"#utility.yul\":2579:3117   */\n    tag_17:\n        /* \"#utility.yul\":2667:2673   */\n      0x00\n        /* \"#utility.yul\":2675:2681   */\n      0x00\n        /* \"#utility.yul\":2728:2730   */\n      0x40\n        /* \"#utility.yul\":2716:2725   */\n      dup4\n        /* \"#utility.yul\":2707:2714   */\n      dup6\n        /* \"#utility.yul\":2703:2726   */\n      sub\n        /* \"#utility.yul\":2699:2731   */\n      slt\n        /* \"#utility.yul\":2696:2748   */\n      iszero\n      tag_126\n      jumpi\n        /* \"#utility.yul\":2744:2745   */\n      0x00\n        /* \"#utility.yul\":2741:2742   */\n      0x00\n        /* \"#utility.yul\":2734:2746   */\n      revert\n        /* \"#utility.yul\":2696:2748   */\n    tag_126:\n        /* \"#utility.yul\":2784:2793   */\n      dup3\n        /* \"#utility.yul\":2771:2794   */\n      calldataload\n        /* \"#utility.yul\":2817:2835   */\n      0xffffffffffffffff\n        /* \"#utility.yul\":2809:2815   */\n      dup2\n        /* \"#utility.yul\":2806:2836   */\n      gt\n        /* \"#utility.yul\":2803:2853   */\n      iszero\n      tag_127\n      jumpi\n        /* \"#utility.yul\":2849:2850   */\n      0x00\n        /* \"#utility.yul\":2846:2847   */\n      0x00\n        /* \"#utility.yul\":2839:2851   */\n      revert\n        /* \"#utility.yul\":2803:2853   */\n    tag_127:\n        /* \"#utility.yul\":2872:2922   */\n      tag_128\n        /* \"#utility.yul\":2914:2921   */\n      dup6\n        /* \"#utility.yul\":2905:2911   */\n      dup3\n        /* \"#utility.yul\":2894:2903   */\n      dup7\n        /* \"#utility.yul\":2890:2912   */\n      add\n        /* \"#utility.yul\":2872:2922   */\n      tag_102\n      jump\t// in\n    tag_128:\n        /* \"#utility.yul\":2862:2922   */\n      swap3\n      pop\n      pop\n        /* \"#utility.yul\":2975:2977   */\n      0x20\n        /* \"#utility.yul\":2964:2973   */\n      dup4\n        /* \"#utility.yul\":2960:2978   */\n      add\n        /* \"#utility.yul\":2947:2979   */\n      calldataload\n        /* \"#utility.yul\":3004:3022   */\n      0xffffffffffffffff\n        /* \"#utility.yul\":2994:3002   */\n      dup2\n        /* \"#utility.yul\":2991:3023   */\n      gt\n        /* \"#utility.yul\":2988:3040   */\n      iszero\n      tag_129\n      jumpi\n        /* \"#utility.yul\":3036:3037   */\n      0x00\n        /* \"#utility.yul\":3033:3034   */\n      0x00\n        /* \"#utility.yul\":3026:3038   */\n      revert\n        /* \"#utility.yul\":2988:3040   */\n    tag_129:\n        /* \"#utility.yul\":3059:3111   */\n      tag_130\n        /* \"#utility.yul\":3103:3110   */\n      dup6\n        /* \"#utility.yul\":3092:3100   */\n      dup3\n        /* \"#utility.yul\":3081:3090   */\n      dup7\n        /* \"#utility.yul\":3077:3101   */\n      add\n        /* \"#utility.yul\":3059:3111   */\n      tag_102\n      jump\t// in\n    tag_130:\n        /* \"#utility.yul\":3049:3111   */\n      swap2\n      pop\n      pop\n        /* \"#utility.yul\":2579:3117   */\n      swap3\n      pop\n      swap3\n      swap1\n      pop\n      jump\t// out\n        /* \"#utility.yul\":3304:3695   */\n    tag_23:\n        /* \"#utility.yul\":3370:3376   */\n      0x00\n        /* \"#utility.yul\":3378:3384   */\n      0x00\n        /* \"#utility.yul\":3431:3433   */\n      0x40\n        /* \"#utility.yul\":3419:3428   */\n      dup4\n        /* \"#utility.yul\":3410:3417   */\n      dup6\n        /* \"#utility.yul\":3406:3429   */\n      sub\n        /* \"#utility.yul\":3402:3434   */\n      slt\n        /* \"#utility.yul\":3399:3451   */\n      iszero\n      tag_133\n      jumpi\n        /* \"#utility.yul\":3447:3448   */\n      0x00\n        /* \"#utility.yul\":3444:3445   */\n      0x00\n        /* \"#utility.yul\":3437:3449   */\n      revert\n        /* \"#utility.yul\":3399:3451   */\n    tag_133:\n        /* \"#utility.yul\":3492:3515   */\n      dup3\n      calldataload\n      swap2\n      pop\n        /* \"#utility.yul\":3591:3593   */\n      0x20\n        /* \"#utility.yul\":3576:3594   */\n      dup4\n      add\n        /* \"#utility.yul\":3563:3595   */\n      calldataload\n        /* \"#utility.yul\":3639:3643   */\n      0xff\n        /* \"#utility.yul\":3626:3644   */\n      dup2\n      and\n        /* \"#utility.yul\":3614:3645   */\n      dup2\n      eq\n        /* \"#utility.yul\":3604:3663   */\n      tag_134\n      jumpi\n        /* \"#utility.yul\":3659:3660   */\n      0x00\n        /* \"#utility.yul\":3656:3657   */\n      0x00\n        /* \"#utility.yul\":3649:3661   */\n      revert\n        /* \"#utility.yul\":3604:3663   */\n    tag_134:\n        /* \"#utility.yul\":3682:3689   */\n      dup1\n        /* \"#utility.yul\":3672:3689   */\n      swap2\n      pop\n      pop\n        /* \"#utility.yul\":3304:3695   */\n      swap3\n      pop\n      swap3\n      swap1\n      pop\n      jump\t// out\n        /* \"#utility.yul\":3700:4486   */\n    tag_29:\n        /* \"#utility.yul\":4027:4033   */\n      dup8\n        /* \"#utility.yul\":4016:4025   */\n      dup2\n        /* \"#utility.yul\":4009:4034   */\n      mstore\n        /* \"#utility.yul\":4070:4073   */\n      0xe0\n        /* \"#utility.yul\":4065:4067   */\n      0x20\n        /* \"#utility.yul\":4054:4063   */\n      dup3\n        /* \"#utility.yul\":4050:4068   */\n      add\n        /* \"#utility.yul\":4043:4074   */\n      mstore\n        /* \"#utility.yul\":3990:3994   */\n      0x00\n        /* \"#utility.yul\":4097:4143   */\n      tag_136\n        /* \"#utility.yul\":4138:4141   */\n      0xe0\n        /* \"#utility.yul\":4127:4136   */\n      dup4\n        /* \"#utility.yul\":4123:4142   */\n      add\n        /* \"#utility.yul\":4115:4121   */\n      dup10\n        /* \"#utility.yul\":4097:4143   */\n      tag_99\n      jump\t// in\n    tag_136:\n        /* \"#utility.yul\":4191:4200   */\n      dup3\n        /* \"#utility.yul\":4183:4189   */\n      dup2\n        /* \"#utility.yul\":4179:4201   */\n      sub\n        /* \"#utility.yul\":4174:4176   */\n      0x40\n        /* \"#utility.yul\":4163:4172   */\n      dup5\n        /* \"#utility.yul\":4159:4177   */\n      add\n        /* \"#utility.yul\":4152:4202   */\n      mstore\n        /* \"#utility.yul\":4219:4252   */\n      tag_137\n        /* \"#utility.yul\":4245:4251   */\n      dup2\n        /* \"#utility.yul\":4237:4243   */\n      dup10\n        /* \"#utility.yul\":4219:4252   */\n      tag_99\n      jump\t// in\n    tag_137:\n      sub(shl(0xa0, 0x01), 0x01)\n        /* \"#utility.yul\":4288:4320   */\n      swap8\n      swap1\n      swap8\n      and\n        /* \"#utility.yul\":4283:4285   */\n      0x60\n        /* \"#utility.yul\":4268:4286   */\n      dup5\n      add\n        /* \"#utility.yul\":4261:4321   */\n      mstore\n      pop\n      pop\n        /* \"#utility.yul\":4370:4374   */\n      0xff\n        /* \"#utility.yul\":4358:4375   */\n      swap4\n      swap1\n      swap4\n      and\n        /* \"#utility.yul\":4352:4355   */\n      0x80\n        /* \"#utility.yul\":4337:4356   */\n      dup5\n      add\n        /* \"#utility.yul\":4330:4376   */\n      mstore\n        /* \"#utility.yul\":4308:4311   */\n      0xa0\n        /* \"#utility.yul\":4392:4411   */\n      dup4\n      add\n        /* \"#utility.yul\":4385:4420   */\n      swap2\n      swap1\n      swap2\n      mstore\n        /* \"#utility.yul\":4464:4478   */\n      iszero\n        /* \"#utility.yul\":4457:4479   */\n      iszero\n        /* \"#utility.yul\":4451:4454   */\n      0xc0\n        /* \"#utility.yul\":4436:4455   */\n      swap1\n      swap2\n      add\n        /* \"#utility.yul\":4429:4480   */\n      mstore\n        /* \"#utility.yul\":4211:4252   */\n      swap4\n        /* \"#utility.yul\":3700:4486   */\n      swap3\n      pop\n      pop\n      pop\n      jump\t// out\n        /* \"#utility.yul\":4491:4871   */\n    tag_37:\n        /* \"#utility.yul\":4570:4571   */\n      0x01\n        /* \"#utility.yul\":4566:4578   */\n      dup2\n      dup2\n      shr\n      swap1\n        /* \"#utility.yul\":4613:4625   */\n      dup3\n      and\n      dup1\n        /* \"#utility.yul\":4634:4695   */\n      tag_139\n      jumpi\n        /* \"#utility.yul\":4688:4692   */\n      0x7f\n        /* \"#utility.yul\":4680:4686   */\n      dup3\n        /* \"#utility.yul\":4676:4693   */\n      and\n        /* \"#utility.yul\":4666:4693   */\n      swap2\n      pop\n        /* \"#utility.yul\":4634:4695   */\n    tag_139:\n        /* \"#utility.yul\":4741:4743   */\n      0x20\n        /* \"#utility.yul\":4733:4739   */\n      dup3\n        /* \"#utility.yul\":4730:4744   */\n      lt\n        /* \"#utility.yul\":4710:4728   */\n      dup2\n        /* \"#utility.yul\":4707:4745   */\n      sub\n        /* \"#utility.yul\":4704:4865   */\n      tag_140\n      jumpi\n        /* \"#utility.yul\":4787:4797   */\n      0x4e487b71\n        /* \"#utility.yul\":4782:4785   */\n      0xe0\n        /* \"#utility.yul\":4778:4798   */\n      shl\n        /* \"#utility.yul\":4775:4776   */\n      0x00\n        /* \"#utility.yul\":4768:4799   */\n      mstore\n        /* \"#utility.yul\":4822:4826   */\n      0x22\n        /* \"#utility.yul\":4819:4820   */\n      0x04\n        /* \"#utility.yul\":4812:4827   */\n      mstore\n        /* \"#utility.yul\":4850:4854   */\n      0x24\n        /* \"#utility.yul\":4847:4848   */\n      0x00\n        /* \"#utility.yul\":4840:4855   */\n      revert\n        /* \"#utility.yul\":4704:4865   */\n    tag_140:\n      pop\n        /* \"#utility.yul\":4491:4871   */\n      swap2\n      swap1\n      pop\n      jump\t// out\n        /* \"#utility.yul\":4876:5108   */\n    tag_49:\n        /* \"#utility.yul\":4915:4918   */\n      0x00\n        /* \"#utility.yul\":4936:4953   */\n      0x01\n      dup3\n      add\n        /* \"#utility.yul\":4933:5073   */\n      tag_142\n      jumpi\n        /* \"#utility.yul\":4995:5005   */\n      0x4e487b71\n        /* \"#utility.yul\":4990:4993   */\n      0xe0\n        /* \"#utility.yul\":4986:5006   */\n      shl\n        /* \"#utility.yul\":4983:4984   */\n      0x00\n        /* \"#utility.yul\":4976:5007   */\n      mstore\n        /* \"#utility.yul\":5030:5034   */\n      0x11\n        /* \"#utility.yul\":5027:5028   */\n      0x04\n        /* \"#utility.yul\":5020:5035   */\n      mstore\n        /* \"#utility.yul\":5058:5062   */\n      0x24\n        /* \"#utility.yul\":5055:5056   */\n      0x00\n        /* \"#utility.yul\":5048:5063   */\n      revert\n        /* \"#utility.yul\":4933:5073   */\n    tag_142:\n      pop\n        /* \"#utility.yul\":5100:5101   */\n      0x01\n        /* \"#utility.yul\":5089:5102   */\n      add\n      swap1\n        /* \"#utility.yul\":4876:5108   */\n      jump\t// out\n        /* \"#utility.yul\":5239:5757   */\n    tag_104:\n        /* \"#utility.yul\":5341:5343   */\n      0x1f\n        /* \"#utility.yul\":5336:5339   */\n      dup3\n        /* \"#utility.yul\":5333:5344   */\n      gt\n        /* \"#utility.yul\":5330:5751   */\n      iszero\n      tag_145\n      jumpi\n        /* \"#utility.yul\":5377:5382   */\n      dup1\n        /* \"#utility.yul\":5374:5375   */\n      0x00\n        /* \"#utility.yul\":5367:5383   */\n      mstore\n        /* \"#utility.yul\":5421:5425   */\n      0x20\n        /* \"#utility.yul\":5418:5419   */\n      0x00\n        /* \"#utility.yul\":5408:5426   */\n      keccak256\n        /* \"#utility.yul\":5491:5493   */\n      0x1f\n        /* \"#utility.yul\":5479:5489   */\n      dup5\n        /* \"#utility.yul\":5475:5494   */\n      add\n        /* \"#utility.yul\":5472:5473   */\n      0x05\n        /* \"#utility.yul\":5468:5495   */\n      shr\n        /* \"#utility.yul\":5462:5466   */\n      dup2\n        /* \"#utility.yul\":5458:5496   */\n      add\n        /* \"#utility.yul\":5527:5531   */\n      0x20\n        /* \"#utility.yul\":5515:5525   */\n      dup6\n        /* \"#utility.yul\":5512:5532   */\n      lt\n        /* \"#utility.yul\":5509:5556   */\n      iszero\n      tag_146\n      jumpi\n      pop\n        /* \"#utility.yul\":5550:5554   */\n      dup1\n        /* \"#utility.yul\":5509:5556   */\n    tag_146:\n        /* \"#utility.yul\":5605:5607   */\n      0x1f\n        /* \"#utility.yul\":5600:5603   */\n      dup5\n        /* \"#utility.yul\":5596:5608   */\n      add\n        /* \"#utility.yul\":5593:5594   */\n      0x05\n        /* \"#utility.yul\":5589:5609   */\n      shr\n        /* \"#utility.yul\":5583:5587   */\n      dup3\n        /* \"#utility.yul\":5579:5610   */\n      add\n        /* \"#utility.yul\":5569:5610   */\n      swap2\n      pop\n        /* \"#utility.yul\":5660:5741   */\n    tag_147:\n        /* \"#utility.yul\":5678:5680   */\n      dup2\n        /* \"#utility.yul\":5671:5676   */\n      dup2\n        /* \"#utility.yul\":5668:5681   */\n      lt\n        /* \"#utility.yul\":5660:5741   */\n      iszero\n      tag_149\n      jumpi\n        /* \"#utility.yul\":5737:5738   */\n      0x00\n        /* \"#utility.yul\":5723:5739   */\n      dup2\n      sstore\n        /* \"#utility.yul\":5704:5705   */\n      0x01\n        /* \"#utility.yul\":5693:5706   */\n      add\n        /* \"#utility.yul\":5660:5741   */\n      jump(tag_147)\n    tag_149:\n        /* \"#utility.yul\":5664:5667   */\n      pop\n      pop\n        /* \"#utility.yul\":5330:5751   */\n    tag_145:\n        /* \"#utility.yul\":5239:5757   */\n      pop\n      pop\n      pop\n      jump\t// out\n        /* \"#utility.yul\":5933:7232   */\n    tag_54:\n        /* \"#utility.yul\":6059:6062   */\n      dup2\n        /* \"#utility.yul\":6053:6063   */\n      mload\n        /* \"#utility.yul\":6086:6104   */\n      0xffffffffffffffff\n        /* \"#utility.yul\":6078:6084   */\n      dup2\n        /* \"#utility.yul\":6075:6105   */\n      gt\n        /* \"#utility.yul\":6072:6128   */\n      iszero\n      tag_153\n      jumpi\n        /* \"#utility.yul\":6108:6126   */\n      tag_153\n      tag_101\n      jump\t// in\n    tag_153:\n        /* \"#utility.yul\":6137:6234   */\n      tag_154\n        /* \"#utility.yul\":6227:6233   */\n      dup2\n        /* \"#utility.yul\":6187:6225   */\n      tag_155\n        /* \"#utility.yul\":6219:6223   */\n      dup5\n        /* \"#utility.yul\":6213:6224   */\n      sload\n        /* \"#utility.yul\":6187:6225   */\n      tag_37\n      jump\t// in\n    tag_155:\n        /* \"#utility.yul\":6181:6185   */\n      dup5\n        /* \"#utility.yul\":6137:6234   */\n      tag_104\n      jump\t// in\n    tag_154:\n        /* \"#utility.yul\":6283:6287   */\n      0x20\n        /* \"#utility.yul\":6314:6316   */\n      0x1f\n        /* \"#utility.yul\":6303:6317   */\n      dup3\n      gt\n        /* \"#utility.yul\":6331:6332   */\n      0x01\n        /* \"#utility.yul\":6326:6975   */\n      dup2\n      eq\n      tag_157\n      jumpi\n        /* \"#utility.yul\":7019:7020   */\n      0x00\n        /* \"#utility.yul\":7036:7042   */\n      dup4\n        /* \"#utility.yul\":7033:7122   */\n      iszero\n      tag_158\n      jumpi\n      pop\n        /* \"#utility.yul\":7088:7107   */\n      dup5\n      dup3\n      add\n        /* \"#utility.yul\":7082:7108   */\n      mload\n        /* \"#utility.yul\":7033:7122   */\n    tag_158:\n      not(0x00)\n        /* \"#utility.yul\":5890:5891   */\n      0x03\n        /* \"#utility.yul\":5886:5897   */\n      dup6\n      swap1\n      shl\n        /* \"#utility.yul\":5882:5906   */\n      shr\n        /* \"#utility.yul\":5878:5907   */\n      not\n        /* \"#utility.yul\":5868:5908   */\n      and\n        /* \"#utility.yul\":5914:5915   */\n      0x01\n        /* \"#utility.yul\":5910:5921   */\n      dup5\n      swap1\n      shl\n        /* \"#utility.yul\":5865:5922   */\n      or\n        /* \"#utility.yul\":7135:7216   */\n      dup5\n      sstore\n        /* \"#utility.yul\":6296:7226   */\n      jump(tag_149)\n        /* \"#utility.yul\":6326:6975   */\n    tag_157:\n        /* \"#utility.yul\":5186:5187   */\n      0x00\n        /* \"#utility.yul\":5179:5193   */\n      dup5\n      dup2\n      mstore\n        /* \"#utility.yul\":5223:5227   */\n      0x20\n        /* \"#utility.yul\":5210:5228   */\n      dup2\n      keccak256\n      not(0x1f)\n        /* \"#utility.yul\":6362:6382   */\n      dup6\n      and\n      swap2\n        /* \"#utility.yul\":6480:6702   */\n    tag_161:\n        /* \"#utility.yul\":6494:6501   */\n      dup3\n        /* \"#utility.yul\":6491:6492   */\n      dup2\n        /* \"#utility.yul\":6488:6502   */\n      lt\n        /* \"#utility.yul\":6480:6702   */\n      iszero\n      tag_163\n      jumpi\n        /* \"#utility.yul\":6576:6595   */\n      dup8\n      dup6\n      add\n        /* \"#utility.yul\":6570:6596   */\n      mload\n        /* \"#utility.yul\":6555:6597   */\n      dup3\n      sstore\n        /* \"#utility.yul\":6683:6687   */\n      0x20\n        /* \"#utility.yul\":6668:6688   */\n      swap5\n      dup6\n      add\n      swap5\n        /* \"#utility.yul\":6636:6637   */\n      0x01\n        /* \"#utility.yul\":6624:6638   */\n      swap1\n      swap3\n      add\n      swap2\n        /* \"#utility.yul\":6510:6522   */\n      add\n        /* \"#utility.yul\":6480:6702   */\n      jump(tag_161)\n    tag_163:\n        /* \"#utility.yul\":6484:6487   */\n      pop\n        /* \"#utility.yul\":6730:6736   */\n      dup5\n        /* \"#utility.yul\":6721:6728   */\n      dup3\n        /* \"#utility.yul\":6718:6737   */\n      lt\n        /* \"#utility.yul\":6715:6916   */\n      iszero\n      tag_164\n      jumpi\n        /* \"#utility.yul\":6791:6810   */\n      dup7\n      dup5\n      add\n        /* \"#utility.yul\":6785:6811   */\n      mload\n      not(0x00)\n        /* \"#utility.yul\":6874:6875   */\n      0x03\n        /* \"#utility.yul\":6870:6884   */\n      dup8\n      swap1\n      shl\n        /* \"#utility.yul\":6886:6889   */\n      0xf8\n        /* \"#utility.yul\":6866:6890   */\n      and\n        /* \"#utility.yul\":6862:6899   */\n      shr\n        /* \"#utility.yul\":6858:6900   */\n      not\n        /* \"#utility.yul\":6843:6901   */\n      and\n        /* \"#utility.yul\":6828:6902   */\n      dup2\n      sstore\n        /* \"#utility.yul\":6715:6916   */\n    tag_164:\n      pop\n      pop\n      pop\n      pop\n        /* \"#utility.yul\":6962:6963   */\n      0x01\n        /* \"#utility.yul\":6946:6960   */\n      swap1\n      dup2\n      shl\n        /* \"#utility.yul\":6942:6964   */\n      add\n        /* \"#utility.yul\":6929:6965   */\n      swap1\n      sstore\n      pop\n        /* \"#utility.yul\":5933:7232   */\n      jump\t// out\n        /* \"#utility.yul\":7237:7625   */\n    tag_59:\n        /* \"#utility.yul\":7442:7444   */\n      0x60\n        /* \"#utility.yul\":7431:7440   */\n      dup2\n        /* \"#utility.yul\":7424:7445   */\n      mstore\n        /* \"#utility.yul\":7405:7409   */\n      0x00\n        /* \"#utility.yul\":7462:7507   */\n      tag_166\n        /* \"#utility.yul\":7503:7505   */\n      0x60\n        /* \"#utility.yul\":7492:7501   */\n      dup4\n        /* \"#utility.yul\":7488:7506   */\n      add\n        /* \"#utility.yul\":7480:7486   */\n      dup7\n        /* \"#utility.yul\":7462:7507   */\n      tag_99\n      jump\t// in\n    tag_166:\n      sub(shl(0xa0, 0x01), 0x01)\n        /* \"#utility.yul\":7543:7575   */\n      swap5\n      swap1\n      swap5\n      and\n        /* \"#utility.yul\":7538:7540   */\n      0x20\n        /* \"#utility.yul\":7523:7541   */\n      dup4\n      add\n        /* \"#utility.yul\":7516:7576   */\n      mstore\n      pop\n        /* \"#utility.yul\":7607:7609   */\n      0x40\n        /* \"#utility.yul\":7592:7610   */\n      add\n        /* \"#utility.yul\":7585:7619   */\n      mstore\n        /* \"#utility.yul\":7454:7507   */\n      swap2\n        /* \"#utility.yul\":7237:7625   */\n      swap1\n      pop\n      jump\t// out\n        /* \"#utility.yul\":7630:7976   */\n    tag_63:\n        /* \"#utility.yul\":7832:7834   */\n      0x20\n        /* \"#utility.yul\":7814:7835   */\n      dup1\n      dup3\n      mstore\n        /* \"#utility.yul\":7871:7873   */\n      0x16\n        /* \"#utility.yul\":7851:7869   */\n      swap1\n      dup3\n      add\n        /* \"#utility.yul\":7844:7874   */\n      mstore\n      shl(0x52, 0x141c9bd91d58dd08191bd95cc81b9bdd08195e1a5cdd)\n        /* \"#utility.yul\":7905:7907   */\n      0x40\n        /* \"#utility.yul\":7890:7908   */\n      dup3\n      add\n        /* \"#utility.yul\":7883:7935   */\n      mstore\n        /* \"#utility.yul\":7967:7969   */\n      0x60\n        /* \"#utility.yul\":7952:7970   */\n      add\n      swap1\n        /* \"#utility.yul\":7630:7976   */\n      jump\t// out\n        /* \"#utility.yul\":8683:8953   */\n    tag_77:\n        /* \"#utility.yul\":8851:8853   */\n      0x40\n        /* \"#utility.yul\":8836:8854   */\n      dup2\n      add\n        /* \"#utility.yul\":8863:8904   */\n      tag_171\n        /* \"#utility.yul\":8840:8849   */\n      dup3\n        /* \"#utility.yul\":8886:8892   */\n      dup6\n        /* \"#utility.yul\":8863:8904   */\n      tag_100\n      jump\t// in\n    tag_171:\n        /* \"#utility.yul\":8940:8946   */\n      dup3\n        /* \"#utility.yul\":8935:8937   */\n      0x20\n        /* \"#utility.yul\":8924:8933   */\n      dup4\n        /* \"#utility.yul\":8920:8938   */\n      add\n        /* \"#utility.yul\":8913:8947   */\n      mstore\n        /* \"#utility.yul\":8683:8953   */\n      swap4\n      swap3\n      pop\n      pop\n      pop\n      jump\t// out\n\n    auxdata: 0xa26469706673582212205963b86030e7822c54b9c61543743c51e8f865b5930b535b8b5166affeb98c8164736f6c634300081d0033\n}\n",
    "bytecode": {
      "linkReferences": {},
      "object": "6080604052348015600e575f5ffd5b50610bf18061001c5f395ff3fe608060405234801561000f575f5ffd5b5060043610610060575f3560e01c80637acc0b201461006457806387592bce14610093578063920e2621146100b4578063b9db15b4146100c9578063e0f6ef87146100ef578063ed90c7b7146100f8575b5f5ffd5b61007761007236600461076d565b61010b565b60405161008a97969594939291906107e6565b60405180910390f35b6100a66100a13660046108e9565b610264565b60405190815260200161008a565b6100c76100c236600461094e565b6103a9565b005b6100dc6100d736600461076d565b610523565b60405161008a9796959493929190610981565b6100a660015481565b6100c761010636600461076d565b6106d1565b5f602081905290815260409020805460018201805491929161012c906109e0565b80601f0160208091040260200160405190810160405280929190818152602001828054610158906109e0565b80156101a35780601f1061017a576101008083540402835291602001916101a3565b820191905f5260205f20905b81548152906001019060200180831161018657829003601f168201915b5050505050908060020180546101b8906109e0565b80601f01602080910402602001604051908101604052809291908181526020018280546101e4906109e0565b801561022f5780601f106102065761010080835404028352916020019161022f565b820191905f5260205f20905b81548152906001019060200180831161021257829003601f168201915b5050506003840154600485015460059095015493946001600160a01b0382169460ff600160a01b909304831694509092501687565b600180545f918261027483610a18565b90915550506040805160e0810182526001805480835260208084018881528486018890523360608601525f608086018190524260a087015260c0860185905292835290829052939020825181559251919291908201906102d49082610a88565b50604082015160028201906102e99082610a88565b5060608201516003820180546001600160a01b039092166001600160a01b03198316811782556080850151926001600160a81b03191617600160a01b836002811115610337576103376107b2565b021790555060a0820151600482015560c0909101516005909101805460ff19169115159190911790556001546040517f90934fc9dc1095f968f4207cb62e27da1da3e31653ff34cbf837b6c349ded7609061039790869033904290610b43565b60405180910390a25060015492915050565b6001548211156103d45760405162461bcd60e51b81526004016103cb90610b70565b60405180910390fd5b5f8281526020819052604090206005015460ff166104345760405162461bcd60e51b815260206004820152601860248201527f50726f6475637420686173206265656e2064656c65746564000000000000000060448201526064016103cb565b60028160ff16111561047f5760405162461bcd60e51b8152602060048201526014602482015273496e76616c6964207374617475732076616c756560601b60448201526064016103cb565b5f82815260208190526040902060ff821660028111156104a1576104a16107b2565b60038201805460ff60a01b1916600160a01b8360028111156104c5576104c56107b2565b0217905550426004820155827f4f4cecb8d0fd736cdab2e7eb7cfce8ea973e74f91fbcdfd5d02f6707ebd6c72c60ff84166002811115610507576105076107b2565b42604051610516929190610ba0565b60405180910390a2505050565b5f6060805f5f5f5f60015488111561054d5760405162461bcd60e51b81526004016103cb90610b70565b5f8881526020819052604090208054600382015460018301906002808501916001600160a01b03811691600160a01b90910460ff1690811115610592576105926107b2565b60048601546005870154855460ff9091169086906105af906109e0565b80601f01602080910402602001604051908101604052809291908181526020018280546105db906109e0565b80156106265780601f106105fd57610100808354040283529160200191610626565b820191905f5260205f20905b81548152906001019060200180831161060957829003601f168201915b50505050509550848054610639906109e0565b80601f0160208091040260200160405190810160405280929190818152602001828054610665906109e0565b80156106b05780601f10610687576101008083540402835291602001916106b0565b820191905f5260205f20905b81548152906001019060200180831161069357829003601f168201915b50505050509450975097509750975097509750975050919395979092949650565b6001548111156106f35760405162461bcd60e51b81526004016103cb90610b70565b5f8181526020819052604090206005015460ff166107535760405162461bcd60e51b815260206004820152601760248201527f50726f6475637420616c72656164792064656c6574656400000000000000000060448201526064016103cb565b5f908152602081905260409020600501805460ff19169055565b5f6020828403121561077d575f5ffd5b5035919050565b5f81518084528060208401602086015e5f602082860101526020601f19601f83011685010191505092915050565b634e487b7160e01b5f52602160045260245ffd5b600381106107e257634e487b7160e01b5f52602160045260245ffd5b9052565b87815260e060208201525f6107fe60e0830189610784565b82810360408401526108108189610784565b6001600160a01b03881660608501529150610830905060808301866107c6565b8360a083015282151560c083015298975050505050505050565b634e487b7160e01b5f52604160045260245ffd5b5f82601f83011261086d575f5ffd5b813567ffffffffffffffff8111156108875761088761084a565b604051601f8201601f19908116603f0116810167ffffffffffffffff811182821017156108b6576108b661084a565b6040528181528382016020018510156108cd575f5ffd5b816020850160208301375f918101602001919091529392505050565b5f5f604083850312156108fa575f5ffd5b823567ffffffffffffffff811115610910575f5ffd5b61091c8582860161085e565b925050602083013567ffffffffffffffff811115610938575f5ffd5b6109448582860161085e565b9150509250929050565b5f5f6040838503121561095f575f5ffd5b82359150602083013560ff81168114610976575f5ffd5b809150509250929050565b87815260e060208201525f61099960e0830189610784565b82810360408401526109ab8189610784565b6001600160a01b03979097166060840152505060ff93909316608084015260a0830191909152151560c0909101529392505050565b600181811c908216806109f457607f821691505b602082108103610a1257634e487b7160e01b5f52602260045260245ffd5b50919050565b5f60018201610a3557634e487b7160e01b5f52601160045260245ffd5b5060010190565b601f821115610a8357805f5260205f20601f840160051c81016020851015610a615750805b601f840160051c820191505b81811015610a80575f8155600101610a6d565b50505b505050565b815167ffffffffffffffff811115610aa257610aa261084a565b610ab681610ab084546109e0565b84610a3c565b6020601f821160018114610ae8575f8315610ad15750848201515b5f19600385901b1c1916600184901b178455610a80565b5f84815260208120601f198516915b82811015610b175787850151825560209485019460019092019101610af7565b5084821015610b3457868401515f19600387901b60f8161c191681555b50505050600190811b01905550565b606081525f610b556060830186610784565b6001600160a01b039490941660208301525060400152919050565b602080825260169082015275141c9bd91d58dd08191bd95cc81b9bdd08195e1a5cdd60521b604082015260600190565b60408101610bae82856107c6565b826020830152939250505056fea26469706673582212205963b86030e7822c54b9c61543743c51e8f865b5930b535b8b5166affeb98c8164736f6c634300081d0033",
      "opcodes": "PUSH1 0x80 PUSH1 0x40 MSTORE CALLVALUE DUP1 ISZERO PUSH1 0xE JUMPI PUSH0 PUSH0 REVERT JUMPDEST POP PUSH2 0xBF1 DUP1 PUSH2 0x1C PUSH0 CODECOPY PUSH0 RETURN INVALID PUSH1 0x80 PUSH1 0x40 MSTORE CALLVALUE DUP1 ISZERO PUSH2 0xF JUMPI PUSH0 PUSH0 REVERT JUMPDEST POP PUSH1 0x4 CALLDATASIZE LT PUSH2 0x60 JUMPI PUSH0 CALLDATALOAD PUSH1 0xE0 SHR DUP1 PUSH4 0x7ACC0B20 EQ PUSH2 0x64 JUMPI DUP1 PUSH4 0x87592BCE EQ PUSH2 0x93 JUMPI DUP1 PUSH4 0x920E2621 EQ PUSH2 0xB4 JUMPI DUP1 PUSH4 0xB9DB15B4 EQ PUSH2 0xC9 JUMPI DUP1 PUSH4 0xE0F6EF87 EQ PUSH2 0xEF JUMPI DUP1 PUSH4 0xED90C7B7 EQ PUSH2 0xF8 JUMPI JUMPDEST PUSH0 PUSH0 REVERT JUMPDEST PUSH2 0x77 PUSH2 0x72 CALLDATASIZE PUSH1 0x4 PUSH2 0x76D JUMP JUMPDEST PUSH2 0x10B JUMP JUMPDEST PUSH1 0x40 MLOAD PUSH2 0x8A SWAP8 SWAP7 SWAP6 SWAP5 SWAP4 SWAP3 SWAP2 SWAP1 PUSH2 0x7E6 JUMP JUMPDEST PUSH1 0x40 MLOAD DUP1 SWAP2 SUB SWAP1 RETURN JUMPDEST PUSH2 0xA6 PUSH2 0xA1 CALLDATASIZE PUSH1 0x4 PUSH2 0x8E9 JUMP JUMPDEST PUSH2 0x264 JUMP JUMPDEST PUSH1 0x40 MLOAD SWAP1 DUP2 MSTORE PUSH1 0x20 ADD PUSH2 0x8A JUMP JUMPDEST PUSH2 0xC7 PUSH2 0xC2 CALLDATASIZE PUSH1 0x4 PUSH2 0x94E JUMP JUMPDEST PUSH2 0x3A9 JUMP JUMPDEST STOP JUMPDEST PUSH2 0xDC PUSH2 0xD7 CALLDATASIZE PUSH1 0x4 PUSH2 0x76D JUMP JUMPDEST PUSH2 0x523 JUMP JUMPDEST PUSH1 0x40 MLOAD PUSH2 0x8A SWAP8 SWAP7 SWAP6 SWAP5 SWAP4 SWAP3 SWAP2 SWAP1 PUSH2 0x981 JUMP JUMPDEST PUSH2 0xA6 PUSH1 0x1 SLOAD DUP2 JUMP JUMPDEST PUSH2 0xC7 PUSH2 0x106 CALLDATASIZE PUSH1 0x4 PUSH2 0x76D JUMP JUMPDEST PUSH2 0x6D1 JUMP JUMPDEST PUSH0 PUSH1 0x20 DUP2 SWAP1 MSTORE SWAP1 DUP2 MSTORE PUSH1 0x40 SWAP1 KECCAK256 DUP1 SLOAD PUSH1 0x1 DUP3 ADD DUP1 SLOAD SWAP2 SWAP3 SWAP2 PUSH2 0x12C SWAP1 PUSH2 0x9E0 JUMP JUMPDEST DUP1 PUSH1 0x1F ADD PUSH1 0x20 DUP1 SWAP2 DIV MUL PUSH1 0x20 ADD PUSH1 0x40 MLOAD SWAP1 DUP2 ADD PUSH1 0x40 MSTORE DUP1 SWAP3 SWAP2 SWAP1 DUP2 DUP2 MSTORE PUSH1 0x20 ADD DUP3 DUP1 SLOAD PUSH2 0x158 SWAP1 PUSH2 0x9E0 JUMP JUMPDEST DUP1 ISZERO PUSH2 0x1A3 JUMPI DUP1 PUSH1 0x1F LT PUSH2 0x17A JUMPI PUSH2 0x100 DUP1 DUP4 SLOAD DIV MUL DUP4 MSTORE SWAP2 PUSH1 0x20 ADD SWAP2 PUSH2 0x1A3 JUMP JUMPDEST DUP3 ADD SWAP2 SWAP1 PUSH0 MSTORE PUSH1 0x20 PUSH0 KECCAK256 SWAP1 JUMPDEST DUP2 SLOAD DUP2 MSTORE SWAP1 PUSH1 0x1 ADD SWAP1 PUSH1 0x20 ADD DUP1 DUP4 GT PUSH2 0x186 JUMPI DUP3 SWAP1 SUB PUSH1 0x1F AND DUP3 ADD SWAP2 JUMPDEST POP POP POP POP POP SWAP1 DUP1 PUSH1 0x2 ADD DUP1 SLOAD PUSH2 0x1B8 SWAP1 PUSH2 0x9E0 JUMP JUMPDEST DUP1 PUSH1 0x1F ADD PUSH1 0x20 DUP1 SWAP2 DIV MUL PUSH1 0x20 ADD PUSH1 0x40 MLOAD SWAP1 DUP2 ADD PUSH1 0x40 MSTORE DUP1 SWAP3 SWAP2 SWAP1 DUP2 DUP2 MSTORE PUSH1 0x20 ADD DUP3 DUP1 SLOAD PUSH2 0x1E4 SWAP1 PUSH2 0x9E0 JUMP JUMPDEST DUP1 ISZERO PUSH2 0x22F JUMPI DUP1 PUSH1 0x1F LT PUSH2 0x206 JUMPI PUSH2 0x100 DUP1 DUP4 SLOAD DIV MUL DUP4 MSTORE SWAP2 PUSH1 0x20 ADD SWAP2 PUSH2 0x22F JUMP JUMPDEST DUP3 ADD SWAP2 SWAP1 PUSH0 MSTORE PUSH1 0x20 PUSH0 KECCAK256 SWAP1 JUMPDEST DUP2 SLOAD DUP2 MSTORE SWAP1 PUSH1 0x1 ADD SWAP1 PUSH1 0x20 ADD DUP1 DUP4 GT PUSH2 0x212 JUMPI DUP3 SWAP1 SUB PUSH1 0x1F AND DUP3 ADD SWAP2 JUMPDEST POP POP POP PUSH1 0x3 DUP5 ADD SLOAD PUSH1 0x4 DUP6 ADD SLOAD PUSH1 0x5 SWAP1 SWAP6 ADD SLOAD SWAP4 SWAP5 PUSH1 0x1 PUSH1 0x1 PUSH1 0xA0 SHL SUB DUP3 AND SWAP5 PUSH1 0xFF PUSH1 0x1 PUSH1 0xA0 SHL SWAP1 SWAP4 DIV DUP4 AND SWAP5 POP SWAP1 SWAP3 POP AND DUP8 JUMP JUMPDEST PUSH1 0x1 DUP1 SLOAD PUSH0 SWAP2 DUP3 PUSH2 0x274 DUP4 PUSH2 0xA18 JUMP JUMPDEST SWAP1 SWAP2 SSTORE POP POP PUSH1 0x40 DUP1 MLOAD PUSH1 0xE0 DUP2 ADD DUP3 MSTORE PUSH1 0x1 DUP1 SLOAD DUP1 DUP4 MSTORE PUSH1 0x20 DUP1 DUP5 ADD DUP9 DUP2 MSTORE DUP5 DUP7 ADD DUP9 SWAP1 MSTORE CALLER PUSH1 0x60 DUP7 ADD MSTORE PUSH0 PUSH1 0x80 DUP7 ADD DUP2 SWAP1 MSTORE TIMESTAMP PUSH1 0xA0 DUP8 ADD MSTORE PUSH1 0xC0 DUP7 ADD DUP6 SWAP1 MSTORE SWAP3 DUP4 MSTORE SWAP1 DUP3 SWAP1 MSTORE SWAP4 SWAP1 KECCAK256 DUP3 MLOAD DUP2 SSTORE SWAP3 MLOAD SWAP2 SWAP3 SWAP2 SWAP1 DUP3 ADD SWAP1 PUSH2 0x2D4 SWAP1 DUP3 PUSH2 0xA88 JUMP JUMPDEST POP PUSH1 0x40 DUP3 ADD MLOAD PUSH1 0x2 DUP3 ADD SWAP1 PUSH2 0x2E9 SWAP1 DUP3 PUSH2 0xA88 JUMP JUMPDEST POP PUSH1 0x60 DUP3 ADD MLOAD PUSH1 0x3 DUP3 ADD DUP1 SLOAD PUSH1 0x1 PUSH1 0x1 PUSH1 0xA0 SHL SUB SWAP1 SWAP3 AND PUSH1 0x1 PUSH1 0x1 PUSH1 0xA0 SHL SUB NOT DUP4 AND DUP2 OR DUP3 SSTORE PUSH1 0x80 DUP6 ADD MLOAD SWAP3 PUSH1 0x1 PUSH1 0x1 PUSH1 0xA8 SHL SUB NOT AND OR PUSH1 0x1 PUSH1 0xA0 SHL DUP4 PUSH1 0x2 DUP2 GT ISZERO PUSH2 0x337 JUMPI PUSH2 0x337 PUSH2 0x7B2 JUMP JUMPDEST MUL OR SWAP1 SSTORE POP PUSH1 0xA0 DUP3 ADD MLOAD PUSH1 0x4 DUP3 ADD SSTORE PUSH1 0xC0 SWAP1 SWAP2 ADD MLOAD PUSH1 0x5 SWAP1 SWAP2 ADD DUP1 SLOAD PUSH1 0xFF NOT AND SWAP2 ISZERO ISZERO SWAP2 SWAP1 SWAP2 OR SWAP1 SSTORE PUSH1 0x1 SLOAD PUSH1 0x40 MLOAD PUSH32 0x90934FC9DC1095F968F4207CB62E27DA1DA3E31653FF34CBF837B6C349DED760 SWAP1 PUSH2 0x397 SWAP1 DUP7 SWAP1 CALLER SWAP1 TIMESTAMP SWAP1 PUSH2 0xB43 JUMP JUMPDEST PUSH1 0x40 MLOAD DUP1 SWAP2 SUB SWAP1 LOG2 POP PUSH1 0x1 SLOAD SWAP3 SWAP2 POP POP JUMP JUMPDEST PUSH1 0x1 SLOAD DUP3 GT ISZERO PUSH2 0x3D4 JUMPI PUSH1 0x40 MLOAD PUSH3 0x461BCD PUSH1 0xE5 SHL DUP2 MSTORE PUSH1 0x4 ADD PUSH2 0x3CB SWAP1 PUSH2 0xB70 JUMP JUMPDEST PUSH1 0x40 MLOAD DUP1 SWAP2 SUB SWAP1 REVERT JUMPDEST PUSH0 DUP3 DUP2 MSTORE PUSH1 0x20 DUP2 SWAP1 MSTORE PUSH1 0x40 SWAP1 KECCAK256 PUSH1 0x5 ADD SLOAD PUSH1 0xFF AND PUSH2 0x434 JUMPI PUSH1 0x40 MLOAD PUSH3 0x461BCD PUSH1 0xE5 SHL DUP2 MSTORE PUSH1 0x20 PUSH1 0x4 DUP3 ADD MSTORE PUSH1 0x18 PUSH1 0x24 DUP3 ADD MSTORE PUSH32 0x50726F6475637420686173206265656E2064656C657465640000000000000000 PUSH1 0x44 DUP3 ADD MSTORE PUSH1 0x64 ADD PUSH2 0x3CB JUMP JUMPDEST PUSH1 0x2 DUP2 PUSH1 0xFF AND GT ISZERO PUSH2 0x47F JUMPI PUSH1 0x40 MLOAD PUSH3 0x461BCD PUSH1 0xE5 SHL DUP2 MSTORE PUSH1 0x20 PUSH1 0x4 DUP3 ADD MSTORE PUSH1 0x14 PUSH1 0x24 DUP3 ADD MSTORE PUSH20 0x496E76616C6964207374617475732076616C7565 PUSH1 0x60 SHL PUSH1 0x44 DUP3 ADD MSTORE PUSH1 0x64 ADD PUSH2 0x3CB JUMP JUMPDEST PUSH0 DUP3 DUP2 MSTORE PUSH1 0x20 DUP2 SWAP1 MSTORE PUSH1 0x40 SWAP1 KECCAK256 PUSH1 0xFF DUP3 AND PUSH1 0x2 DUP2 GT ISZERO PUSH2 0x4A1 JUMPI PUSH2 0x4A1 PUSH2 0x7B2 JUMP JUMPDEST PUSH1 0x3 DUP3 ADD DUP1 SLOAD PUSH1 0xFF PUSH1 0xA0 SHL NOT AND PUSH1 0x1 PUSH1 0xA0 SHL DUP4 PUSH1 0x2 DUP2 GT ISZERO PUSH2 0x4C5 JUMPI PUSH2 0x4C5 PUSH2 0x7B2 JUMP JUMPDEST MUL OR SWAP1 SSTORE POP TIMESTAMP PUSH1 0x4 DUP3 ADD SSTORE DUP3 PUSH32 0x4F4CECB8D0FD736CDAB2E7EB7CFCE8EA973E74F91FBCDFD5D02F6707EBD6C72C PUSH1 0xFF DUP5 AND PUSH1 0x2 DUP2 GT ISZERO PUSH2 0x507 JUMPI PUSH2 0x507 PUSH2 0x7B2 JUMP JUMPDEST TIMESTAMP PUSH1 0x40 MLOAD PUSH2 0x516 SWAP3 SWAP2 SWAP1 PUSH2 0xBA0 JUMP JUMPDEST PUSH1 0x40 MLOAD DUP1 SWAP2 SUB SWAP1 LOG2 POP POP POP JUMP JUMPDEST PUSH0 PUSH1 0x60 DUP1 PUSH0 PUSH0 PUSH0 PUSH0 PUSH1 0x1 SLOAD DUP9 GT ISZERO PUSH2 0x54D JUMPI PUSH1 0x40 MLOAD PUSH3 0x461BCD PUSH1 0xE5 SHL DUP2 MSTORE PUSH1 0x4 ADD PUSH2 0x3CB SWAP1 PUSH2 0xB70 JUMP JUMPDEST PUSH0 DUP9 DUP2 MSTORE PUSH1 0x20 DUP2 SWAP1 MSTORE PUSH1 0x40 SWAP1 KECCAK256 DUP1 SLOAD PUSH1 0x3 DUP3 ADD SLOAD PUSH1 0x1 DUP4 ADD SWAP1 PUSH1 0x2 DUP1 DUP6 ADD SWAP2 PUSH1 0x1 PUSH1 0x1 PUSH1 0xA0 SHL SUB DUP2 AND SWAP2 PUSH1 0x1 PUSH1 0xA0 SHL SWAP1 SWAP2 DIV PUSH1 0xFF AND SWAP1 DUP2 GT ISZERO PUSH2 0x592 JUMPI PUSH2 0x592 PUSH2 0x7B2 JUMP JUMPDEST PUSH1 0x4 DUP7 ADD SLOAD PUSH1 0x5 DUP8 ADD SLOAD DUP6 SLOAD PUSH1 0xFF SWAP1 SWAP2 AND SWAP1 DUP7 SWAP1 PUSH2 0x5AF SWAP1 PUSH2 0x9E0 JUMP JUMPDEST DUP1 PUSH1 0x1F ADD PUSH1 0x20 DUP1 SWAP2 DIV MUL PUSH1 0x20 ADD PUSH1 0x40 MLOAD SWAP1 DUP2 ADD PUSH1 0x40 MSTORE DUP1 SWAP3 SWAP2 SWAP1 DUP2 DUP2 MSTORE PUSH1 0x20 ADD DUP3 DUP1 SLOAD PUSH2 0x5DB SWAP1 PUSH2 0x9E0 JUMP JUMPDEST DUP1 ISZERO PUSH2 0x626 JUMPI DUP1 PUSH1 0x1F LT PUSH2 0x5FD JUMPI PUSH2 0x100 DUP1 DUP4 SLOAD DIV MUL DUP4 MSTORE SWAP2 PUSH1 0x20 ADD SWAP2 PUSH2 0x626 JUMP JUMPDEST DUP3 ADD SWAP2 SWAP1 PUSH0 MSTORE PUSH1 0x20 PUSH0 KECCAK256 SWAP1 JUMPDEST DUP2 SLOAD DUP2 MSTORE SWAP1 PUSH1 0x1 ADD SWAP1 PUSH1 0x20 ADD DUP1 DUP4 GT PUSH2 0x609 JUMPI DUP3 SWAP1 SUB PUSH1 0x1F AND DUP3 ADD SWAP2 JUMPDEST POP POP POP POP POP SWAP6 POP DUP5 DUP1 SLOAD PUSH2 0x639 SWAP1 PUSH2 0x9E0 JUMP JUMPDEST DUP1 PUSH1 0x1F ADD PUSH1 0x20 DUP1 SWAP2 DIV MUL PUSH1 0x20 ADD PUSH1 0x40 MLOAD SWAP1 DUP2 ADD PUSH1 0x40 MSTORE DUP1 SWAP3 SWAP2 SWAP1 DUP2 DUP2 MSTORE PUSH1 0x20 ADD DUP3 DUP1 SLOAD PUSH2 0x665 SWAP1 PUSH2 0x9E0 JUMP JUMPDEST DUP1 ISZERO PUSH2 0x6B0 JUMPI DUP1 PUSH1 0x1F LT PUSH2 0x687 JUMPI PUSH2 0x100 DUP1 DUP4 SLOAD DIV MUL DUP4 MSTORE SWAP2 PUSH1 0x20 ADD SWAP2 PUSH2 0x6B0 JUMP JUMPDEST DUP3 ADD SWAP2 SWAP1 PUSH0 MSTORE PUSH1 0x20 PUSH0 KECCAK256 SWAP1 JUMPDEST DUP2 SLOAD DUP2 MSTORE SWAP1 PUSH1 0x1 ADD SWAP1 PUSH1 0x20 ADD DUP1 DUP4 GT PUSH2 0x693 JUMPI DUP3 SWAP1 SUB PUSH1 0x1F AND DUP3 ADD SWAP2 JUMPDEST POP POP POP POP POP SWAP5 POP SWAP8 POP SWAP8 POP SWAP8 POP SWAP8 POP SWAP8 POP SWAP8 POP SWAP8 POP POP SWAP2 SWAP4 SWAP6 SWAP8 SWAP1 SWAP3 SWAP5 SWAP7 POP JUMP JUMPDEST PUSH1 0x1 SLOAD DUP2 GT ISZERO PUSH2 0x6F3 JUMPI PUSH1 0x40 MLOAD PUSH3 0x461BCD PUSH1 0xE5 SHL DUP2 MSTORE PUSH1 0x4 ADD PUSH2 0x3CB SWAP1 PUSH2 0xB70 JUMP JUMPDEST PUSH0 DUP2 DUP2 MSTORE PUSH1 0x20 DUP2 SWAP1 MSTORE PUSH1 0x40 SWAP1 KECCAK256 PUSH1 0x5 ADD SLOAD PUSH1 0xFF AND PUSH2 0x753 JUMPI PUSH1 0x40 MLOAD PUSH3 0x461BCD PUSH1 0xE5 SHL DUP2 MSTORE PUSH1 0x20 PUSH1 0x4 DUP3 ADD MSTORE PUSH1 0x17 PUSH1 0x24 DUP3 ADD MSTORE PUSH32 0x50726F6475637420616C72656164792064656C65746564000000000000000000 PUSH1 0x44 DUP3 ADD MSTORE PUSH1 0x64 ADD PUSH2 0x3CB JUMP JUMPDEST PUSH0 SWAP1 DUP2 MSTORE PUSH1 0x20 DUP2 SWAP1 MSTORE PUSH1 0x40 SWAP1 KECCAK256 PUSH1 0x5 ADD DUP1 SLOAD PUSH1 0xFF NOT AND SWAP1 SSTORE JUMP JUMPDEST PUSH0 PUSH1 0x20 DUP3 DUP5 SUB SLT ISZERO PUSH2 0x77D JUMPI PUSH0 PUSH0 REVERT JUMPDEST POP CALLDATALOAD SWAP2 SWAP1 POP JUMP JUMPDEST PUSH0 DUP2 MLOAD DUP1 DUP5 MSTORE DUP1 PUSH1 0x20 DUP5 ADD PUSH1 0x20 DUP7 ADD MCOPY PUSH0 PUSH1 0x20 DUP3 DUP7 ADD ADD MSTORE PUSH1 0x20 PUSH1 0x1F NOT PUSH1 0x1F DUP4 ADD AND DUP6 ADD ADD SWAP2 POP POP SWAP3 SWAP2 POP POP JUMP JUMPDEST PUSH4 0x4E487B71 PUSH1 0xE0 SHL PUSH0 MSTORE PUSH1 0x21 PUSH1 0x4 MSTORE PUSH1 0x24 PUSH0 REVERT JUMPDEST PUSH1 0x3 DUP2 LT PUSH2 0x7E2 JUMPI PUSH4 0x4E487B71 PUSH1 0xE0 SHL PUSH0 MSTORE PUSH1 0x21 PUSH1 0x4 MSTORE PUSH1 0x24 PUSH0 REVERT JUMPDEST SWAP1 MSTORE JUMP JUMPDEST DUP8 DUP2 MSTORE PUSH1 0xE0 PUSH1 0x20 DUP3 ADD MSTORE PUSH0 PUSH2 0x7FE PUSH1 0xE0 DUP4 ADD DUP10 PUSH2 0x784 JUMP JUMPDEST DUP3 DUP2 SUB PUSH1 0x40 DUP5 ADD MSTORE PUSH2 0x810 DUP2 DUP10 PUSH2 0x784 JUMP JUMPDEST PUSH1 0x1 PUSH1 0x1 PUSH1 0xA0 SHL SUB DUP9 AND PUSH1 0x60 DUP6 ADD MSTORE SWAP2 POP PUSH2 0x830 SWAP1 POP PUSH1 0x80 DUP4 ADD DUP7 PUSH2 0x7C6 JUMP JUMPDEST DUP4 PUSH1 0xA0 DUP4 ADD MSTORE DUP3 ISZERO ISZERO PUSH1 0xC0 DUP4 ADD MSTORE SWAP9 SWAP8 POP POP POP POP POP POP POP POP JUMP JUMPDEST PUSH4 0x4E487B71 PUSH1 0xE0 SHL PUSH0 MSTORE PUSH1 0x41 PUSH1 0x4 MSTORE PUSH1 0x24 PUSH0 REVERT JUMPDEST PUSH0 DUP3 PUSH1 0x1F DUP4 ADD SLT PUSH2 0x86D JUMPI PUSH0 PUSH0 REVERT JUMPDEST DUP2 CALLDATALOAD PUSH8 0xFFFFFFFFFFFFFFFF DUP2 GT ISZERO PUSH2 0x887 JUMPI PUSH2 0x887 PUSH2 0x84A JUMP JUMPDEST PUSH1 0x40 MLOAD PUSH1 0x1F DUP3 ADD PUSH1 0x1F NOT SWAP1 DUP2 AND PUSH1 0x3F ADD AND DUP2 ADD PUSH8 0xFFFFFFFFFFFFFFFF DUP2 GT DUP3 DUP3 LT OR ISZERO PUSH2 0x8B6 JUMPI PUSH2 0x8B6 PUSH2 0x84A JUMP JUMPDEST PUSH1 0x40 MSTORE DUP2 DUP2 MSTORE DUP4 DUP3 ADD PUSH1 0x20 ADD DUP6 LT ISZERO PUSH2 0x8CD JUMPI PUSH0 PUSH0 REVERT JUMPDEST DUP2 PUSH1 0x20 DUP6 ADD PUSH1 0x20 DUP4 ADD CALLDATACOPY PUSH0 SWAP2 DUP2 ADD PUSH1 0x20 ADD SWAP2 SWAP1 SWAP2 MSTORE SWAP4 SWAP3 POP POP POP JUMP JUMPDEST PUSH0 PUSH0 PUSH1 0x40 DUP4 DUP6 SUB SLT ISZERO PUSH2 0x8FA JUMPI PUSH0 PUSH0 REVERT JUMPDEST DUP3 CALLDATALOAD PUSH8 0xFFFFFFFFFFFFFFFF DUP2 GT ISZERO PUSH2 0x910 JUMPI PUSH0 PUSH0 REVERT JUMPDEST PUSH2 0x91C DUP6 DUP3 DUP7 ADD PUSH2 0x85E JUMP JUMPDEST SWAP3 POP POP PUSH1 0x20 DUP4 ADD CALLDATALOAD PUSH8 0xFFFFFFFFFFFFFFFF DUP2 GT ISZERO PUSH2 0x938 JUMPI PUSH0 PUSH0 REVERT JUMPDEST PUSH2 0x944 DUP6 DUP3 DUP7 ADD PUSH2 0x85E JUMP JUMPDEST SWAP2 POP POP SWAP3 POP SWAP3 SWAP1 POP JUMP JUMPDEST PUSH0 PUSH0 PUSH1 0x40 DUP4 DUP6 SUB SLT ISZERO PUSH2 0x95F JUMPI PUSH0 PUSH0 REVERT JUMPDEST DUP3 CALLDATALOAD SWAP2 POP PUSH1 0x20 DUP4 ADD CALLDATALOAD PUSH1 0xFF DUP2 AND DUP2 EQ PUSH2 0x976 JUMPI PUSH0 PUSH0 REVERT JUMPDEST DUP1 SWAP2 POP POP SWAP3 POP SWAP3 SWAP1 POP JUMP JUMPDEST DUP8 DUP2 MSTORE PUSH1 0xE0 PUSH1 0x20 DUP3 ADD MSTORE PUSH0 PUSH2 0x999 PUSH1 0xE0 DUP4 ADD DUP10 PUSH2 0x784 JUMP JUMPDEST DUP3 DUP2 SUB PUSH1 0x40 DUP5 ADD MSTORE PUSH2 0x9AB DUP2 DUP10 PUSH2 0x784 JUMP JUMPDEST PUSH1 0x1 PUSH1 0x1 PUSH1 0xA0 SHL SUB SWAP8 SWAP1 SWAP8 AND PUSH1 0x60 DUP5 ADD MSTORE POP POP PUSH1 0xFF SWAP4 SWAP1 SWAP4 AND PUSH1 0x80 DUP5 ADD MSTORE PUSH1 0xA0 DUP4 ADD SWAP2 SWAP1 SWAP2 MSTORE ISZERO ISZERO PUSH1 0xC0 SWAP1 SWAP2 ADD MSTORE SWAP4 SWAP3 POP POP POP JUMP JUMPDEST PUSH1 0x1 DUP2 DUP2 SHR SWAP1 DUP3 AND DUP1 PUSH2 0x9F4 JUMPI PUSH1 0x7F DUP3 AND SWAP2 POP JUMPDEST PUSH1 0x20 DUP3 LT DUP2 SUB PUSH2 0xA12 JUMPI PUSH4 0x4E487B71 PUSH1 0xE0 SHL PUSH0 MSTORE PUSH1 0x22 PUSH1 0x4 MSTORE PUSH1 0x24 PUSH0 REVERT JUMPDEST POP SWAP2 SWAP1 POP JUMP JUMPDEST PUSH0 PUSH1 0x1 DUP3 ADD PUSH2 0xA35 JUMPI PUSH4 0x4E487B71 PUSH1 0xE0 SHL PUSH0 MSTORE PUSH1 0x11 PUSH1 0x4 MSTORE PUSH1 0x24 PUSH0 REVERT JUMPDEST POP PUSH1 0x1 ADD SWAP1 JUMP JUMPDEST PUSH1 0x1F DUP3 GT ISZERO PUSH2 0xA83 JUMPI DUP1 PUSH0 MSTORE PUSH1 0x20 PUSH0 KECCAK256 PUSH1 0x1F DUP5 ADD PUSH1 0x5 SHR DUP2 ADD PUSH1 0x20 DUP6 LT ISZERO PUSH2 0xA61 JUMPI POP DUP1 JUMPDEST PUSH1 0x1F DUP5 ADD PUSH1 0x5 SHR DUP3 ADD SWAP2 POP JUMPDEST DUP2 DUP2 LT ISZERO PUSH2 0xA80 JUMPI PUSH0 DUP2 SSTORE PUSH1 0x1 ADD PUSH2 0xA6D JUMP JUMPDEST POP POP JUMPDEST POP POP POP JUMP JUMPDEST DUP2 MLOAD PUSH8 0xFFFFFFFFFFFFFFFF DUP2 GT ISZERO PUSH2 0xAA2 JUMPI PUSH2 0xAA2 PUSH2 0x84A JUMP JUMPDEST PUSH2 0xAB6 DUP2 PUSH2 0xAB0 DUP5 SLOAD PUSH2 0x9E0 JUMP JUMPDEST DUP5 PUSH2 0xA3C JUMP JUMPDEST PUSH1 0x20 PUSH1 0x1F DUP3 GT PUSH1 0x1 DUP2 EQ PUSH2 0xAE8 JUMPI PUSH0 DUP4 ISZERO PUSH2 0xAD1 JUMPI POP DUP5 DUP3 ADD MLOAD JUMPDEST PUSH0 NOT PUSH1 0x3 DUP6 SWAP1 SHL SHR NOT AND PUSH1 0x1 DUP5 SWAP1 SHL OR DUP5 SSTORE PUSH2 0xA80 JUMP JUMPDEST PUSH0 DUP5 DUP2 MSTORE PUSH1 0x20 DUP2 KECCAK256 PUSH1 0x1F NOT DUP6 AND SWAP2 JUMPDEST DUP3 DUP2 LT ISZERO PUSH2 0xB17 JUMPI DUP8 DUP6 ADD MLOAD DUP3 SSTORE PUSH1 0x20 SWAP5 DUP6 ADD SWAP5 PUSH1 0x1 SWAP1 SWAP3 ADD SWAP2 ADD PUSH2 0xAF7 JUMP JUMPDEST POP DUP5 DUP3 LT ISZERO PUSH2 0xB34 JUMPI DUP7 DUP5 ADD MLOAD PUSH0 NOT PUSH1 0x3 DUP8 SWAP1 SHL PUSH1 0xF8 AND SHR NOT AND DUP2 SSTORE JUMPDEST POP POP POP POP PUSH1 0x1 SWAP1 DUP2 SHL ADD SWAP1 SSTORE POP JUMP JUMPDEST PUSH1 0x60 DUP2 MSTORE PUSH0 PUSH2 0xB55 PUSH1 0x60 DUP4 ADD DUP7 PUSH2 0x784 JUMP JUMPDEST PUSH1 0x1 PUSH1 0x1 PUSH1 0xA0 SHL SUB SWAP5 SWAP1 SWAP5 AND PUSH1 0x20 DUP4 ADD MSTORE POP PUSH1 0x40 ADD MSTORE SWAP2 SWAP1 POP JUMP JUMPDEST PUSH1 0x20 DUP1 DUP3 MSTORE PUSH1 0x16 SWAP1 DUP3 ADD MSTORE PUSH22 0x141C9BD91D58DD08191BD95CC81B9BDD08195E1A5CDD PUSH1 0x52 SHL PUSH1 0x40 DUP3 ADD MSTORE PUSH1 0x60 ADD SWAP1 JUMP JUMPDEST PUSH1 0x40 DUP2 ADD PUSH2 0xBAE DUP3 DUP6 PUSH2 0x7C6 JUMP JUMPDEST DUP3 PUSH1 0x20 DUP4 ADD MSTORE SWAP4 SWAP3 POP POP POP JUMP INVALID LOG2 PUSH5 0x6970667358 0x22 SLT KECCAK256 MSIZE PUSH4 0xB86030E7 DUP3 0x2C SLOAD 0xB9 0xC6 ISZERO NUMBER PUSH21 0x3C51E8F865B5930B535B8B5166AFFEB98C8164736F PUSH13 0x634300081D0033000000000000 "
    },
    "gasEstimates": {
      "creation": {
        "codeDepositCost": "611400",
        "executionCost": "643",
        "totalCost": "612043"
      },
      "external": {
        "createProduct(string,string)": "infinite",
        "deleteProduct(uint256)": "28922",
        "getProduct(uint256)": "infinite",
        "productCount()": "2360",
        "products(uint256)": "infinite",
        "updateProductStatus(uint256,uint8)": "53002"
      }
    },
    "methodIdentifiers": {
      "createProduct(string,string)": "87592bce",
      "deleteProduct(uint256)": "ed90c7b7",
      "getProduct(uint256)": "b9db15b4",
      "productCount()": "e0f6ef87",
      "products(uint256)": "7acc0b20",
      "updateProductStatus(uint256,uint8)": "920e2621"
    }
  },
  "storageLayout": {
    "storage": [
      {
        "astId": 26,
        "contract": "SupplyChain.sol:SupplyChain",
        "label": "products",
        "offset": 0,
        "slot": "0",
        "type": "t_mapping(t_uint256,t_struct(Product)21_storage)"
      },
      {
        "astId": 28,
        "contract": "SupplyChain.sol:SupplyChain",
        "label": "productCount",
        "offset": 0,
        "slot": "1",
        "type": "t_uint256"
      }
    ],
    "types": {
      "t_address": {
        "encoding": "inplace",
        "label": "address",
        "numberOfBytes": "20"
      },
      "t_bool": {
        "encoding": "inplace",
        "label": "bool",
        "numberOfBytes": "1"
      },
      "t_enum(Status)5": {
        "encoding": "inplace",
        "label": "enum SupplyChain.Status",
        "numberOfBytes": "1"
      },
      "t_mapping(t_uint256,t_struct(Product)21_storage)": {
        "encoding": "mapping",
        "key": "t_uint256",
        "label": "mapping(uint256 => struct SupplyChain.Product)",
        "numberOfBytes": "32",
        "value": "t_struct(Product)21_storage"
      },
      "t_string_storage": {
        "encoding": "bytes",
        "label": "string",
        "numberOfBytes": "32"
      },
      "t_struct(Product)21_storage": {
        "encoding": "inplace",
        "label": "struct SupplyChain.Product",
        "members": [
          {
            "astId": 7,
            "contract": "SupplyChain.sol:SupplyChain",
            "label": "id",
            "offset": 0,
            "slot": "0",
            "type": "t_uint256"
          },
          {
            "astId": 9,
            "contract": "SupplyChain.sol:SupplyChain",
            "label": "name",
            "offset": 0,
            "slot": "1",
            "type": "t_string_storage"
          },
          {
            "astId": 11,
            "contract": "SupplyChain.sol:SupplyChain",
            "label": "description",
            "offset": 0,
            "slot": "2",
            "type": "t_string_storage"
          },
          {
            "astId": 13,
            "contract": "SupplyChain.sol:SupplyChain",
            "label": "manufacturer",
            "offset": 0,
            "slot": "3",
            "type": "t_address"
          },
          {
            "astId": 16,
            "contract": "SupplyChain.sol:SupplyChain",
            "label": "status",
            "offset": 20,
            "slot": "3",
            "type": "t_enum(Status)5"
          },
          {
            "astId": 18,
            "contract": "SupplyChain.sol:SupplyChain",
            "label": "timestamp",
            "offset": 0,
            "slot": "4",
            "type": "t_uint256"
          },
          {
            "astId": 20,
            "contract": "SupplyChain.sol:SupplyChain",
            "label": "exists",
            "offset": 0,
            "slot": "5",
            "type": "t_bool"
          }
        ],
        "numberOfBytes": "192"
      },
      "t_uint256": {
        "encoding": "inplace",
        "label": "uint256",
        "numberOfBytes": "32"
      }
    }
  },
  "transientStorageLayout": {
    "storage": [],
    "types": null
  },
  "userdoc": {
    "kind": "user",
    "methods": {},
    "version": 1
  }
}