{
  "abi": [
    {
      "anonymous": false,
      "inputs": [
        {
          "indexed": false,
          "internalType": "string",
          "name": "productId",
          "type": "string"
        },
        {
          "indexed": false,
          "internalType": "uint256",
          "name": "timestamp",
          "type": "uint256"
        }
      ],
      "name": "ProductCreated",
      "type": "event"
    },
    {
      "anonymous": false,
      "inputs": [
        {
          "indexed": false,
          "internalType": "string",
          "name": "productId",
          "type": "string"
        },
        {
          "indexed": false,
          "internalType": "uint256",
          "name": "timestamp",
          "type": "uint256"
        }
      ],
      "name": "ProductDeleted",
      "type": "event"
    },
    {
      "anonymous": false,
      "inputs": [
        {
          "indexed": false,
          "internalType": "string",
          "name": "productId",
          "type": "string"
        },
        {
          "indexed": false,
          "internalType": "enum SupplyChain.Status",
          "name": "status",
          "type": "uint8"
        },
        {
          "indexed": false,
          "internalType": "uint256",
          "name": "timestamp",
          "type": "uint256"
        }
      ],
      "name": "StatusUpdated",
      "type": "event"
    },
    {
      "inputs": [
        {
          "internalType": "string",
          "name": "productId",
          "type": "string"
        }
      ],
      "name": "createProduct",
      "outputs": [],
      "stateMutability": "nonpayable",
      "type": "function"
    },
    {
      "inputs": [
        {
          "internalType": "string",
          "name": "productId",
          "type": "string"
        }
      ],
      "name": "deleteProduct",
      "outputs": [],
      "stateMutability": "nonpayable",
      "type": "function"
    },
    {
      "inputs": [
        {
          "internalType": "string",
          "name": "productId",
          "type": "string"
        }
      ],
      "name": "getProduct",
      "outputs": [
        {
          "internalType": "enum SupplyChain.Status",
          "name": "status",
          "type": "uint8"
        },
        {
          "internalType": "uint256",
          "name": "timestamp",
          "type": "uint256"
        },
        {
          "internalType": "bool",
          "name": "exists",
          "type": "bool"
        }
      ],
      "stateMutability": "view",
      "type": "function"
    },
    {
      "inputs": [
        {
          "internalType": "string",
          "name": "",
          "type": "string"
        }
      ],
      "name": "products",
      "outputs": [
        {
          "internalType": "string",
          "name": "productId",
          "type": "string"
        },
        {
          "internalType": "enum SupplyChain.Status",
          "name": "status",
          "type": "uint8"
        },
        {
          "internalType": "uint256",
          "name": "timestamp",
          "type": "uint256"
        },
        {
          "internalType": "bool",
          "name": "exists",
          "type": "bool"
        }
      ],
      "stateMutability": "view",
      "type": "function"
    },
    {
      "inputs": [
        {
          "internalType": "string",
          "name": "productId",
          "type": "string"
        },
        {
          "internalType": "enum SupplyChain.Status",
          "name": "newStatus",
          "type": "uint8"
        }
      ],
      "name": "updateProductStatus",
      "outputs": [],
      "stateMutability": "nonpayable",
      "type": "function"
    }
  ],
  "devdoc": {
    "kind": "dev",
    "methods": {},
    "version": 1
  },
  "evm": {
    "assembly": "    /* \"SupplyChain.sol\":60:2195  contract SupplyChain {... */\n  mstore(0x40, 0x80)\n  callvalue\n  dup1\n  iszero\n  tag_1\n  jumpi\n  revert(0x00, 0x00)\ntag_1:\n  pop\n  dataSize(sub_0)\n  dup1\n  dataOffset(sub_0)\n  0x00\n  codecopy\n  0x00\n  return\nstop\n\nsub_0: assembly {\n        /* \"SupplyChain.sol\":60:2195  contract SupplyChain {... */\n      mstore(0x40, 0x80)\n      callvalue\n      dup1\n      iszero\n      tag_1\n      jumpi\n      revert(0x00, 0x00)\n    tag_1:\n      pop\n      jumpi(tag_2, lt(calldatasize, 0x04))\n      shr(0xe0, calldataload(0x00))\n      dup1\n      0x0186a423\n      eq\n      tag_3\n      jumpi\n      dup1\n      0x02ec06be\n      eq\n      tag_4\n      jumpi\n      dup1\n      0x68111cce\n      eq\n      tag_5\n      jumpi\n      dup1\n      0x72139d9a\n      eq\n      tag_6\n      jumpi\n      dup1\n      0xadbe15bc\n      eq\n      tag_7\n      jumpi\n    tag_2:\n      revert(0x00, 0x00)\n        /* \"SupplyChain.sol\":407:449  mapping(string => Product) public products */\n    tag_3:\n      tag_8\n      tag_9\n      calldatasize\n      0x04\n      tag_10\n      jump\t// in\n    tag_9:\n      tag_11\n      jump\t// in\n    tag_8:\n      mload(0x40)\n      tag_12\n      swap5\n      swap4\n      swap3\n      swap2\n      swap1\n      tag_13\n      jump\t// in\n    tag_12:\n      mload(0x40)\n      dup1\n      swap2\n      sub\n      swap1\n      return\n        /* \"SupplyChain.sol\":718:1125  function createProduct(string memory productId) public {... */\n    tag_4:\n      tag_14\n      tag_15\n      calldatasize\n      0x04\n      tag_10\n      jump\t// in\n    tag_15:\n      tag_16\n      jump\t// in\n    tag_14:\n      stop\n        /* \"SupplyChain.sol\":1947:2192  function getProduct(string memory productId) public view returns (Status status, uint256 timestamp, bool exists) {... */\n    tag_5:\n      tag_17\n      tag_18\n      calldatasize\n      0x04\n      tag_10\n      jump\t// in\n    tag_18:\n      tag_19\n      jump\t// in\n    tag_17:\n      mload(0x40)\n      tag_12\n      swap4\n      swap3\n      swap2\n      swap1\n      tag_21\n      jump\t// in\n        /* \"SupplyChain.sol\":1657:1907  function deleteProduct(string memory productId) public {... */\n    tag_6:\n      tag_14\n      tag_23\n      calldatasize\n      0x04\n      tag_10\n      jump\t// in\n    tag_23:\n      tag_24\n      jump\t// in\n        /* \"SupplyChain.sol\":1167:1620  function updateProductStatus(string memory productId, Status newStatus) public {... */\n    tag_7:\n      tag_14\n      tag_26\n      calldatasize\n      0x04\n      tag_27\n      jump\t// in\n    tag_26:\n      tag_28\n      jump\t// in\n        /* \"SupplyChain.sol\":407:449  mapping(string => Product) public products */\n    tag_11:\n      dup1\n      mload\n      0x20\n      dup2\n      dup4\n      add\n      dup2\n      add\n      dup1\n      mload\n      0x00\n      dup3\n      mstore\n      swap3\n      dup3\n      add\n      swap2\n      swap1\n      swap4\n      add\n      keccak256\n      swap2\n      mstore\n      dup1\n      sload\n      dup2\n      swap1\n      tag_29\n      swap1\n      tag_30\n      jump\t// in\n    tag_29:\n      dup1\n      0x1f\n      add\n      0x20\n      dup1\n      swap2\n      div\n      mul\n      0x20\n      add\n      mload(0x40)\n      swap1\n      dup2\n      add\n      0x40\n      mstore\n      dup1\n      swap3\n      swap2\n      swap1\n      dup2\n      dup2\n      mstore\n      0x20\n      add\n      dup3\n      dup1\n      sload\n      tag_31\n      swap1\n      tag_30\n      jump\t// in\n    tag_31:\n      dup1\n      iszero\n      tag_32\n      jumpi\n      dup1\n      0x1f\n      lt\n      tag_33\n      jumpi\n      0x0100\n      dup1\n      dup4\n      sload\n      div\n      mul\n      dup4\n      mstore\n      swap2\n      0x20\n      add\n      swap2\n      jump(tag_32)\n    tag_33:\n      dup3\n      add\n      swap2\n      swap1\n      0x00\n      mstore\n      keccak256(0x00, 0x20)\n      swap1\n    tag_34:\n      dup2\n      sload\n      dup2\n      mstore\n      swap1\n      0x01\n      add\n      swap1\n      0x20\n      add\n      dup1\n      dup4\n      gt\n      tag_34\n      jumpi\n      dup3\n      swap1\n      sub\n      0x1f\n      and\n      dup3\n      add\n      swap2\n    tag_32:\n      pop\n      pop\n      pop\n      pop\n      0x01\n      dup4\n      add\n      sload\n      0x02\n      dup5\n      add\n      sload\n      0x03\n      swap1\n      swap5\n      add\n      sload\n      swap3\n      swap4\n      0xff\n      swap2\n      dup3\n      and\n      swap4\n      swap1\n      swap3\n      pop\n      and\n      dup5\n      jump\t// out\n        /* \"SupplyChain.sol\":718:1125  function createProduct(string memory productId) public {... */\n    tag_16:\n        /* \"SupplyChain.sol\":793:801  products */\n      0x00\n        /* \"SupplyChain.sol\":802:811  productId */\n      dup2\n        /* \"SupplyChain.sol\":793:812  products[productId] */\n      mload(0x40)\n      tag_36\n      swap2\n      swap1\n      tag_37\n      jump\t// in\n    tag_36:\n      swap1\n      dup2\n      mstore\n      mload(0x40)\n      swap1\n      dup2\n      swap1\n      sub\n      0x20\n      add\n      swap1\n      keccak256\n        /* \"SupplyChain.sol\":793:819  products[productId].exists */\n      0x03\n      add\n      sload\n      0xff\n      and\n        /* \"SupplyChain.sol\":792:819  !products[productId].exists */\n      iszero\n        /* \"SupplyChain.sol\":784:846  require(!products[productId].exists, \"Product already exists\") */\n      tag_38\n      jumpi\n      mload(0x40)\n      shl(0xe5, 0x461bcd)\n      dup2\n      mstore\n        /* \"#utility.yul\":4071:4073   */\n      0x20\n        /* \"SupplyChain.sol\":784:846  require(!products[productId].exists, \"Product already exists\") */\n      0x04\n      dup3\n      add\n        /* \"#utility.yul\":4053:4074   */\n      mstore\n        /* \"#utility.yul\":4110:4112   */\n      0x16\n        /* \"#utility.yul\":4090:4108   */\n      0x24\n      dup3\n      add\n        /* \"#utility.yul\":4083:4113   */\n      mstore\n      shl(0x50, 0x50726f6475637420616c726561647920657869737473)\n        /* \"#utility.yul\":4129:4147   */\n      0x44\n      dup3\n      add\n        /* \"#utility.yul\":4122:4174   */\n      mstore\n        /* \"#utility.yul\":4191:4209   */\n      0x64\n      add\n        /* \"SupplyChain.sol\":784:846  require(!products[productId].exists, \"Product already exists\") */\n    tag_39:\n      mload(0x40)\n      dup1\n      swap2\n      sub\n      swap1\n      revert\n    tag_38:\n        /* \"SupplyChain.sol\":889:1049  Product({... */\n      0x40\n      dup1\n      mload\n      0x80\n      dup2\n      add\n      swap1\n      swap2\n      mstore\n      dup2\n      dup2\n      mstore\n      0x20\n      dup2\n      add\n      0x00\n      dup2\n      mstore\n        /* \"SupplyChain.sol\":995:1010  block.timestamp */\n      timestamp\n        /* \"SupplyChain.sol\":889:1049  Product({... */\n      0x20\n      dup3\n      add\n      mstore\n        /* \"SupplyChain.sol\":1033:1037  true */\n      0x01\n        /* \"SupplyChain.sol\":889:1049  Product({... */\n      0x40\n      swap2\n      dup3\n      add\n      mstore\n        /* \"SupplyChain.sol\":867:886  products[productId] */\n      mload\n      0x00\n      swap1\n      tag_44\n      swap1\n        /* \"SupplyChain.sol\":876:885  productId */\n      dup5\n      swap1\n        /* \"SupplyChain.sol\":867:886  products[productId] */\n      tag_37\n      jump\t// in\n    tag_44:\n      swap1\n      dup2\n      mstore\n      mload(0x40)\n      swap1\n      dup2\n      swap1\n      sub\n      0x20\n      add\n      swap1\n      keccak256\n        /* \"SupplyChain.sol\":867:1049  products[productId] = Product({... */\n      dup2\n      mload\n        /* \"SupplyChain.sol\":867:886  products[productId] */\n      dup2\n      swap1\n        /* \"SupplyChain.sol\":867:1049  products[productId] = Product({... */\n      tag_45\n      swap1\n        /* \"SupplyChain.sol\":867:886  products[productId] */\n      dup3\n        /* \"SupplyChain.sol\":867:1049  products[productId] = Product({... */\n      tag_46\n      jump\t// in\n    tag_45:\n      pop\n      0x20\n      dup3\n      add\n      mload\n      0x01\n      dup1\n      dup4\n      add\n      dup1\n      sload\n      swap1\n      swap2\n      not(0xff)\n      swap1\n      swap2\n      and\n      swap1\n      dup4\n      0x02\n      dup2\n      gt\n      iszero\n      tag_48\n      jumpi\n      tag_48\n      tag_43\n      jump\t// in\n    tag_48:\n      mul\n      or\n      swap1\n      sstore\n      pop\n      0x40\n      dup3\n      dup2\n      add\n      mload\n      0x02\n      dup4\n      add\n      sstore\n      0x60\n      swap1\n      swap3\n      add\n      mload\n      0x03\n      swap1\n      swap2\n      add\n      dup1\n      sload\n      not(0xff)\n      and\n      swap2\n      iszero\n      iszero\n      swap2\n      swap1\n      swap2\n      or\n      swap1\n      sstore\n        /* \"SupplyChain.sol\":1075:1117  ProductCreated(productId, block.timestamp) */\n      mload\n      0xb040efd5b9ac3e016c34e7ba218414cec2f62f7405435784f124cf44a21dc137\n      swap1\n      tag_49\n      swap1\n        /* \"SupplyChain.sol\":1090:1099  productId */\n      dup4\n      swap1\n        /* \"SupplyChain.sol\":1101:1116  block.timestamp */\n      timestamp\n      swap1\n        /* \"SupplyChain.sol\":1075:1117  ProductCreated(productId, block.timestamp) */\n      tag_50\n      jump\t// in\n    tag_49:\n      mload(0x40)\n      dup1\n      swap2\n      sub\n      swap1\n      log1\n        /* \"SupplyChain.sol\":718:1125  function createProduct(string memory productId) public {... */\n      pop\n      jump\t// out\n        /* \"SupplyChain.sol\":1947:2192  function getProduct(string memory productId) public view returns (Status status, uint256 timestamp, bool exists) {... */\n    tag_19:\n        /* \"SupplyChain.sol\":2013:2026  Status status */\n      0x00\n        /* \"SupplyChain.sol\":2028:2045  uint256 timestamp */\n      0x00\n        /* \"SupplyChain.sol\":2047:2058  bool exists */\n      0x00\n        /* \"SupplyChain.sol\":2071:2093  Product memory product */\n      0x00\n        /* \"SupplyChain.sol\":2096:2104  products */\n      0x00\n        /* \"SupplyChain.sol\":2105:2114  productId */\n      dup6\n        /* \"SupplyChain.sol\":2096:2115  products[productId] */\n      mload(0x40)\n      tag_52\n      swap2\n      swap1\n      tag_37\n      jump\t// in\n    tag_52:\n      swap1\n      dup2\n      mstore\n      0x20\n      add\n      mload(0x40)\n      dup1\n      swap2\n      sub\n      swap1\n      keccak256\n        /* \"SupplyChain.sol\":2071:2115  Product memory product = products[productId] */\n      mload(0x40)\n      dup1\n      0x80\n      add\n      0x40\n      mstore\n      swap1\n      dup2\n      0x00\n      dup3\n      add\n      dup1\n      sload\n      tag_53\n      swap1\n      tag_30\n      jump\t// in\n    tag_53:\n      dup1\n      0x1f\n      add\n      0x20\n      dup1\n      swap2\n      div\n      mul\n      0x20\n      add\n      mload(0x40)\n      swap1\n      dup2\n      add\n      0x40\n      mstore\n      dup1\n      swap3\n      swap2\n      swap1\n      dup2\n      dup2\n      mstore\n      0x20\n      add\n      dup3\n      dup1\n      sload\n      tag_54\n      swap1\n      tag_30\n      jump\t// in\n    tag_54:\n      dup1\n      iszero\n      tag_55\n      jumpi\n      dup1\n      0x1f\n      lt\n      tag_56\n      jumpi\n      0x0100\n      dup1\n      dup4\n      sload\n      div\n      mul\n      dup4\n      mstore\n      swap2\n      0x20\n      add\n      swap2\n      jump(tag_55)\n    tag_56:\n      dup3\n      add\n      swap2\n      swap1\n      0x00\n      mstore\n      keccak256(0x00, 0x20)\n      swap1\n    tag_57:\n      dup2\n      sload\n      dup2\n      mstore\n      swap1\n      0x01\n      add\n      swap1\n      0x20\n      add\n      dup1\n      dup4\n      gt\n      tag_57\n      jumpi\n      dup3\n      swap1\n      sub\n      0x1f\n      and\n      dup3\n      add\n      swap2\n    tag_55:\n      pop\n      pop\n      pop\n      swap2\n      dup4\n      mstore\n      pop\n      pop\n      0x01\n      dup3\n      add\n      sload\n      0x20\n      swap1\n      swap2\n      add\n      swap1\n      0xff\n      and\n      0x02\n      dup2\n      gt\n      iszero\n      tag_59\n      jumpi\n      tag_59\n      tag_43\n      jump\t// in\n    tag_59:\n      0x02\n      dup2\n      gt\n      iszero\n      tag_61\n      jumpi\n      tag_61\n      tag_43\n      jump\t// in\n    tag_61:\n      dup2\n      mstore\n      0x02\n      dup3\n      add\n      sload\n      0x20\n      dup1\n      dup4\n      add\n      swap2\n      swap1\n      swap2\n      mstore\n      0x03\n      swap1\n      swap3\n      add\n      sload\n      0xff\n      and\n      iszero\n      iszero\n      0x40\n      swap2\n      dup3\n      add\n      mstore\n        /* \"SupplyChain.sol\":2134:2148  product.status */\n      swap1\n      dup3\n      add\n      mload\n        /* \"SupplyChain.sol\":2150:2167  product.timestamp */\n      swap1\n      dup3\n      add\n      mload\n        /* \"SupplyChain.sol\":2169:2183  product.exists */\n      0x60\n      swap1\n      swap3\n      add\n      mload\n        /* \"SupplyChain.sol\":2134:2148  product.status */\n      swap1\n      swap8\n        /* \"SupplyChain.sol\":2150:2167  product.timestamp */\n      swap2\n      swap7\n      pop\n        /* \"SupplyChain.sol\":2169:2183  product.exists */\n      swap5\n      pop\n        /* \"SupplyChain.sol\":1947:2192  function getProduct(string memory productId) public view returns (Status status, uint256 timestamp, bool exists) {... */\n      swap3\n      pop\n      pop\n      pop\n      jump\t// out\n        /* \"SupplyChain.sol\":1657:1907  function deleteProduct(string memory productId) public {... */\n    tag_24:\n        /* \"SupplyChain.sol\":1731:1739  products */\n      0x00\n        /* \"SupplyChain.sol\":1740:1749  productId */\n      dup2\n        /* \"SupplyChain.sol\":1731:1750  products[productId] */\n      mload(0x40)\n      tag_63\n      swap2\n      swap1\n      tag_37\n      jump\t// in\n    tag_63:\n      swap1\n      dup2\n      mstore\n      mload(0x40)\n      swap1\n      dup2\n      swap1\n      sub\n      0x20\n      add\n      swap1\n      keccak256\n        /* \"SupplyChain.sol\":1731:1757  products[productId].exists */\n      0x03\n      add\n      sload\n      0xff\n      and\n        /* \"SupplyChain.sol\":1723:1784  require(products[productId].exists, \"Product does not exist\") */\n      tag_64\n      jumpi\n      mload(0x40)\n      shl(0xe5, 0x461bcd)\n      dup2\n      mstore\n        /* \"#utility.yul\":6842:6844   */\n      0x20\n        /* \"SupplyChain.sol\":1723:1784  require(products[productId].exists, \"Product does not exist\") */\n      0x04\n      dup3\n      add\n        /* \"#utility.yul\":6824:6845   */\n      mstore\n        /* \"#utility.yul\":6881:6883   */\n      0x16\n        /* \"#utility.yul\":6861:6879   */\n      0x24\n      dup3\n      add\n        /* \"#utility.yul\":6854:6884   */\n      mstore\n      shl(0x52, 0x141c9bd91d58dd08191bd95cc81b9bdd08195e1a5cdd)\n        /* \"#utility.yul\":6900:6918   */\n      0x44\n      dup3\n      add\n        /* \"#utility.yul\":6893:6945   */\n      mstore\n        /* \"#utility.yul\":6962:6980   */\n      0x64\n      add\n        /* \"SupplyChain.sol\":1723:1784  require(products[productId].exists, \"Product does not exist\") */\n      tag_39\n        /* \"#utility.yul\":6640:6986   */\n      jump\n        /* \"SupplyChain.sol\":1723:1784  require(products[productId].exists, \"Product does not exist\") */\n    tag_64:\n        /* \"SupplyChain.sol\":1812:1820  products */\n      0x00\n        /* \"SupplyChain.sol\":1821:1830  productId */\n      dup2\n        /* \"SupplyChain.sol\":1812:1831  products[productId] */\n      mload(0x40)\n      tag_67\n      swap2\n      swap1\n      tag_37\n      jump\t// in\n    tag_67:\n      swap1\n      dup2\n      mstore\n      mload(0x40)\n      swap1\n      dup2\n      swap1\n      sub\n      0x20\n      add\n      swap1\n      keccak256\n      0x00\n        /* \"SupplyChain.sol\":1805:1831  delete products[productId] */\n      tag_68\n        /* \"SupplyChain.sol\":1812:1831  products[productId] */\n      dup3\n      dup3\n        /* \"SupplyChain.sol\":1805:1831  delete products[productId] */\n      tag_69\n      jump\t// in\n    tag_68:\n      pop\n      0x01\n      dup2\n      add\n      dup1\n      sload\n      not(0xff)\n      swap1\n      dup2\n      and\n      swap1\n      swap2\n      sstore\n      0x00\n      0x02\n      dup4\n      add\n      sstore\n      0x03\n      swap1\n      swap2\n      add\n      dup1\n      sload\n      swap1\n      swap2\n      and\n      swap1\n      sstore\n        /* \"SupplyChain.sol\":1857:1899  ProductDeleted(productId, block.timestamp) */\n      mload(0x40)\n      0x9134236c155ef1bd925101c26fb5fd28043e2cd3eb96d18bb4d6bf76ff0d753a\n      swap1\n      tag_49\n      swap1\n        /* \"SupplyChain.sol\":1872:1881  productId */\n      dup4\n      swap1\n        /* \"SupplyChain.sol\":1883:1898  block.timestamp */\n      timestamp\n      swap1\n        /* \"SupplyChain.sol\":1857:1899  ProductDeleted(productId, block.timestamp) */\n      tag_50\n      jump\t// in\n        /* \"SupplyChain.sol\":1167:1620  function updateProductStatus(string memory productId, Status newStatus) public {... */\n    tag_28:\n        /* \"SupplyChain.sol\":1265:1273  products */\n      0x00\n        /* \"SupplyChain.sol\":1274:1283  productId */\n      dup3\n        /* \"SupplyChain.sol\":1265:1284  products[productId] */\n      mload(0x40)\n      tag_72\n      swap2\n      swap1\n      tag_37\n      jump\t// in\n    tag_72:\n      swap1\n      dup2\n      mstore\n      mload(0x40)\n      swap1\n      dup2\n      swap1\n      sub\n      0x20\n      add\n      swap1\n      keccak256\n        /* \"SupplyChain.sol\":1265:1291  products[productId].exists */\n      0x03\n      add\n      sload\n      0xff\n      and\n        /* \"SupplyChain.sol\":1257:1318  require(products[productId].exists, \"Product does not exist\") */\n      tag_73\n      jumpi\n      mload(0x40)\n      shl(0xe5, 0x461bcd)\n      dup2\n      mstore\n        /* \"#utility.yul\":6842:6844   */\n      0x20\n        /* \"SupplyChain.sol\":1257:1318  require(products[productId].exists, \"Product does not exist\") */\n      0x04\n      dup3\n      add\n        /* \"#utility.yul\":6824:6845   */\n      mstore\n        /* \"#utility.yul\":6881:6883   */\n      0x16\n        /* \"#utility.yul\":6861:6879   */\n      0x24\n      dup3\n      add\n        /* \"#utility.yul\":6854:6884   */\n      mstore\n      shl(0x52, 0x141c9bd91d58dd08191bd95cc81b9bdd08195e1a5cdd)\n        /* \"#utility.yul\":6900:6918   */\n      0x44\n      dup3\n      add\n        /* \"#utility.yul\":6893:6945   */\n      mstore\n        /* \"#utility.yul\":6962:6980   */\n      0x64\n      add\n        /* \"SupplyChain.sol\":1257:1318  require(products[productId].exists, \"Product does not exist\") */\n      tag_39\n        /* \"#utility.yul\":6640:6986   */\n      jump\n        /* \"SupplyChain.sol\":1257:1318  require(products[productId].exists, \"Product does not exist\") */\n    tag_73:\n        /* \"SupplyChain.sol\":1350:1366  Status.Delivered */\n      0x02\n        /* \"SupplyChain.sol\":1337:1346  newStatus */\n      dup2\n        /* \"SupplyChain.sol\":1337:1366  newStatus <= Status.Delivered */\n      0x02\n      dup2\n      gt\n      iszero\n      tag_78\n      jumpi\n      tag_78\n      tag_43\n      jump\t// in\n    tag_78:\n      gt\n      iszero\n        /* \"SupplyChain.sol\":1329:1391  require(newStatus <= Status.Delivered, \"Invalid status value\") */\n      tag_79\n      jumpi\n      mload(0x40)\n      shl(0xe5, 0x461bcd)\n      dup2\n      mstore\n        /* \"#utility.yul\":7193:7195   */\n      0x20\n        /* \"SupplyChain.sol\":1329:1391  require(newStatus <= Status.Delivered, \"Invalid status value\") */\n      0x04\n      dup3\n      add\n        /* \"#utility.yul\":7175:7196   */\n      mstore\n        /* \"#utility.yul\":7232:7234   */\n      0x14\n        /* \"#utility.yul\":7212:7230   */\n      0x24\n      dup3\n      add\n        /* \"#utility.yul\":7205:7235   */\n      mstore\n      shl(0x60, 0x496e76616c6964207374617475732076616c7565)\n        /* \"#utility.yul\":7251:7269   */\n      0x44\n      dup3\n      add\n        /* \"#utility.yul\":7244:7294   */\n      mstore\n        /* \"#utility.yul\":7311:7329   */\n      0x64\n      add\n        /* \"SupplyChain.sol\":1329:1391  require(newStatus <= Status.Delivered, \"Invalid status value\") */\n      tag_39\n        /* \"#utility.yul\":6991:7335   */\n      jump\n        /* \"SupplyChain.sol\":1329:1391  require(newStatus <= Status.Delivered, \"Invalid status value\") */\n    tag_79:\n        /* \"SupplyChain.sol\":1467:1476  newStatus */\n      dup1\n        /* \"SupplyChain.sol\":1438:1446  products */\n      0x00\n        /* \"SupplyChain.sol\":1447:1456  productId */\n      dup4\n        /* \"SupplyChain.sol\":1438:1457  products[productId] */\n      mload(0x40)\n      tag_82\n      swap2\n      swap1\n      tag_37\n      jump\t// in\n    tag_82:\n      swap1\n      dup2\n      mstore\n      0x20\n      add\n      mload(0x40)\n      dup1\n      swap2\n      sub\n      swap1\n      keccak256\n        /* \"SupplyChain.sol\":1438:1464  products[productId].status */\n      0x01\n      add\n      0x00\n        /* \"SupplyChain.sol\":1438:1476  products[productId].status = newStatus */\n      0x0100\n      exp\n      dup2\n      sload\n      dup2\n      0xff\n      mul\n      not\n      and\n      swap1\n      dup4\n      0x02\n      dup2\n      gt\n      iszero\n      tag_84\n      jumpi\n      tag_84\n      tag_43\n      jump\t// in\n    tag_84:\n      mul\n      or\n      swap1\n      sstore\n      pop\n        /* \"SupplyChain.sol\":1519:1534  block.timestamp */\n      timestamp\n        /* \"SupplyChain.sol\":1487:1495  products */\n      0x00\n        /* \"SupplyChain.sol\":1496:1505  productId */\n      dup4\n        /* \"SupplyChain.sol\":1487:1506  products[productId] */\n      mload(0x40)\n      tag_85\n      swap2\n      swap1\n      tag_37\n      jump\t// in\n    tag_85:\n      swap1\n      dup2\n      mstore\n      0x20\n      add\n      mload(0x40)\n      dup1\n      swap2\n      sub\n      swap1\n      keccak256\n        /* \"SupplyChain.sol\":1487:1516  products[productId].timestamp */\n      0x02\n      add\n        /* \"SupplyChain.sol\":1487:1534  products[productId].timestamp = block.timestamp */\n      dup2\n      swap1\n      sstore\n      pop\n        /* \"SupplyChain.sol\":1560:1612  StatusUpdated(productId, newStatus, block.timestamp) */\n      0xc1c0ab06b259f062bfd174cf912a7c24b40820e430b30e09c9e96e17737bc9d3\n        /* \"SupplyChain.sol\":1574:1583  productId */\n      dup3\n        /* \"SupplyChain.sol\":1585:1594  newStatus */\n      dup3\n        /* \"SupplyChain.sol\":1596:1611  block.timestamp */\n      timestamp\n        /* \"SupplyChain.sol\":1560:1612  StatusUpdated(productId, newStatus, block.timestamp) */\n      mload(0x40)\n      tag_86\n      swap4\n      swap3\n      swap2\n      swap1\n      tag_87\n      jump\t// in\n    tag_86:\n      mload(0x40)\n      dup1\n      swap2\n      sub\n      swap1\n      log1\n        /* \"SupplyChain.sol\":1167:1620  function updateProductStatus(string memory productId, Status newStatus) public {... */\n      pop\n      pop\n      jump\t// out\n    tag_69:\n      pop\n      dup1\n      sload\n      tag_88\n      swap1\n      tag_30\n      jump\t// in\n    tag_88:\n      0x00\n      dup3\n      sstore\n      dup1\n      0x1f\n      lt\n      tag_90\n      jumpi\n      pop\n      pop\n      jump\t// out\n    tag_90:\n      0x1f\n      add\n      0x20\n      swap1\n      div\n      swap1\n      0x00\n      mstore\n      keccak256(0x00, 0x20)\n      swap1\n      dup2\n      add\n      swap1\n      tag_91\n      swap2\n      swap1\n      tag_92\n      jump\t// in\n    tag_91:\n      pop\n      jump\t// out\n    tag_92:\n    tag_93:\n      dup1\n      dup3\n      gt\n      iszero\n      tag_94\n      jumpi\n      0x00\n      dup2\n      sstore\n      0x01\n      add\n      jump(tag_93)\n    tag_94:\n      pop\n      swap1\n      jump\t// out\n        /* \"#utility.yul\":14:141   */\n    tag_95:\n        /* \"#utility.yul\":75:85   */\n      0x4e487b71\n        /* \"#utility.yul\":70:73   */\n      0xe0\n        /* \"#utility.yul\":66:86   */\n      shl\n        /* \"#utility.yul\":63:64   */\n      0x00\n        /* \"#utility.yul\":56:87   */\n      mstore\n        /* \"#utility.yul\":106:110   */\n      0x41\n        /* \"#utility.yul\":103:104   */\n      0x04\n        /* \"#utility.yul\":96:111   */\n      mstore\n        /* \"#utility.yul\":130:134   */\n      0x24\n        /* \"#utility.yul\":127:128   */\n      0x00\n        /* \"#utility.yul\":120:135   */\n      revert\n        /* \"#utility.yul\":146:872   */\n    tag_96:\n        /* \"#utility.yul\":189:194   */\n      0x00\n        /* \"#utility.yul\":242:245   */\n      dup3\n        /* \"#utility.yul\":235:239   */\n      0x1f\n        /* \"#utility.yul\":227:233   */\n      dup4\n        /* \"#utility.yul\":223:240   */\n      add\n        /* \"#utility.yul\":219:246   */\n      slt\n        /* \"#utility.yul\":209:264   */\n      tag_105\n      jumpi\n        /* \"#utility.yul\":260:261   */\n      0x00\n        /* \"#utility.yul\":257:258   */\n      0x00\n        /* \"#utility.yul\":250:262   */\n      revert\n        /* \"#utility.yul\":209:264   */\n    tag_105:\n        /* \"#utility.yul\":300:306   */\n      dup2\n        /* \"#utility.yul\":287:307   */\n      calldataload\n        /* \"#utility.yul\":330:348   */\n      0xffffffffffffffff\n        /* \"#utility.yul\":322:328   */\n      dup2\n        /* \"#utility.yul\":319:349   */\n      gt\n        /* \"#utility.yul\":316:372   */\n      iszero\n      tag_107\n      jumpi\n        /* \"#utility.yul\":352:370   */\n      tag_107\n      tag_95\n      jump\t// in\n    tag_107:\n        /* \"#utility.yul\":401:403   */\n      0x40\n        /* \"#utility.yul\":395:404   */\n      mload\n        /* \"#utility.yul\":493:495   */\n      0x1f\n        /* \"#utility.yul\":455:472   */\n      dup3\n      add\n      not(0x1f)\n        /* \"#utility.yul\":451:482   */\n      swap1\n      dup2\n      and\n        /* \"#utility.yul\":484:486   */\n      0x3f\n        /* \"#utility.yul\":447:487   */\n      add\n        /* \"#utility.yul\":443:497   */\n      and\n        /* \"#utility.yul\":431:498   */\n      dup2\n      add\n        /* \"#utility.yul\":528:546   */\n      0xffffffffffffffff\n        /* \"#utility.yul\":513:547   */\n      dup2\n      gt\n        /* \"#utility.yul\":549:571   */\n      dup3\n      dup3\n      lt\n        /* \"#utility.yul\":510:572   */\n      or\n        /* \"#utility.yul\":507:595   */\n      iszero\n      tag_109\n      jumpi\n        /* \"#utility.yul\":575:593   */\n      tag_109\n      tag_95\n      jump\t// in\n    tag_109:\n        /* \"#utility.yul\":611:613   */\n      0x40\n        /* \"#utility.yul\":604:626   */\n      mstore\n        /* \"#utility.yul\":635:657   */\n      dup2\n      dup2\n      mstore\n        /* \"#utility.yul\":676:695   */\n      dup4\n      dup3\n      add\n        /* \"#utility.yul\":697:701   */\n      0x20\n        /* \"#utility.yul\":672:702   */\n      add\n        /* \"#utility.yul\":669:708   */\n      dup6\n      lt\n        /* \"#utility.yul\":666:725   */\n      iszero\n      tag_110\n      jumpi\n        /* \"#utility.yul\":721:722   */\n      0x00\n        /* \"#utility.yul\":718:719   */\n      0x00\n        /* \"#utility.yul\":711:723   */\n      revert\n        /* \"#utility.yul\":666:725   */\n    tag_110:\n        /* \"#utility.yul\":785:791   */\n      dup2\n        /* \"#utility.yul\":778:782   */\n      0x20\n        /* \"#utility.yul\":770:776   */\n      dup6\n        /* \"#utility.yul\":766:783   */\n      add\n        /* \"#utility.yul\":759:763   */\n      0x20\n        /* \"#utility.yul\":751:757   */\n      dup4\n        /* \"#utility.yul\":747:764   */\n      add\n        /* \"#utility.yul\":734:792   */\n      calldatacopy\n        /* \"#utility.yul\":840:841   */\n      0x00\n        /* \"#utility.yul\":812:831   */\n      swap2\n      dup2\n      add\n        /* \"#utility.yul\":833:837   */\n      0x20\n        /* \"#utility.yul\":808:838   */\n      add\n        /* \"#utility.yul\":801:842   */\n      swap2\n      swap1\n      swap2\n      mstore\n        /* \"#utility.yul\":816:822   */\n      swap4\n        /* \"#utility.yul\":146:872   */\n      swap3\n      pop\n      pop\n      pop\n      jump\t// out\n        /* \"#utility.yul\":877:1199   */\n    tag_10:\n        /* \"#utility.yul\":946:952   */\n      0x00\n        /* \"#utility.yul\":999:1001   */\n      0x20\n        /* \"#utility.yul\":987:996   */\n      dup3\n        /* \"#utility.yul\":978:985   */\n      dup5\n        /* \"#utility.yul\":974:997   */\n      sub\n        /* \"#utility.yul\":970:1002   */\n      slt\n        /* \"#utility.yul\":967:1019   */\n      iszero\n      tag_112\n      jumpi\n        /* \"#utility.yul\":1015:1016   */\n      0x00\n        /* \"#utility.yul\":1012:1013   */\n      0x00\n        /* \"#utility.yul\":1005:1017   */\n      revert\n        /* \"#utility.yul\":967:1019   */\n    tag_112:\n        /* \"#utility.yul\":1055:1064   */\n      dup2\n        /* \"#utility.yul\":1042:1065   */\n      calldataload\n        /* \"#utility.yul\":1088:1106   */\n      0xffffffffffffffff\n        /* \"#utility.yul\":1080:1086   */\n      dup2\n        /* \"#utility.yul\":1077:1107   */\n      gt\n        /* \"#utility.yul\":1074:1124   */\n      iszero\n      tag_113\n      jumpi\n        /* \"#utility.yul\":1120:1121   */\n      0x00\n        /* \"#utility.yul\":1117:1118   */\n      0x00\n        /* \"#utility.yul\":1110:1122   */\n      revert\n        /* \"#utility.yul\":1074:1124   */\n    tag_113:\n        /* \"#utility.yul\":1143:1193   */\n      tag_114\n        /* \"#utility.yul\":1185:1192   */\n      dup5\n        /* \"#utility.yul\":1176:1182   */\n      dup3\n        /* \"#utility.yul\":1165:1174   */\n      dup6\n        /* \"#utility.yul\":1161:1183   */\n      add\n        /* \"#utility.yul\":1143:1193   */\n      tag_96\n      jump\t// in\n    tag_114:\n        /* \"#utility.yul\":1133:1193   */\n      swap5\n        /* \"#utility.yul\":877:1199   */\n      swap4\n      pop\n      pop\n      pop\n      pop\n      jump\t// out\n        /* \"#utility.yul\":1204:1493   */\n    tag_97:\n        /* \"#utility.yul\":1246:1249   */\n      0x00\n        /* \"#utility.yul\":1284:1289   */\n      dup2\n        /* \"#utility.yul\":1278:1290   */\n      mload\n        /* \"#utility.yul\":1311:1317   */\n      dup1\n        /* \"#utility.yul\":1306:1309   */\n      dup5\n        /* \"#utility.yul\":1299:1318   */\n      mstore\n        /* \"#utility.yul\":1367:1373   */\n      dup1\n        /* \"#utility.yul\":1360:1364   */\n      0x20\n        /* \"#utility.yul\":1353:1358   */\n      dup5\n        /* \"#utility.yul\":1349:1365   */\n      add\n        /* \"#utility.yul\":1342:1346   */\n      0x20\n        /* \"#utility.yul\":1337:1340   */\n      dup7\n        /* \"#utility.yul\":1333:1347   */\n      add\n        /* \"#utility.yul\":1327:1374   */\n      mcopy\n        /* \"#utility.yul\":1419:1420   */\n      0x00\n        /* \"#utility.yul\":1412:1416   */\n      0x20\n        /* \"#utility.yul\":1403:1409   */\n      dup3\n        /* \"#utility.yul\":1398:1401   */\n      dup7\n        /* \"#utility.yul\":1394:1410   */\n      add\n        /* \"#utility.yul\":1390:1417   */\n      add\n        /* \"#utility.yul\":1383:1421   */\n      mstore\n        /* \"#utility.yul\":1482:1486   */\n      0x20\n        /* \"#utility.yul\":1475:1477   */\n      0x1f\n        /* \"#utility.yul\":1471:1478   */\n      not\n        /* \"#utility.yul\":1466:1468   */\n      0x1f\n        /* \"#utility.yul\":1458:1464   */\n      dup4\n        /* \"#utility.yul\":1454:1469   */\n      add\n        /* \"#utility.yul\":1450:1479   */\n      and\n        /* \"#utility.yul\":1445:1448   */\n      dup6\n        /* \"#utility.yul\":1441:1480   */\n      add\n        /* \"#utility.yul\":1437:1487   */\n      add\n        /* \"#utility.yul\":1430:1487   */\n      swap2\n      pop\n      pop\n        /* \"#utility.yul\":1204:1493   */\n      swap3\n      swap2\n      pop\n      pop\n      jump\t// out\n        /* \"#utility.yul\":1498:1625   */\n    tag_43:\n        /* \"#utility.yul\":1559:1569   */\n      0x4e487b71\n        /* \"#utility.yul\":1554:1557   */\n      0xe0\n        /* \"#utility.yul\":1550:1570   */\n      shl\n        /* \"#utility.yul\":1547:1548   */\n      0x00\n        /* \"#utility.yul\":1540:1571   */\n      mstore\n        /* \"#utility.yul\":1590:1594   */\n      0x21\n        /* \"#utility.yul\":1587:1588   */\n      0x04\n        /* \"#utility.yul\":1580:1595   */\n      mstore\n        /* \"#utility.yul\":1614:1618   */\n      0x24\n        /* \"#utility.yul\":1611:1612   */\n      0x00\n        /* \"#utility.yul\":1604:1619   */\n      revert\n        /* \"#utility.yul\":1630:1864   */\n    tag_98:\n        /* \"#utility.yul\":1708:1709   */\n      0x03\n        /* \"#utility.yul\":1701:1706   */\n      dup2\n        /* \"#utility.yul\":1698:1710   */\n      lt\n        /* \"#utility.yul\":1688:1831   */\n      tag_118\n      jumpi\n        /* \"#utility.yul\":1753:1763   */\n      0x4e487b71\n        /* \"#utility.yul\":1748:1751   */\n      0xe0\n        /* \"#utility.yul\":1744:1764   */\n      shl\n        /* \"#utility.yul\":1741:1742   */\n      0x00\n        /* \"#utility.yul\":1734:1765   */\n      mstore\n        /* \"#utility.yul\":1788:1792   */\n      0x21\n        /* \"#utility.yul\":1785:1786   */\n      0x04\n        /* \"#utility.yul\":1778:1793   */\n      mstore\n        /* \"#utility.yul\":1816:1820   */\n      0x24\n        /* \"#utility.yul\":1813:1814   */\n      0x00\n        /* \"#utility.yul\":1806:1821   */\n      revert\n        /* \"#utility.yul\":1688:1831   */\n    tag_118:\n        /* \"#utility.yul\":1840:1858   */\n      swap1\n      mstore\n        /* \"#utility.yul\":1630:1864   */\n      jump\t// out\n        /* \"#utility.yul\":1869:2336   */\n    tag_13:\n        /* \"#utility.yul\":2102:2105   */\n      0x80\n        /* \"#utility.yul\":2091:2100   */\n      dup2\n        /* \"#utility.yul\":2084:2106   */\n      mstore\n        /* \"#utility.yul\":2065:2069   */\n      0x00\n        /* \"#utility.yul\":2123:2169   */\n      tag_120\n        /* \"#utility.yul\":2164:2167   */\n      0x80\n        /* \"#utility.yul\":2153:2162   */\n      dup4\n        /* \"#utility.yul\":2149:2168   */\n      add\n        /* \"#utility.yul\":2141:2147   */\n      dup8\n        /* \"#utility.yul\":2123:2169   */\n      tag_97\n      jump\t// in\n    tag_120:\n        /* \"#utility.yul\":2115:2169   */\n      swap1\n      pop\n        /* \"#utility.yul\":2178:2228   */\n      tag_121\n        /* \"#utility.yul\":2224:2226   */\n      0x20\n        /* \"#utility.yul\":2213:2222   */\n      dup4\n        /* \"#utility.yul\":2209:2227   */\n      add\n        /* \"#utility.yul\":2201:2207   */\n      dup7\n        /* \"#utility.yul\":2178:2228   */\n      tag_98\n      jump\t// in\n    tag_121:\n        /* \"#utility.yul\":2264:2270   */\n      dup4\n        /* \"#utility.yul\":2259:2261   */\n      0x40\n        /* \"#utility.yul\":2248:2257   */\n      dup4\n        /* \"#utility.yul\":2244:2262   */\n      add\n        /* \"#utility.yul\":2237:2271   */\n      mstore\n        /* \"#utility.yul\":2321:2327   */\n      dup3\n        /* \"#utility.yul\":2314:2328   */\n      iszero\n        /* \"#utility.yul\":2307:2329   */\n      iszero\n        /* \"#utility.yul\":2302:2304   */\n      0x60\n        /* \"#utility.yul\":2291:2300   */\n      dup4\n        /* \"#utility.yul\":2287:2305   */\n      add\n        /* \"#utility.yul\":2280:2330   */\n      mstore\n        /* \"#utility.yul\":1869:2336   */\n      swap6\n      swap5\n      pop\n      pop\n      pop\n      pop\n      pop\n      jump\t// out\n        /* \"#utility.yul\":2341:2692   */\n    tag_21:\n        /* \"#utility.yul\":2531:2533   */\n      0x60\n        /* \"#utility.yul\":2516:2534   */\n      dup2\n      add\n        /* \"#utility.yul\":2543:2584   */\n      tag_123\n        /* \"#utility.yul\":2520:2529   */\n      dup3\n        /* \"#utility.yul\":2566:2572   */\n      dup7\n        /* \"#utility.yul\":2543:2584   */\n      tag_98\n      jump\t// in\n    tag_123:\n        /* \"#utility.yul\":2620:2626   */\n      dup4\n        /* \"#utility.yul\":2615:2617   */\n      0x20\n        /* \"#utility.yul\":2604:2613   */\n      dup4\n        /* \"#utility.yul\":2600:2618   */\n      add\n        /* \"#utility.yul\":2593:2627   */\n      mstore\n        /* \"#utility.yul\":2677:2683   */\n      dup3\n        /* \"#utility.yul\":2670:2684   */\n      iszero\n        /* \"#utility.yul\":2663:2685   */\n      iszero\n        /* \"#utility.yul\":2658:2660   */\n      0x40\n        /* \"#utility.yul\":2647:2656   */\n      dup4\n        /* \"#utility.yul\":2643:2661   */\n      add\n        /* \"#utility.yul\":2636:2686   */\n      mstore\n        /* \"#utility.yul\":2341:2692   */\n      swap5\n      swap4\n      pop\n      pop\n      pop\n      pop\n      jump\t// out\n        /* \"#utility.yul\":2697:3171   */\n    tag_27:\n        /* \"#utility.yul\":2783:2789   */\n      0x00\n        /* \"#utility.yul\":2791:2797   */\n      0x00\n        /* \"#utility.yul\":2844:2846   */\n      0x40\n        /* \"#utility.yul\":2832:2841   */\n      dup4\n        /* \"#utility.yul\":2823:2830   */\n      dup6\n        /* \"#utility.yul\":2819:2842   */\n      sub\n        /* \"#utility.yul\":2815:2847   */\n      slt\n        /* \"#utility.yul\":2812:2864   */\n      iszero\n      tag_125\n      jumpi\n        /* \"#utility.yul\":2860:2861   */\n      0x00\n        /* \"#utility.yul\":2857:2858   */\n      0x00\n        /* \"#utility.yul\":2850:2862   */\n      revert\n        /* \"#utility.yul\":2812:2864   */\n    tag_125:\n        /* \"#utility.yul\":2900:2909   */\n      dup3\n        /* \"#utility.yul\":2887:2910   */\n      calldataload\n        /* \"#utility.yul\":2933:2951   */\n      0xffffffffffffffff\n        /* \"#utility.yul\":2925:2931   */\n      dup2\n        /* \"#utility.yul\":2922:2952   */\n      gt\n        /* \"#utility.yul\":2919:2969   */\n      iszero\n      tag_126\n      jumpi\n        /* \"#utility.yul\":2965:2966   */\n      0x00\n        /* \"#utility.yul\":2962:2963   */\n      0x00\n        /* \"#utility.yul\":2955:2967   */\n      revert\n        /* \"#utility.yul\":2919:2969   */\n    tag_126:\n        /* \"#utility.yul\":2988:3038   */\n      tag_127\n        /* \"#utility.yul\":3030:3037   */\n      dup6\n        /* \"#utility.yul\":3021:3027   */\n      dup3\n        /* \"#utility.yul\":3010:3019   */\n      dup7\n        /* \"#utility.yul\":3006:3028   */\n      add\n        /* \"#utility.yul\":2988:3038   */\n      tag_96\n      jump\t// in\n    tag_127:\n        /* \"#utility.yul\":2978:3038   */\n      swap3\n      pop\n      pop\n        /* \"#utility.yul\":3088:3090   */\n      0x20\n        /* \"#utility.yul\":3077:3086   */\n      dup4\n        /* \"#utility.yul\":3073:3091   */\n      add\n        /* \"#utility.yul\":3060:3092   */\n      calldataload\n        /* \"#utility.yul\":3121:3122   */\n      0x03\n        /* \"#utility.yul\":3114:3119   */\n      dup2\n        /* \"#utility.yul\":3111:3123   */\n      lt\n        /* \"#utility.yul\":3101:3141   */\n      tag_128\n      jumpi\n        /* \"#utility.yul\":3137:3138   */\n      0x00\n        /* \"#utility.yul\":3134:3135   */\n      0x00\n        /* \"#utility.yul\":3127:3139   */\n      revert\n        /* \"#utility.yul\":3101:3141   */\n    tag_128:\n        /* \"#utility.yul\":3160:3165   */\n      dup1\n        /* \"#utility.yul\":3150:3165   */\n      swap2\n      pop\n      pop\n        /* \"#utility.yul\":2697:3171   */\n      swap3\n      pop\n      swap3\n      swap1\n      pop\n      jump\t// out\n        /* \"#utility.yul\":3176:3556   */\n    tag_30:\n        /* \"#utility.yul\":3255:3256   */\n      0x01\n        /* \"#utility.yul\":3251:3263   */\n      dup2\n      dup2\n      shr\n      swap1\n        /* \"#utility.yul\":3298:3310   */\n      dup3\n      and\n      dup1\n        /* \"#utility.yul\":3319:3380   */\n      tag_130\n      jumpi\n        /* \"#utility.yul\":3373:3377   */\n      0x7f\n        /* \"#utility.yul\":3365:3371   */\n      dup3\n        /* \"#utility.yul\":3361:3378   */\n      and\n        /* \"#utility.yul\":3351:3378   */\n      swap2\n      pop\n        /* \"#utility.yul\":3319:3380   */\n    tag_130:\n        /* \"#utility.yul\":3426:3428   */\n      0x20\n        /* \"#utility.yul\":3418:3424   */\n      dup3\n        /* \"#utility.yul\":3415:3429   */\n      lt\n        /* \"#utility.yul\":3395:3413   */\n      dup2\n        /* \"#utility.yul\":3392:3430   */\n      sub\n        /* \"#utility.yul\":3389:3550   */\n      tag_131\n      jumpi\n        /* \"#utility.yul\":3472:3482   */\n      0x4e487b71\n        /* \"#utility.yul\":3467:3470   */\n      0xe0\n        /* \"#utility.yul\":3463:3483   */\n      shl\n        /* \"#utility.yul\":3460:3461   */\n      0x00\n        /* \"#utility.yul\":3453:3484   */\n      mstore\n        /* \"#utility.yul\":3507:3511   */\n      0x22\n        /* \"#utility.yul\":3504:3505   */\n      0x04\n        /* \"#utility.yul\":3497:3512   */\n      mstore\n        /* \"#utility.yul\":3535:3539   */\n      0x24\n        /* \"#utility.yul\":3532:3533   */\n      0x00\n        /* \"#utility.yul\":3525:3540   */\n      revert\n        /* \"#utility.yul\":3389:3550   */\n    tag_131:\n      pop\n        /* \"#utility.yul\":3176:3556   */\n      swap2\n      swap1\n      pop\n      jump\t// out\n        /* \"#utility.yul\":3561:3864   */\n    tag_37:\n        /* \"#utility.yul\":3692:3695   */\n      0x00\n        /* \"#utility.yul\":3730:3736   */\n      dup3\n        /* \"#utility.yul\":3724:3737   */\n      mload\n        /* \"#utility.yul\":3776:3782   */\n      dup1\n        /* \"#utility.yul\":3769:3773   */\n      0x20\n        /* \"#utility.yul\":3761:3767   */\n      dup6\n        /* \"#utility.yul\":3757:3774   */\n      add\n        /* \"#utility.yul\":3752:3755   */\n      dup5\n        /* \"#utility.yul\":3746:3783   */\n      mcopy\n        /* \"#utility.yul\":3838:3839   */\n      0x00\n        /* \"#utility.yul\":3802:3818   */\n      swap3\n      add\n        /* \"#utility.yul\":3827:3840   */\n      swap2\n      dup3\n      mstore\n      pop\n        /* \"#utility.yul\":3802:3818   */\n      swap2\n        /* \"#utility.yul\":3561:3864   */\n      swap1\n      pop\n      jump\t// out\n        /* \"#utility.yul\":4346:4864   */\n    tag_100:\n        /* \"#utility.yul\":4448:4450   */\n      0x1f\n        /* \"#utility.yul\":4443:4446   */\n      dup3\n        /* \"#utility.yul\":4440:4451   */\n      gt\n        /* \"#utility.yul\":4437:4858   */\n      iszero\n      tag_136\n      jumpi\n        /* \"#utility.yul\":4484:4489   */\n      dup1\n        /* \"#utility.yul\":4481:4482   */\n      0x00\n        /* \"#utility.yul\":4474:4490   */\n      mstore\n        /* \"#utility.yul\":4528:4532   */\n      0x20\n        /* \"#utility.yul\":4525:4526   */\n      0x00\n        /* \"#utility.yul\":4515:4533   */\n      keccak256\n        /* \"#utility.yul\":4598:4600   */\n      0x1f\n        /* \"#utility.yul\":4586:4596   */\n      dup5\n        /* \"#utility.yul\":4582:4601   */\n      add\n        /* \"#utility.yul\":4579:4580   */\n      0x05\n        /* \"#utility.yul\":4575:4602   */\n      shr\n        /* \"#utility.yul\":4569:4573   */\n      dup2\n        /* \"#utility.yul\":4565:4603   */\n      add\n        /* \"#utility.yul\":4634:4638   */\n      0x20\n        /* \"#utility.yul\":4622:4632   */\n      dup6\n        /* \"#utility.yul\":4619:4639   */\n      lt\n        /* \"#utility.yul\":4616:4663   */\n      iszero\n      tag_137\n      jumpi\n      pop\n        /* \"#utility.yul\":4657:4661   */\n      dup1\n        /* \"#utility.yul\":4616:4663   */\n    tag_137:\n        /* \"#utility.yul\":4712:4714   */\n      0x1f\n        /* \"#utility.yul\":4707:4710   */\n      dup5\n        /* \"#utility.yul\":4703:4715   */\n      add\n        /* \"#utility.yul\":4700:4701   */\n      0x05\n        /* \"#utility.yul\":4696:4716   */\n      shr\n        /* \"#utility.yul\":4690:4694   */\n      dup3\n        /* \"#utility.yul\":4686:4717   */\n      add\n        /* \"#utility.yul\":4676:4717   */\n      swap2\n      pop\n        /* \"#utility.yul\":4767:4848   */\n    tag_138:\n        /* \"#utility.yul\":4785:4787   */\n      dup2\n        /* \"#utility.yul\":4778:4783   */\n      dup2\n        /* \"#utility.yul\":4775:4788   */\n      lt\n        /* \"#utility.yul\":4767:4848   */\n      iszero\n      tag_140\n      jumpi\n        /* \"#utility.yul\":4844:4845   */\n      0x00\n        /* \"#utility.yul\":4830:4846   */\n      dup2\n      sstore\n        /* \"#utility.yul\":4811:4812   */\n      0x01\n        /* \"#utility.yul\":4800:4813   */\n      add\n        /* \"#utility.yul\":4767:4848   */\n      jump(tag_138)\n    tag_140:\n        /* \"#utility.yul\":4771:4774   */\n      pop\n      pop\n        /* \"#utility.yul\":4437:4858   */\n    tag_136:\n        /* \"#utility.yul\":4346:4864   */\n      pop\n      pop\n      pop\n      jump\t// out\n        /* \"#utility.yul\":5040:6339   */\n    tag_46:\n        /* \"#utility.yul\":5166:5169   */\n      dup2\n        /* \"#utility.yul\":5160:5170   */\n      mload\n        /* \"#utility.yul\":5193:5211   */\n      0xffffffffffffffff\n        /* \"#utility.yul\":5185:5191   */\n      dup2\n        /* \"#utility.yul\":5182:5212   */\n      gt\n        /* \"#utility.yul\":5179:5235   */\n      iszero\n      tag_144\n      jumpi\n        /* \"#utility.yul\":5215:5233   */\n      tag_144\n      tag_95\n      jump\t// in\n    tag_144:\n        /* \"#utility.yul\":5244:5341   */\n      tag_145\n        /* \"#utility.yul\":5334:5340   */\n      dup2\n        /* \"#utility.yul\":5294:5332   */\n      tag_146\n        /* \"#utility.yul\":5326:5330   */\n      dup5\n        /* \"#utility.yul\":5320:5331   */\n      sload\n        /* \"#utility.yul\":5294:5332   */\n      tag_30\n      jump\t// in\n    tag_146:\n        /* \"#utility.yul\":5288:5292   */\n      dup5\n        /* \"#utility.yul\":5244:5341   */\n      tag_100\n      jump\t// in\n    tag_145:\n        /* \"#utility.yul\":5390:5394   */\n      0x20\n        /* \"#utility.yul\":5421:5423   */\n      0x1f\n        /* \"#utility.yul\":5410:5424   */\n      dup3\n      gt\n        /* \"#utility.yul\":5438:5439   */\n      0x01\n        /* \"#utility.yul\":5433:6082   */\n      dup2\n      eq\n      tag_148\n      jumpi\n        /* \"#utility.yul\":6126:6127   */\n      0x00\n        /* \"#utility.yul\":6143:6149   */\n      dup4\n        /* \"#utility.yul\":6140:6229   */\n      iszero\n      tag_149\n      jumpi\n      pop\n        /* \"#utility.yul\":6195:6214   */\n      dup5\n      dup3\n      add\n        /* \"#utility.yul\":6189:6215   */\n      mload\n        /* \"#utility.yul\":6140:6229   */\n    tag_149:\n      not(0x00)\n        /* \"#utility.yul\":4997:4998   */\n      0x03\n        /* \"#utility.yul\":4993:5004   */\n      dup6\n      swap1\n      shl\n        /* \"#utility.yul\":4989:5013   */\n      shr\n        /* \"#utility.yul\":4985:5014   */\n      not\n        /* \"#utility.yul\":4975:5015   */\n      and\n        /* \"#utility.yul\":5021:5022   */\n      0x01\n        /* \"#utility.yul\":5017:5028   */\n      dup5\n      swap1\n      shl\n        /* \"#utility.yul\":4972:5029   */\n      or\n        /* \"#utility.yul\":6242:6323   */\n      dup5\n      sstore\n        /* \"#utility.yul\":5403:6333   */\n      jump(tag_140)\n        /* \"#utility.yul\":5433:6082   */\n    tag_148:\n        /* \"#utility.yul\":4293:4294   */\n      0x00\n        /* \"#utility.yul\":4286:4300   */\n      dup5\n      dup2\n      mstore\n        /* \"#utility.yul\":4330:4334   */\n      0x20\n        /* \"#utility.yul\":4317:4335   */\n      dup2\n      keccak256\n      not(0x1f)\n        /* \"#utility.yul\":5469:5489   */\n      dup6\n      and\n      swap2\n        /* \"#utility.yul\":5587:5809   */\n    tag_152:\n        /* \"#utility.yul\":5601:5608   */\n      dup3\n        /* \"#utility.yul\":5598:5599   */\n      dup2\n        /* \"#utility.yul\":5595:5609   */\n      lt\n        /* \"#utility.yul\":5587:5809   */\n      iszero\n      tag_154\n      jumpi\n        /* \"#utility.yul\":5683:5702   */\n      dup8\n      dup6\n      add\n        /* \"#utility.yul\":5677:5703   */\n      mload\n        /* \"#utility.yul\":5662:5704   */\n      dup3\n      sstore\n        /* \"#utility.yul\":5790:5794   */\n      0x20\n        /* \"#utility.yul\":5775:5795   */\n      swap5\n      dup6\n      add\n      swap5\n        /* \"#utility.yul\":5743:5744   */\n      0x01\n        /* \"#utility.yul\":5731:5745   */\n      swap1\n      swap3\n      add\n      swap2\n        /* \"#utility.yul\":5617:5629   */\n      add\n        /* \"#utility.yul\":5587:5809   */\n      jump(tag_152)\n    tag_154:\n        /* \"#utility.yul\":5591:5594   */\n      pop\n        /* \"#utility.yul\":5837:5843   */\n      dup5\n        /* \"#utility.yul\":5828:5835   */\n      dup3\n        /* \"#utility.yul\":5825:5844   */\n      lt\n        /* \"#utility.yul\":5822:6023   */\n      iszero\n      tag_155\n      jumpi\n        /* \"#utility.yul\":5898:5917   */\n      dup7\n      dup5\n      add\n        /* \"#utility.yul\":5892:5918   */\n      mload\n      not(0x00)\n        /* \"#utility.yul\":5981:5982   */\n      0x03\n        /* \"#utility.yul\":5977:5991   */\n      dup8\n      swap1\n      shl\n        /* \"#utility.yul\":5993:5996   */\n      0xf8\n        /* \"#utility.yul\":5973:5997   */\n      and\n        /* \"#utility.yul\":5969:6006   */\n      shr\n        /* \"#utility.yul\":5965:6007   */\n      not\n        /* \"#utility.yul\":5950:6008   */\n      and\n        /* \"#utility.yul\":5935:6009   */\n      dup2\n      sstore\n        /* \"#utility.yul\":5822:6023   */\n    tag_155:\n      pop\n      pop\n      pop\n      pop\n        /* \"#utility.yul\":6069:6070   */\n      0x01\n        /* \"#utility.yul\":6053:6067   */\n      swap1\n      dup2\n      shl\n        /* \"#utility.yul\":6049:6071   */\n      add\n        /* \"#utility.yul\":6036:6072   */\n      swap1\n      sstore\n      pop\n        /* \"#utility.yul\":5040:6339   */\n      jump\t// out\n        /* \"#utility.yul\":6344:6635   */\n    tag_50:\n        /* \"#utility.yul\":6521:6523   */\n      0x40\n        /* \"#utility.yul\":6510:6519   */\n      dup2\n        /* \"#utility.yul\":6503:6524   */\n      mstore\n        /* \"#utility.yul\":6484:6488   */\n      0x00\n        /* \"#utility.yul\":6541:6586   */\n      tag_157\n        /* \"#utility.yul\":6582:6584   */\n      0x40\n        /* \"#utility.yul\":6571:6580   */\n      dup4\n        /* \"#utility.yul\":6567:6585   */\n      add\n        /* \"#utility.yul\":6559:6565   */\n      dup6\n        /* \"#utility.yul\":6541:6586   */\n      tag_97\n      jump\t// in\n    tag_157:\n        /* \"#utility.yul\":6533:6586   */\n      swap1\n      pop\n        /* \"#utility.yul\":6622:6628   */\n      dup3\n        /* \"#utility.yul\":6617:6619   */\n      0x20\n        /* \"#utility.yul\":6606:6615   */\n      dup4\n        /* \"#utility.yul\":6602:6620   */\n      add\n        /* \"#utility.yul\":6595:6629   */\n      mstore\n        /* \"#utility.yul\":6344:6635   */\n      swap4\n      swap3\n      pop\n      pop\n      pop\n      jump\t// out\n        /* \"#utility.yul\":7340:7724   */\n    tag_87:\n        /* \"#utility.yul\":7551:7553   */\n      0x60\n        /* \"#utility.yul\":7540:7549   */\n      dup2\n        /* \"#utility.yul\":7533:7554   */\n      mstore\n        /* \"#utility.yul\":7514:7518   */\n      0x00\n        /* \"#utility.yul\":7571:7616   */\n      tag_161\n        /* \"#utility.yul\":7612:7614   */\n      0x60\n        /* \"#utility.yul\":7601:7610   */\n      dup4\n        /* \"#utility.yul\":7597:7615   */\n      add\n        /* \"#utility.yul\":7589:7595   */\n      dup7\n        /* \"#utility.yul\":7571:7616   */\n      tag_97\n      jump\t// in\n    tag_161:\n        /* \"#utility.yul\":7563:7616   */\n      swap1\n      pop\n        /* \"#utility.yul\":7625:7675   */\n      tag_162\n        /* \"#utility.yul\":7671:7673   */\n      0x20\n        /* \"#utility.yul\":7660:7669   */\n      dup4\n        /* \"#utility.yul\":7656:7674   */\n      add\n        /* \"#utility.yul\":7648:7654   */\n      dup6\n        /* \"#utility.yul\":7625:7675   */\n      tag_98\n      jump\t// in\n    tag_162:\n        /* \"#utility.yul\":7711:7717   */\n      dup3\n        /* \"#utility.yul\":7706:7708   */\n      0x40\n        /* \"#utility.yul\":7695:7704   */\n      dup4\n        /* \"#utility.yul\":7691:7709   */\n      add\n        /* \"#utility.yul\":7684:7718   */\n      mstore\n        /* \"#utility.yul\":7340:7724   */\n      swap5\n      swap4\n      pop\n      pop\n      pop\n      pop\n      jump\t// out\n\n    auxdata: 0xa26469706673582212201794bd02399aed4d4d75d699375554414fd36b2ab025b677e0876e21bac44ad664736f6c634300081d0033\n}\n",
    "bytecode": {
      "linkReferences": {},
      "object": "6080604052348015600e575f5ffd5b50610a7c8061001c5f395ff3fe608060405234801561000f575f5ffd5b5060043610610055575f3560e01c80630186a4231461005957806302ec06be1461008557806368111cce1461009a57806372139d9a146100bc578063adbe15bc146100cf575b5f5ffd5b61006c610067366004610757565b6100e2565b60405161007c94939291906107f3565b60405180910390f35b610098610093366004610757565b6101a1565b005b6100ad6100a8366004610757565b6102ec565b60405161007c9392919061082b565b6100986100ca366004610757565b610412565b6100986100dd36600461084f565b6104f9565b80516020818301810180515f82529282019190930120915280548190610107906108a1565b80601f0160208091040260200160405190810160405280929190818152602001828054610133906108a1565b801561017e5780601f106101555761010080835404028352916020019161017e565b820191905f5260205f20905b81548152906001019060200180831161016157829003601f168201915b5050505060018301546002840154600390940154929360ff918216939092501684565b5f816040516101b091906108d9565b9081526040519081900360200190206003015460ff16156102115760405162461bcd60e51b815260206004820152601660248201527550726f6475637420616c72656164792065786973747360501b60448201526064015b60405180910390fd5b6040805160808101909152818152602081015f81524260208201526001604091820152515f906102429084906108d9565b9081526040519081900360200190208151819061025f908261093b565b50602082015160018083018054909160ff1990911690836002811115610287576102876107bf565b021790555060408281015160028301556060909201516003909101805460ff1916911515919091179055517fb040efd5b9ac3e016c34e7ba218414cec2f62f7405435784f124cf44a21dc137906102e190839042906109f6565b60405180910390a150565b5f5f5f5f5f856040516102ff91906108d9565b90815260200160405180910390206040518060800160405290815f82018054610327906108a1565b80601f0160208091040260200160405190810160405280929190818152602001828054610353906108a1565b801561039e5780601f106103755761010080835404028352916020019161039e565b820191905f5260205f20905b81548152906001019060200180831161038157829003601f168201915b5050509183525050600182015460209091019060ff1660028111156103c5576103c56107bf565b60028111156103d6576103d66107bf565b8152600282015460208083019190915260039092015460ff16151560409182015290820151908201516060909201519097919650945092505050565b5f8160405161042191906108d9565b9081526040519081900360200190206003015460ff1661047c5760405162461bcd60e51b8152602060048201526016602482015275141c9bd91d58dd08191bd95cc81b9bdd08195e1a5cdd60521b6044820152606401610208565b5f8160405161048b91906108d9565b9081526040519081900360200190205f6104a58282610666565b5060018101805460ff199081169091555f60028301556003909101805490911690556040517f9134236c155ef1bd925101c26fb5fd28043e2cd3eb96d18bb4d6bf76ff0d753a906102e190839042906109f6565b5f8260405161050891906108d9565b9081526040519081900360200190206003015460ff166105635760405162461bcd60e51b8152602060048201526016602482015275141c9bd91d58dd08191bd95cc81b9bdd08195e1a5cdd60521b6044820152606401610208565b6002816002811115610577576105776107bf565b11156105bc5760405162461bcd60e51b8152602060048201526014602482015273496e76616c6964207374617475732076616c756560601b6044820152606401610208565b805f836040516105cc91906108d9565b90815260200160405180910390206001015f6101000a81548160ff021916908360028111156105fd576105fd6107bf565b0217905550425f8360405161061291906108d9565b9081526020016040518091039020600201819055507fc1c0ab06b259f062bfd174cf912a7c24b40820e430b30e09c9e96e17737bc9d382824260405161065a93929190610a17565b60405180910390a15050565b508054610672906108a1565b5f825580601f10610681575050565b601f0160209004905f5260205f209081019061069d91906106a0565b50565b5b808211156106b4575f81556001016106a1565b5090565b634e487b7160e01b5f52604160045260245ffd5b5f82601f8301126106db575f5ffd5b813567ffffffffffffffff8111156106f5576106f56106b8565b604051601f8201601f19908116603f0116810167ffffffffffffffff81118282101715610724576107246106b8565b60405281815283820160200185101561073b575f5ffd5b816020850160208301375f918101602001919091529392505050565b5f60208284031215610767575f5ffd5b813567ffffffffffffffff81111561077d575f5ffd5b610789848285016106cc565b949350505050565b5f81518084528060208401602086015e5f602082860101526020601f19601f83011685010191505092915050565b634e487b7160e01b5f52602160045260245ffd5b600381106107ef57634e487b7160e01b5f52602160045260245ffd5b9052565b608081525f6108056080830187610791565b905061081460208301866107d3565b836040830152821515606083015295945050505050565b6060810161083982866107d3565b8360208301528215156040830152949350505050565b5f5f60408385031215610860575f5ffd5b823567ffffffffffffffff811115610876575f5ffd5b610882858286016106cc565b925050602083013560038110610896575f5ffd5b809150509250929050565b600181811c908216806108b557607f821691505b6020821081036108d357634e487b7160e01b5f52602260045260245ffd5b50919050565b5f82518060208501845e5f920191825250919050565b601f82111561093657805f5260205f20601f840160051c810160208510156109145750805b601f840160051c820191505b81811015610933575f8155600101610920565b50505b505050565b815167ffffffffffffffff811115610955576109556106b8565b6109698161096384546108a1565b846108ef565b6020601f82116001811461099b575f83156109845750848201515b5f19600385901b1c1916600184901b178455610933565b5f84815260208120601f198516915b828110156109ca57878501518255602094850194600190920191016109aa565b50848210156109e757868401515f19600387901b60f8161c191681555b50505050600190811b01905550565b604081525f610a086040830185610791565b90508260208301529392505050565b606081525f610a296060830186610791565b9050610a3860208301856107d3565b82604083015294935050505056fea26469706673582212201794bd02399aed4d4d75d699375554414fd36b2ab025b677e0876e21bac44ad664736f6c634300081d0033",
      "opcodes": "PUSH1 0x80 PUSH1 0x40 MSTORE CALLVALUE DUP1 ISZERO PUSH1 0xE JUMPI PUSH0 PUSH0 REVERT JUMPDEST POP PUSH2 0xA7C DUP1 PUSH2 0x1C PUSH0 CODECOPY PUSH0 RETURN INVALID PUSH1 0x80 PUSH1 0x40 MSTORE CALLVALUE DUP1 ISZERO PUSH2 0xF JUMPI PUSH0 PUSH0 REVERT JUMPDEST POP PUSH1 0x4 CALLDATASIZE LT PUSH2 0x55 JUMPI PUSH0 CALLDATALOAD PUSH1 0xE0 SHR DUP1 PUSH4 0x186A423 EQ PUSH2 0x59 JUMPI DUP1 PUSH4 0x2EC06BE EQ PUSH2 0x85 JUMPI DUP1 PUSH4 0x68111CCE EQ PUSH2 0x9A JUMPI DUP1 PUSH4 0x72139D9A EQ PUSH2 0xBC JUMPI DUP1 PUSH4 0xADBE15BC EQ PUSH2 0xCF JUMPI JUMPDEST PUSH0 PUSH0 REVERT JUMPDEST PUSH2 0x6C PUSH2 0x67 CALLDATASIZE PUSH1 0x4 PUSH2 0x757 JUMP JUMPDEST PUSH2 0xE2 JUMP JUMPDEST PUSH1 0x40 MLOAD PUSH2 0x7C SWAP5 SWAP4 SWAP3 SWAP2 SWAP1 PUSH2 0x7F3 JUMP JUMPDEST PUSH1 0x40 MLOAD DUP1 SWAP2 SUB SWAP1 RETURN JUMPDEST PUSH2 0x98 PUSH2 0x93 CALLDATASIZE PUSH1 0x4 PUSH2 0x757 JUMP JUMPDEST PUSH2 0x1A1 JUMP JUMPDEST STOP JUMPDEST PUSH2 0xAD PUSH2 0xA8 CALLDATASIZE PUSH1 0x4 PUSH2 0x757 JUMP JUMPDEST PUSH2 0x2EC JUMP JUMPDEST PUSH1 0x40 MLOAD PUSH2 0x7C SWAP4 SWAP3 SWAP2 SWAP1 PUSH2 0x82B JUMP JUMPDEST PUSH2 0x98 PUSH2 0xCA CALLDATASIZE PUSH1 0x4 PUSH2 0x757 JUMP JUMPDEST PUSH2 0x412 JUMP JUMPDEST PUSH2 0x98 PUSH2 0xDD CALLDATASIZE PUSH1 0x4 PUSH2 0x84F JUMP JUMPDEST PUSH2 0x4F9 JUMP JUMPDEST DUP1 MLOAD PUSH1 0x20 DUP2 DUP4 ADD DUP2 ADD DUP1 MLOAD PUSH0 DUP3 MSTORE SWAP3 DUP3 ADD SWAP2 SWAP1 SWAP4 ADD KECCAK256 SWAP2 MSTORE DUP1 SLOAD DUP2 SWAP1 PUSH2 0x107 SWAP1 PUSH2 0x8A1 JUMP JUMPDEST DUP1 PUSH1 0x1F ADD PUSH1 0x20 DUP1 SWAP2 DIV MUL PUSH1 0x20 ADD PUSH1 0x40 MLOAD SWAP1 DUP2 ADD PUSH1 0x40 MSTORE DUP1 SWAP3 SWAP2 SWAP1 DUP2 DUP2 MSTORE PUSH1 0x20 ADD DUP3 DUP1 SLOAD PUSH2 0x133 SWAP1 PUSH2 0x8A1 JUMP JUMPDEST DUP1 ISZERO PUSH2 0x17E JUMPI DUP1 PUSH1 0x1F LT PUSH2 0x155 JUMPI PUSH2 0x100 DUP1 DUP4 SLOAD DIV MUL DUP4 MSTORE SWAP2 PUSH1 0x20 ADD SWAP2 PUSH2 0x17E JUMP JUMPDEST DUP3 ADD SWAP2 SWAP1 PUSH0 MSTORE PUSH1 0x20 PUSH0 KECCAK256 SWAP1 JUMPDEST DUP2 SLOAD DUP2 MSTORE SWAP1 PUSH1 0x1 ADD SWAP1 PUSH1 0x20 ADD DUP1 DUP4 GT PUSH2 0x161 JUMPI DUP3 SWAP1 SUB PUSH1 0x1F AND DUP3 ADD SWAP2 JUMPDEST POP POP POP POP PUSH1 0x1 DUP4 ADD SLOAD PUSH1 0x2 DUP5 ADD SLOAD PUSH1 0x3 SWAP1 SWAP5 ADD SLOAD SWAP3 SWAP4 PUSH1 0xFF SWAP2 DUP3 AND SWAP4 SWAP1 SWAP3 POP AND DUP5 JUMP JUMPDEST PUSH0 DUP2 PUSH1 0x40 MLOAD PUSH2 0x1B0 SWAP2 SWAP1 PUSH2 0x8D9 JUMP JUMPDEST SWAP1 DUP2 MSTORE PUSH1 0x40 MLOAD SWAP1 DUP2 SWAP1 SUB PUSH1 0x20 ADD SWAP1 KECCAK256 PUSH1 0x3 ADD SLOAD PUSH1 0xFF AND ISZERO PUSH2 0x211 JUMPI PUSH1 0x40 MLOAD PUSH3 0x461BCD PUSH1 0xE5 SHL DUP2 MSTORE PUSH1 0x20 PUSH1 0x4 DUP3 ADD MSTORE PUSH1 0x16 PUSH1 0x24 DUP3 ADD MSTORE PUSH22 0x50726F6475637420616C726561647920657869737473 PUSH1 0x50 SHL PUSH1 0x44 DUP3 ADD MSTORE PUSH1 0x64 ADD JUMPDEST PUSH1 0x40 MLOAD DUP1 SWAP2 SUB SWAP1 REVERT JUMPDEST PUSH1 0x40 DUP1 MLOAD PUSH1 0x80 DUP2 ADD SWAP1 SWAP2 MSTORE DUP2 DUP2 MSTORE PUSH1 0x20 DUP2 ADD PUSH0 DUP2 MSTORE TIMESTAMP PUSH1 0x20 DUP3 ADD MSTORE PUSH1 0x1 PUSH1 0x40 SWAP2 DUP3 ADD MSTORE MLOAD PUSH0 SWAP1 PUSH2 0x242 SWAP1 DUP5 SWAP1 PUSH2 0x8D9 JUMP JUMPDEST SWAP1 DUP2 MSTORE PUSH1 0x40 MLOAD SWAP1 DUP2 SWAP1 SUB PUSH1 0x20 ADD SWAP1 KECCAK256 DUP2 MLOAD DUP2 SWAP1 PUSH2 0x25F SWAP1 DUP3 PUSH2 0x93B JUMP JUMPDEST POP PUSH1 0x20 DUP3 ADD MLOAD PUSH1 0x1 DUP1 DUP4 ADD DUP1 SLOAD SWAP1 SWAP2 PUSH1 0xFF NOT SWAP1 SWAP2 AND SWAP1 DUP4 PUSH1 0x2 DUP2 GT ISZERO PUSH2 0x287 JUMPI PUSH2 0x287 PUSH2 0x7BF JUMP JUMPDEST MUL OR SWAP1 SSTORE POP PUSH1 0x40 DUP3 DUP2 ADD MLOAD PUSH1 0x2 DUP4 ADD SSTORE PUSH1 0x60 SWAP1 SWAP3 ADD MLOAD PUSH1 0x3 SWAP1 SWAP2 ADD DUP1 SLOAD PUSH1 0xFF NOT AND SWAP2 ISZERO ISZERO SWAP2 SWAP1 SWAP2 OR SWAP1 SSTORE MLOAD PUSH32 0xB040EFD5B9AC3E016C34E7BA218414CEC2F62F7405435784F124CF44A21DC137 SWAP1 PUSH2 0x2E1 SWAP1 DUP4 SWAP1 TIMESTAMP SWAP1 PUSH2 0x9F6 JUMP JUMPDEST PUSH1 0x40 MLOAD DUP1 SWAP2 SUB SWAP1 LOG1 POP JUMP JUMPDEST PUSH0 PUSH0 PUSH0 PUSH0 PUSH0 DUP6 PUSH1 0x40 MLOAD PUSH2 0x2FF SWAP2 SWAP1 PUSH2 0x8D9 JUMP JUMPDEST SWAP1 DUP2 MSTORE PUSH1 0x20 ADD PUSH1 0x40 MLOAD DUP1 SWAP2 SUB SWAP1 KECCAK256 PUSH1 0x40 MLOAD DUP1 PUSH1 0x80 ADD PUSH1 0x40 MSTORE SWAP1 DUP2 PUSH0 DUP3 ADD DUP1 SLOAD PUSH2 0x327 SWAP1 PUSH2 0x8A1 JUMP JUMPDEST DUP1 PUSH1 0x1F ADD PUSH1 0x20 DUP1 SWAP2 DIV MUL PUSH1 0x20 ADD PUSH1 0x40 MLOAD SWAP1 DUP2 ADD PUSH1 0x40 MSTORE DUP1 SWAP3 SWAP2 SWAP1 DUP2 DUP2 MSTORE PUSH1 0x20 ADD DUP3 DUP1 SLOAD PUSH2 0x353 SWAP1 PUSH2 0x8A1 JUMP JUMPDEST DUP1 ISZERO PUSH2 0x39E JUMPI DUP1 PUSH1 0x1F LT PUSH2 0x375 JUMPI PUSH2 0x100 DUP1 DUP4 SLOAD DIV MUL DUP4 MSTORE SWAP2 PUSH1 0x20 ADD SWAP2 PUSH2 0x39E JUMP JUMPDEST DUP3 ADD SWAP2 SWAP1 PUSH0 MSTORE PUSH1 0x20 PUSH0 KECCAK256 SWAP1 JUMPDEST DUP2 SLOAD DUP2 MSTORE SWAP1 PUSH1 0x1 ADD SWAP1 PUSH1 0x20 ADD DUP1 DUP4 GT PUSH2 0x381 JUMPI DUP3 SWAP1 SUB PUSH1 0x1F AND DUP3 ADD SWAP2 JUMPDEST POP POP POP SWAP2 DUP4 MSTORE POP POP PUSH1 0x1 DUP3 ADD SLOAD PUSH1 0x20 SWAP1 SWAP2 ADD SWAP1 PUSH1 0xFF AND PUSH1 0x2 DUP2 GT ISZERO PUSH2 0x3C5 JUMPI PUSH2 0x3C5 PUSH2 0x7BF JUMP JUMPDEST PUSH1 0x2 DUP2 GT ISZERO PUSH2 0x3D6 JUMPI PUSH2 0x3D6 PUSH2 0x7BF JUMP JUMPDEST DUP2 MSTORE PUSH1 0x2 DUP3 ADD SLOAD PUSH1 0x20 DUP1 DUP4 ADD SWAP2 SWAP1 SWAP2 MSTORE PUSH1 0x3 SWAP1 SWAP3 ADD SLOAD PUSH1 0xFF AND ISZERO ISZERO PUSH1 0x40 SWAP2 DUP3 ADD MSTORE SWAP1 DUP3 ADD MLOAD SWAP1 DUP3 ADD MLOAD PUSH1 0x60 SWAP1 SWAP3 ADD MLOAD SWAP1 SWAP8 SWAP2 SWAP7 POP SWAP5 POP SWAP3 POP POP POP JUMP JUMPDEST PUSH0 DUP2 PUSH1 0x40 MLOAD PUSH2 0x421 SWAP2 SWAP1 PUSH2 0x8D9 JUMP JUMPDEST SWAP1 DUP2 MSTORE PUSH1 0x40 MLOAD SWAP1 DUP2 SWAP1 SUB PUSH1 0x20 ADD SWAP1 KECCAK256 PUSH1 0x3 ADD SLOAD PUSH1 0xFF AND PUSH2 0x47C JUMPI PUSH1 0x40 MLOAD PUSH3 0x461BCD PUSH1 0xE5 SHL DUP2 MSTORE PUSH1 0x20 PUSH1 0x4 DUP3 ADD MSTORE PUSH1 0x16 PUSH1 0x24 DUP3 ADD MSTORE PUSH22 0x141C9BD91D58DD08191BD95CC81B9BDD08195E1A5CDD PUSH1 0x52 SHL PUSH1 0x44 DUP3 ADD MSTORE PUSH1 0x64 ADD PUSH2 0x208 JUMP JUMPDEST PUSH0 DUP2 PUSH1 0x40 MLOAD PUSH2 0x48B SWAP2 SWAP1 PUSH2 0x8D9 JUMP JUMPDEST SWAP1 DUP2 MSTORE PUSH1 0x40 MLOAD SWAP1 DUP2 SWAP1 SUB PUSH1 0x20 ADD SWAP1 KECCAK256 PUSH0 PUSH2 0x4A5 DUP3 DUP3 PUSH2 0x666 JUMP JUMPDEST POP PUSH1 0x1 DUP2 ADD DUP1 SLOAD PUSH1 0xFF NOT SWAP1 DUP2 AND SWAP1 SWAP2 SSTORE PUSH0 PUSH1 0x2 DUP4 ADD SSTORE PUSH1 0x3 SWAP1 SWAP2 ADD DUP1 SLOAD SWAP1 SWAP2 AND SWAP1 SSTORE PUSH1 0x40 MLOAD PUSH32 0x9134236C155EF1BD925101C26FB5FD28043E2CD3EB96D18BB4D6BF76FF0D753A SWAP1 PUSH2 0x2E1 SWAP1 DUP4 SWAP1 TIMESTAMP SWAP1 PUSH2 0x9F6 JUMP JUMPDEST PUSH0 DUP3 PUSH1 0x40 MLOAD PUSH2 0x508 SWAP2 SWAP1 PUSH2 0x8D9 JUMP JUMPDEST SWAP1 DUP2 MSTORE PUSH1 0x40 MLOAD SWAP1 DUP2 SWAP1 SUB PUSH1 0x20 ADD SWAP1 KECCAK256 PUSH1 0x3 ADD SLOAD PUSH1 0xFF AND PUSH2 0x563 JUMPI PUSH1 0x40 MLOAD PUSH3 0x461BCD PUSH1 0xE5 SHL DUP2 MSTORE PUSH1 0x20 PUSH1 0x4 DUP3 ADD MSTORE PUSH1 0x16 PUSH1 0x24 DUP3 ADD MSTORE PUSH22 0x141C9BD91D58DD08191BD95CC81B9BDD08195E1A5CDD PUSH1 0x52 SHL PUSH1 0x44 DUP3 ADD MSTORE PUSH1 0x64 ADD PUSH2 0x208 JUMP JUMPDEST PUSH1 0x2 DUP2 PUSH1 0x2 DUP2 GT ISZERO PUSH2 0x577 JUMPI PUSH2 0x577 PUSH2 0x7BF JUMP JUMPDEST GT ISZERO PUSH2 0x5BC JUMPI PUSH1 0x40 MLOAD PUSH3 0x461BCD PUSH1 0xE5 SHL DUP2 MSTORE PUSH1 0x20 PUSH1 0x4 DUP3 ADD MSTORE PUSH1 0x14 PUSH1 0x24 DUP3 ADD MSTORE PUSH20 0x496E76616C6964207374617475732076616C7565 PUSH1 0x60 SHL PUSH1 0x44 DUP3 ADD MSTORE PUSH1 0x64 ADD PUSH2 0x208 JUMP JUMPDEST DUP1 PUSH0 DUP4 PUSH1 0x40 MLOAD PUSH2 0x5CC SWAP2 SWAP1 PUSH2 0x8D9 JUMP JUMPDEST SWAP1 DUP2 MSTORE PUSH1 0x20 ADD PUSH1 0x40 MLOAD DUP1 SWAP2 SUB SWAP1 KECCAK256 PUSH1 0x1 ADD PUSH0 PUSH2 0x100 EXP DUP2 SLOAD DUP2 PUSH1 0xFF MUL NOT AND SWAP1 DUP4 PUSH1 0x2 DUP2 GT ISZERO PUSH2 0x5FD JUMPI PUSH2 0x5FD PUSH2 0x7BF JUMP JUMPDEST MUL OR SWAP1 SSTORE POP TIMESTAMP PUSH0 DUP4 PUSH1 0x40 MLOAD PUSH2 0x612 SWAP2 SWAP1 PUSH2 0x8D9 JUMP JUMPDEST SWAP1 DUP2 MSTORE PUSH1 0x20 ADD PUSH1 0x40 MLOAD DUP1 SWAP2 SUB SWAP1 KECCAK256 PUSH1 0x2 ADD DUP2 SWAP1 SSTORE POP PUSH32 0xC1C0AB06B259F062BFD174CF912A7C24B40820E430B30E09C9E96E17737BC9D3 DUP3 DUP3 TIMESTAMP PUSH1 0x40 MLOAD PUSH2 0x65A SWAP4 SWAP3 SWAP2 SWAP1 PUSH2 0xA17 JUMP JUMPDEST PUSH1 0x40 MLOAD DUP1 SWAP2 SUB SWAP1 LOG1 POP POP JUMP JUMPDEST POP DUP1 SLOAD PUSH2 0x672 SWAP1 PUSH2 0x8A1 JUMP JUMPDEST PUSH0 DUP3 SSTORE DUP1 PUSH1 0x1F LT PUSH2 0x681 JUMPI POP POP JUMP JUMPDEST PUSH1 0x1F ADD PUSH1 0x20 SWAP1 DIV SWAP1 PUSH0 MSTORE PUSH1 0x20 PUSH0 KECCAK256 SWAP1 DUP2 ADD SWAP1 PUSH2 0x69D SWAP2 SWAP1 PUSH2 0x6A0 JUMP JUMPDEST POP JUMP JUMPDEST JUMPDEST DUP1 DUP3 GT ISZERO PUSH2 0x6B4 JUMPI PUSH0 DUP2 SSTORE PUSH1 0x1 ADD PUSH2 0x6A1 JUMP JUMPDEST POP SWAP1 JUMP JUMPDEST PUSH4 0x4E487B71 PUSH1 0xE0 SHL PUSH0 MSTORE PUSH1 0x41 PUSH1 0x4 MSTORE PUSH1 0x24 PUSH0 REVERT JUMPDEST PUSH0 DUP3 PUSH1 0x1F DUP4 ADD SLT PUSH2 0x6DB JUMPI PUSH0 PUSH0 REVERT JUMPDEST DUP2 CALLDATALOAD PUSH8 0xFFFFFFFFFFFFFFFF DUP2 GT ISZERO PUSH2 0x6F5 JUMPI PUSH2 0x6F5 PUSH2 0x6B8 JUMP JUMPDEST PUSH1 0x40 MLOAD PUSH1 0x1F DUP3 ADD PUSH1 0x1F NOT SWAP1 DUP2 AND PUSH1 0x3F ADD AND DUP2 ADD PUSH8 0xFFFFFFFFFFFFFFFF DUP2 GT DUP3 DUP3 LT OR ISZERO PUSH2 0x724 JUMPI PUSH2 0x724 PUSH2 0x6B8 JUMP JUMPDEST PUSH1 0x40 MSTORE DUP2 DUP2 MSTORE DUP4 DUP3 ADD PUSH1 0x20 ADD DUP6 LT ISZERO PUSH2 0x73B JUMPI PUSH0 PUSH0 REVERT JUMPDEST DUP2 PUSH1 0x20 DUP6 ADD PUSH1 0x20 DUP4 ADD CALLDATACOPY PUSH0 SWAP2 DUP2 ADD PUSH1 0x20 ADD SWAP2 SWAP1 SWAP2 MSTORE SWAP4 SWAP3 POP POP POP JUMP JUMPDEST PUSH0 PUSH1 0x20 DUP3 DUP5 SUB SLT ISZERO PUSH2 0x767 JUMPI PUSH0 PUSH0 REVERT JUMPDEST DUP2 CALLDATALOAD PUSH8 0xFFFFFFFFFFFFFFFF DUP2 GT ISZERO PUSH2 0x77D JUMPI PUSH0 PUSH0 REVERT JUMPDEST PUSH2 0x789 DUP5 DUP3 DUP6 ADD PUSH2 0x6CC JUMP JUMPDEST SWAP5 SWAP4 POP POP POP POP JUMP JUMPDEST PUSH0 DUP2 MLOAD DUP1 DUP5 MSTORE DUP1 PUSH1 0x20 DUP5 ADD PUSH1 0x20 DUP7 ADD MCOPY PUSH0 PUSH1 0x20 DUP3 DUP7 ADD ADD MSTORE PUSH1 0x20 PUSH1 0x1F NOT PUSH1 0x1F DUP4 ADD AND DUP6 ADD ADD SWAP2 POP POP SWAP3 SWAP2 POP POP JUMP JUMPDEST PUSH4 0x4E487B71 PUSH1 0xE0 SHL PUSH0 MSTORE PUSH1 0x21 PUSH1 0x4 MSTORE PUSH1 0x24 PUSH0 REVERT JUMPDEST PUSH1 0x3 DUP2 LT PUSH2 0x7EF JUMPI PUSH4 0x4E487B71 PUSH1 0xE0 SHL PUSH0 MSTORE PUSH1 0x21 PUSH1 0x4 MSTORE PUSH1 0x24 PUSH0 REVERT JUMPDEST SWAP1 MSTORE JUMP JUMPDEST PUSH1 0x80 DUP2 MSTORE PUSH0 PUSH2 0x805 PUSH1 0x80 DUP4 ADD DUP8 PUSH2 0x791 JUMP JUMPDEST SWAP1 POP PUSH2 0x814 PUSH1 0x20 DUP4 ADD DUP7 PUSH2 0x7D3 JUMP JUMPDEST DUP4 PUSH1 0x40 DUP4 ADD MSTORE DUP3 ISZERO ISZERO PUSH1 0x60 DUP4 ADD MSTORE SWAP6 SWAP5 POP POP POP POP POP JUMP JUMPDEST PUSH1 0x60 DUP2 ADD PUSH2 0x839 DUP3 DUP7 PUSH2 0x7D3 JUMP JUMPDEST DUP4 PUSH1 0x20 DUP4 ADD MSTORE DUP3 ISZERO ISZERO PUSH1 0x40 DUP4 ADD MSTORE SWAP5 SWAP4 POP POP POP POP JUMP JUMPDEST PUSH0 PUSH0 PUSH1 0x40 DUP4 DUP6 SUB SLT ISZERO PUSH2 0x860 JUMPI PUSH0 PUSH0 REVERT JUMPDEST DUP3 CALLDATALOAD PUSH8 0xFFFFFFFFFFFFFFFF DUP2 GT ISZERO PUSH2 0x876 JUMPI PUSH0 PUSH0 REVERT JUMPDEST PUSH2 0x882 DUP6 DUP3 DUP7 ADD PUSH2 0x6CC JUMP JUMPDEST SWAP3 POP POP PUSH1 0x20 DUP4 ADD CALLDATALOAD PUSH1 0x3 DUP2 LT PUSH2 0x896 JUMPI PUSH0 PUSH0 REVERT JUMPDEST DUP1 SWAP2 POP POP SWAP3 POP SWAP3 SWAP1 POP JUMP JUMPDEST PUSH1 0x1 DUP2 DUP2 SHR SWAP1 DUP3 AND DUP1 PUSH2 0x8B5 JUMPI PUSH1 0x7F DUP3 AND SWAP2 POP JUMPDEST PUSH1 0x20 DUP3 LT DUP2 SUB PUSH2 0x8D3 JUMPI PUSH4 0x4E487B71 PUSH1 0xE0 SHL PUSH0 MSTORE PUSH1 0x22 PUSH1 0x4 MSTORE PUSH1 0x24 PUSH0 REVERT JUMPDEST POP SWAP2 SWAP1 POP JUMP JUMPDEST PUSH0 DUP3 MLOAD DUP1 PUSH1 0x20 DUP6 ADD DUP5 MCOPY PUSH0 SWAP3 ADD SWAP2 DUP3 MSTORE POP SWAP2 SWAP1 POP JUMP JUMPDEST PUSH1 0x1F DUP3 GT ISZERO PUSH2 0x936 JUMPI DUP1 PUSH0 MSTORE PUSH1 0x20 PUSH0 KECCAK256 PUSH1 0x1F DUP5 ADD PUSH1 0x5 SHR DUP2 ADD PUSH1 0x20 DUP6 LT ISZERO PUSH2 0x914 JUMPI POP DUP1 JUMPDEST PUSH1 0x1F DUP5 ADD PUSH1 0x5 SHR DUP3 ADD SWAP2 POP JUMPDEST DUP2 DUP2 LT ISZERO PUSH2 0x933 JUMPI PUSH0 DUP2 SSTORE PUSH1 0x1 ADD PUSH2 0x920 JUMP JUMPDEST POP POP JUMPDEST POP POP POP JUMP JUMPDEST DUP2 MLOAD PUSH8 0xFFFFFFFFFFFFFFFF DUP2 GT ISZERO PUSH2 0x955 JUMPI PUSH2 0x955 PUSH2 0x6B8 JUMP JUMPDEST PUSH2 0x969 DUP2 PUSH2 0x963 DUP5 SLOAD PUSH2 0x8A1 JUMP JUMPDEST DUP5 PUSH2 0x8EF JUMP JUMPDEST PUSH1 0x20 PUSH1 0x1F DUP3 GT PUSH1 0x1 DUP2 EQ PUSH2 0x99B JUMPI PUSH0 DUP4 ISZERO PUSH2 0x984 JUMPI POP DUP5 DUP3 ADD MLOAD JUMPDEST PUSH0 NOT PUSH1 0x3 DUP6 SWAP1 SHL SHR NOT AND PUSH1 0x1 DUP5 SWAP1 SHL OR DUP5 SSTORE PUSH2 0x933 JUMP JUMPDEST PUSH0 DUP5 DUP2 MSTORE PUSH1 0x20 DUP2 KECCAK256 PUSH1 0x1F NOT DUP6 AND SWAP2 JUMPDEST DUP3 DUP2 LT ISZERO PUSH2 0x9CA JUMPI DUP8 DUP6 ADD MLOAD DUP3 SSTORE PUSH1 0x20 SWAP5 DUP6 ADD SWAP5 PUSH1 0x1 SWAP1 SWAP3 ADD SWAP2 ADD PUSH2 0x9AA JUMP JUMPDEST POP DUP5 DUP3 LT ISZERO PUSH2 0x9E7 JUMPI DUP7 DUP5 ADD MLOAD PUSH0 NOT PUSH1 0x3 DUP8 SWAP1 SHL PUSH1 0xF8 AND SHR NOT AND DUP2 SSTORE JUMPDEST POP POP POP POP PUSH1 0x1 SWAP1 DUP2 SHL ADD SWAP1 SSTORE POP JUMP JUMPDEST PUSH1 0x40 DUP2 MSTORE PUSH0 PUSH2 0xA08 PUSH1 0x40 DUP4 ADD DUP6 PUSH2 0x791 JUMP JUMPDEST SWAP1 POP DUP3 PUSH1 0x20 DUP4 ADD MSTORE SWAP4 SWAP3 POP POP POP JUMP JUMPDEST PUSH1 0x60 DUP2 MSTORE PUSH0 PUSH2 0xA29 PUSH1 0x60 DUP4 ADD DUP7 PUSH2 0x791 JUMP JUMPDEST SWAP1 POP PUSH2 0xA38 PUSH1 0x20 DUP4 ADD DUP6 PUSH2 0x7D3 JUMP JUMPDEST DUP3 PUSH1 0x40 DUP4 ADD MSTORE SWAP5 SWAP4 POP POP POP POP JUMP INVALID LOG2 PUSH5 0x6970667358 0x22 SLT KECCAK256 OR SWAP5 0xBD MUL CODECOPY SWAP11 0xED 0x4D 0x4D PUSH22 0xD699375554414FD36B2AB025B677E0876E21BAC44AD6 PUSH5 0x736F6C6343 STOP ADDMOD SAR STOP CALLER "
    },
    "gasEstimates": {
      "creation": {
        "codeDepositCost": "536800",
        "executionCost": "566",
        "totalCost": "537366"
      },
      "external": {
        "createProduct(string)": "infinite",
        "deleteProduct(string)": "infinite",
        "getProduct(string)": "infinite",
        "products(string)": "infinite",
        "updateProductStatus(string,uint8)": "infinite"
      }
    },
    "methodIdentifiers": {
      "createProduct(string)": "02ec06be",
      "deleteProduct(string)": "72139d9a",
      "getProduct(string)": "68111cce",
      "products(string)": "0186a423",
      "updateProductStatus(string,uint8)": "adbe15bc"
    }
  },
  "storageLayout": {
    "storage": [
      {
        "astId": 20,
        "contract": "SupplyChain.sol:SupplyChain",
        "label": "products",
        "offset": 0,
        "slot": "0",
        "type": "t_mapping(t_string_memory_ptr,t_struct(Product)15_storage)"
      }
    ],
    "types": {
      "t_bool": {
        "encoding": "inplace",
        "label": "bool",
        "numberOfBytes": "1"
      },
      "t_enum(Status)5": {
        "encoding": "inplace",
        "label": "enum SupplyChain.Status",
        "numberOfBytes": "1"
      },
      "t_mapping(t_string_memory_ptr,t_struct(Product)15_storage)": {
        "encoding": "mapping",
        "key": "t_string_memory_ptr",
        "label": "mapping(string => struct SupplyChain.Product)",
        "numberOfBytes": "32",
        "value": "t_struct(Product)15_storage"
      },
      "t_string_memory_ptr": {
        "encoding": "bytes",
        "label": "string",
        "numberOfBytes": "32"
      },
      "t_string_storage": {
        "encoding": "bytes",
        "label": "string",
        "numberOfBytes": "32"
      },
      "t_struct(Product)15_storage": {
        "encoding": "inplace",
        "label": "struct SupplyChain.Product",
        "members": [
          {
            "astId": 7,
            "contract": "SupplyChain.sol:SupplyChain",
            "label": "productId",
            "offset": 0,
            "slot": "0",
            "type": "t_string_storage"
          },
          {
            "astId": 10,
            "contract": "SupplyChain.sol:SupplyChain",
            "label": "status",
            "offset": 0,
            "slot": "1",
            "type": "t_enum(Status)5"
          },
          {
            "astId": 12,
            "contract": "SupplyChain.sol:SupplyChain",
            "label": "timestamp",
            "offset": 0,
            "slot": "2",
            "type": "t_uint256"
          },
          {
            "astId": 14,
            "contract": "SupplyChain.sol:SupplyChain",
            "label": "exists",
            "offset": 0,
            "slot": "3",
            "type": "t_bool"
          }
        ],
        "numberOfBytes": "128"
      },
      "t_uint256": {
        "encoding": "inplace",
        "label": "uint256",
        "numberOfBytes": "32"
      }
    }
  },
  "transientStorageLayout": {
    "storage": [],
    "types": null
  },
  "userdoc": {
    "kind": "user",
    "methods": {},
    "version": 1
  }
}