{
  "abi": [
    {
      "anonymous": false,
      "inputs": [
        {
          "indexed": false,
          "internalType": "uint256",
          "name": "id",
          "type": "uint256"
        },
        {
          "indexed": false,
          "internalType": "string",
          "name": "name",
          "type": "string"
        },
        {
          "indexed": false,
          "internalType": "address",
          "name": "manufacturer",
          "type": "address"
        }
      ],
      "name": "ProductCreated",
      "type": "event"
    },
    {
      "anonymous": false,
      "inputs": [
        {
          "indexed": false,
          "internalType": "uint256",
          "name": "id",
          "type": "uint256"
        },
        {
          "indexed": false,
          "internalType": "enum SupplyChain.Status",
          "name": "status",
          "type": "uint8"
        }
      ],
      "name": "StatusUpdated",
      "type": "event"
    },
    {
      "inputs": [
        {
          "internalType": "string",
          "name": "_name",
          "type": "string"
        },
        {
          "internalType": "string",
          "name": "_description",
          "type": "string"
        }
      ],
      "name": "createProduct",
      "outputs": [],
      "stateMutability": "nonpayable",
      "type": "function"
    },
    {
      "inputs": [],
      "name": "productCount",
      "outputs": [
        {
          "internalType": "uint256",
          "name": "",
          "type": "uint256"
        }
      ],
      "stateMutability": "view",
      "type": "function"
    },
    {
      "inputs": [
        {
          "internalType": "uint256",
          "name": "",
          "type": "uint256"
        }
      ],
      "name": "products",
      "outputs": [
        {
          "internalType": "uint256",
          "name": "id",
          "type": "uint256"
        },
        {
          "internalType": "string",
          "name": "name",
          "type": "string"
        },
        {
          "internalType": "string",
          "name": "description",
          "type": "string"
        },
        {
          "internalType": "address",
          "name": "manufacturer",
          "type": "address"
        },
        {
          "internalType": "enum SupplyChain.Status",
          "name": "status",
          "type": "uint8"
        },
        {
          "internalType": "uint256",
          "name": "timestamp",
          "type": "uint256"
        }
      ],
      "stateMutability": "view",
      "type": "function"
    },
    {
      "inputs": [
        {
          "internalType": "uint256",
          "name": "_id",
          "type": "uint256"
        },
        {
          "internalType": "enum SupplyChain.Status",
          "name": "_status",
          "type": "uint8"
        }
      ],
      "name": "updateStatus",
      "outputs": [],
      "stateMutability": "nonpayable",
      "type": "function"
    }
  ],
  "devdoc": {
    "kind": "dev",
    "methods": {},
    "version": 1
  },
  "evm": {
    "assembly": "    /* \"SupplyChain.sol\":60:1203  contract SupplyChain {... */\n  mstore(0x40, 0x80)\n  callvalue\n  dup1\n  iszero\n  tag_1\n  jumpi\n  revert(0x00, 0x00)\ntag_1:\n  pop\n  dataSize(sub_0)\n  dup1\n  dataOffset(sub_0)\n  0x00\n  codecopy\n  0x00\n  return\nstop\n\nsub_0: assembly {\n        /* \"SupplyChain.sol\":60:1203  contract SupplyChain {... */\n      mstore(0x40, 0x80)\n      callvalue\n      dup1\n      iszero\n      tag_1\n      jumpi\n      revert(0x00, 0x00)\n    tag_1:\n      pop\n      jumpi(tag_2, lt(calldatasize, 0x04))\n      shr(0xe0, calldataload(0x00))\n      dup1\n      0x3a1b3d31\n      eq\n      tag_3\n      jumpi\n      dup1\n      0x7acc0b20\n      eq\n      tag_4\n      jumpi\n      dup1\n      0x87592bce\n      eq\n      tag_5\n      jumpi\n      dup1\n      0xe0f6ef87\n      eq\n      tag_6\n      jumpi\n    tag_2:\n      revert(0x00, 0x00)\n        /* \"SupplyChain.sol\":941:1200  function updateStatus(uint256 _id, Status _status) public {... */\n    tag_3:\n      tag_7\n      0x04\n      dup1\n      calldatasize\n      sub\n      dup2\n      add\n      swap1\n      tag_8\n      swap2\n      swap1\n      tag_9\n      jump\t// in\n    tag_8:\n      tag_10\n      jump\t// in\n    tag_7:\n      stop\n        /* \"SupplyChain.sol\":331:374  mapping(uint256 => Product) public products */\n    tag_4:\n      tag_11\n      0x04\n      dup1\n      calldatasize\n      sub\n      dup2\n      add\n      swap1\n      tag_12\n      swap2\n      swap1\n      tag_13\n      jump\t// in\n    tag_12:\n      tag_14\n      jump\t// in\n    tag_11:\n      mload(0x40)\n      tag_15\n      swap7\n      swap6\n      swap5\n      swap4\n      swap3\n      swap2\n      swap1\n      tag_16\n      jump\t// in\n    tag_15:\n      mload(0x40)\n      dup1\n      swap2\n      sub\n      swap1\n      return\n        /* \"SupplyChain.sol\":546:933  function createProduct(string memory _name, string memory _description) public {... */\n    tag_5:\n      tag_17\n      0x04\n      dup1\n      calldatasize\n      sub\n      dup2\n      add\n      swap1\n      tag_18\n      swap2\n      swap1\n      tag_19\n      jump\t// in\n    tag_18:\n      tag_20\n      jump\t// in\n    tag_17:\n      stop\n        /* \"SupplyChain.sol\":381:408  uint256 public productCount */\n    tag_6:\n      tag_21\n      tag_22\n      jump\t// in\n    tag_21:\n      mload(0x40)\n      tag_23\n      swap2\n      swap1\n      tag_24\n      jump\t// in\n    tag_23:\n      mload(0x40)\n      dup1\n      swap2\n      sub\n      swap1\n      return\n        /* \"SupplyChain.sol\":941:1200  function updateStatus(uint256 _id, Status _status) public {... */\n    tag_10:\n        /* \"SupplyChain.sol\":1025:1037  productCount */\n      sload(0x01)\n        /* \"SupplyChain.sol\":1018:1021  _id */\n      dup3\n        /* \"SupplyChain.sol\":1018:1037  _id <= productCount */\n      gt\n      iszero\n        /* \"SupplyChain.sol\":1010:1064  require(_id <= productCount, \"Product does not exist\") */\n      tag_26\n      jumpi\n      mload(0x40)\n      0x08c379a000000000000000000000000000000000000000000000000000000000\n      dup2\n      mstore\n      0x04\n      add\n      tag_27\n      swap1\n      tag_28\n      jump\t// in\n    tag_27:\n      mload(0x40)\n      dup1\n      swap2\n      sub\n      swap1\n      revert\n    tag_26:\n        /* \"SupplyChain.sol\":1075:1098  Product storage product */\n      0x00\n        /* \"SupplyChain.sol\":1101:1109  products */\n      0x00\n        /* \"SupplyChain.sol\":1101:1114  products[_id] */\n      0x00\n        /* \"SupplyChain.sol\":1110:1113  _id */\n      dup5\n        /* \"SupplyChain.sol\":1101:1114  products[_id] */\n      dup2\n      mstore\n      0x20\n      add\n      swap1\n      dup2\n      mstore\n      0x20\n      add\n      0x00\n      keccak256\n        /* \"SupplyChain.sol\":1075:1114  Product storage product = products[_id] */\n      swap1\n      pop\n        /* \"SupplyChain.sol\":1142:1149  _status */\n      dup2\n        /* \"SupplyChain.sol\":1125:1132  product */\n      dup2\n        /* \"SupplyChain.sol\":1125:1139  product.status */\n      0x03\n      add\n      0x14\n        /* \"SupplyChain.sol\":1125:1149  product.status = _status */\n      0x0100\n      exp\n      dup2\n      sload\n      dup2\n      0xff\n      mul\n      not\n      and\n      swap1\n      dup4\n      0x02\n      dup2\n      gt\n      iszero\n      tag_29\n      jumpi\n      tag_30\n      tag_31\n      jump\t// in\n    tag_30:\n    tag_29:\n      mul\n      or\n      swap1\n      sstore\n      pop\n        /* \"SupplyChain.sol\":1165:1192  StatusUpdated(_id, _status) */\n      0x2da7b23ca63c1eb969eee5fae4acb98186abecf5358b0354a82a5183ebca6b2a\n        /* \"SupplyChain.sol\":1179:1182  _id */\n      dup4\n        /* \"SupplyChain.sol\":1184:1191  _status */\n      dup4\n        /* \"SupplyChain.sol\":1165:1192  StatusUpdated(_id, _status) */\n      mload(0x40)\n      tag_32\n      swap3\n      swap2\n      swap1\n      tag_33\n      jump\t// in\n    tag_32:\n      mload(0x40)\n      dup1\n      swap2\n      sub\n      swap1\n      log1\n        /* \"SupplyChain.sol\":999:1200  {... */\n      pop\n        /* \"SupplyChain.sol\":941:1200  function updateStatus(uint256 _id, Status _status) public {... */\n      pop\n      pop\n      jump\t// out\n        /* \"SupplyChain.sol\":331:374  mapping(uint256 => Product) public products */\n    tag_14:\n      mstore(0x20, 0x00)\n      dup1\n      0x00\n      mstore\n      keccak256(0x00, 0x40)\n      0x00\n      swap2\n      pop\n      swap1\n      pop\n      dup1\n      0x00\n      add\n      sload\n      swap1\n      dup1\n      0x01\n      add\n      dup1\n      sload\n      tag_34\n      swap1\n      tag_35\n      jump\t// in\n    tag_34:\n      dup1\n      0x1f\n      add\n      0x20\n      dup1\n      swap2\n      div\n      mul\n      0x20\n      add\n      mload(0x40)\n      swap1\n      dup2\n      add\n      0x40\n      mstore\n      dup1\n      swap3\n      swap2\n      swap1\n      dup2\n      dup2\n      mstore\n      0x20\n      add\n      dup3\n      dup1\n      sload\n      tag_36\n      swap1\n      tag_35\n      jump\t// in\n    tag_36:\n      dup1\n      iszero\n      tag_37\n      jumpi\n      dup1\n      0x1f\n      lt\n      tag_38\n      jumpi\n      0x0100\n      dup1\n      dup4\n      sload\n      div\n      mul\n      dup4\n      mstore\n      swap2\n      0x20\n      add\n      swap2\n      jump(tag_37)\n    tag_38:\n      dup3\n      add\n      swap2\n      swap1\n      0x00\n      mstore\n      keccak256(0x00, 0x20)\n      swap1\n    tag_39:\n      dup2\n      sload\n      dup2\n      mstore\n      swap1\n      0x01\n      add\n      swap1\n      0x20\n      add\n      dup1\n      dup4\n      gt\n      tag_39\n      jumpi\n      dup3\n      swap1\n      sub\n      0x1f\n      and\n      dup3\n      add\n      swap2\n    tag_37:\n      pop\n      pop\n      pop\n      pop\n      pop\n      swap1\n      dup1\n      0x02\n      add\n      dup1\n      sload\n      tag_40\n      swap1\n      tag_35\n      jump\t// in\n    tag_40:\n      dup1\n      0x1f\n      add\n      0x20\n      dup1\n      swap2\n      div\n      mul\n      0x20\n      add\n      mload(0x40)\n      swap1\n      dup2\n      add\n      0x40\n      mstore\n      dup1\n      swap3\n      swap2\n      swap1\n      dup2\n      dup2\n      mstore\n      0x20\n      add\n      dup3\n      dup1\n      sload\n      tag_41\n      swap1\n      tag_35\n      jump\t// in\n    tag_41:\n      dup1\n      iszero\n      tag_42\n      jumpi\n      dup1\n      0x1f\n      lt\n      tag_43\n      jumpi\n      0x0100\n      dup1\n      dup4\n      sload\n      div\n      mul\n      dup4\n      mstore\n      swap2\n      0x20\n      add\n      swap2\n      jump(tag_42)\n    tag_43:\n      dup3\n      add\n      swap2\n      swap1\n      0x00\n      mstore\n      keccak256(0x00, 0x20)\n      swap1\n    tag_44:\n      dup2\n      sload\n      dup2\n      mstore\n      swap1\n      0x01\n      add\n      swap1\n      0x20\n      add\n      dup1\n      dup4\n      gt\n      tag_44\n      jumpi\n      dup3\n      swap1\n      sub\n      0x1f\n      and\n      dup3\n      add\n      swap2\n    tag_42:\n      pop\n      pop\n      pop\n      pop\n      pop\n      swap1\n      dup1\n      0x03\n      add\n      0x00\n      swap1\n      sload\n      swap1\n      0x0100\n      exp\n      swap1\n      div\n      0xffffffffffffffffffffffffffffffffffffffff\n      and\n      swap1\n      dup1\n      0x03\n      add\n      0x14\n      swap1\n      sload\n      swap1\n      0x0100\n      exp\n      swap1\n      div\n      0xff\n      and\n      swap1\n      dup1\n      0x04\n      add\n      sload\n      swap1\n      pop\n      dup7\n      jump\t// out\n        /* \"SupplyChain.sol\":546:933  function createProduct(string memory _name, string memory _description) public {... */\n    tag_20:\n        /* \"SupplyChain.sol\":636:648  productCount */\n      0x01\n      0x00\n        /* \"SupplyChain.sol\":636:650  productCount++ */\n      dup2\n      sload\n      dup1\n      swap3\n      swap2\n      swap1\n      tag_46\n      swap1\n      tag_47\n      jump\t// in\n    tag_46:\n      swap2\n      swap1\n      pop\n      sstore\n      pop\n        /* \"SupplyChain.sol\":686:862  Product(... */\n      mload(0x40)\n      dup1\n      0xc0\n      add\n      0x40\n      mstore\n      dup1\n        /* \"SupplyChain.sol\":708:720  productCount */\n      sload(0x01)\n        /* \"SupplyChain.sol\":686:862  Product(... */\n      dup2\n      mstore\n      0x20\n      add\n        /* \"SupplyChain.sol\":735:740  _name */\n      dup4\n        /* \"SupplyChain.sol\":686:862  Product(... */\n      dup2\n      mstore\n      0x20\n      add\n        /* \"SupplyChain.sol\":755:767  _description */\n      dup3\n        /* \"SupplyChain.sol\":686:862  Product(... */\n      dup2\n      mstore\n      0x20\n      add\n        /* \"SupplyChain.sol\":782:792  msg.sender */\n      caller\n        /* \"SupplyChain.sol\":686:862  Product(... */\n      0xffffffffffffffffffffffffffffffffffffffff\n      and\n      dup2\n      mstore\n      0x20\n      add\n        /* \"SupplyChain.sol\":807:821  Status.Created */\n      0x00\n        /* \"SupplyChain.sol\":686:862  Product(... */\n      0x02\n      dup2\n      gt\n      iszero\n      tag_48\n      jumpi\n      tag_49\n      tag_31\n      jump\t// in\n    tag_49:\n    tag_48:\n      dup2\n      mstore\n      0x20\n      add\n        /* \"SupplyChain.sol\":836:851  block.timestamp */\n      timestamp\n        /* \"SupplyChain.sol\":686:862  Product(... */\n      dup2\n      mstore\n      pop\n        /* \"SupplyChain.sol\":661:669  products */\n      0x00\n        /* \"SupplyChain.sol\":661:683  products[productCount] */\n      0x00\n        /* \"SupplyChain.sol\":670:682  productCount */\n      sload(0x01)\n        /* \"SupplyChain.sol\":661:683  products[productCount] */\n      dup2\n      mstore\n      0x20\n      add\n      swap1\n      dup2\n      mstore\n      0x20\n      add\n      0x00\n      keccak256\n        /* \"SupplyChain.sol\":661:862  products[productCount] = Product(... */\n      0x00\n      dup3\n      add\n      mload\n      dup2\n      0x00\n      add\n      sstore\n      0x20\n      dup3\n      add\n      mload\n      dup2\n      0x01\n      add\n      swap1\n      dup2\n      tag_50\n      swap2\n      swap1\n      tag_51\n      jump\t// in\n    tag_50:\n      pop\n      0x40\n      dup3\n      add\n      mload\n      dup2\n      0x02\n      add\n      swap1\n      dup2\n      tag_52\n      swap2\n      swap1\n      tag_51\n      jump\t// in\n    tag_52:\n      pop\n      0x60\n      dup3\n      add\n      mload\n      dup2\n      0x03\n      add\n      exp(0x0100, 0x00)\n      dup2\n      sload\n      dup2\n      0xffffffffffffffffffffffffffffffffffffffff\n      mul\n      not\n      and\n      swap1\n      dup4\n      0xffffffffffffffffffffffffffffffffffffffff\n      and\n      mul\n      or\n      swap1\n      sstore\n      pop\n      0x80\n      dup3\n      add\n      mload\n      dup2\n      0x03\n      add\n      exp(0x0100, 0x14)\n      dup2\n      sload\n      dup2\n      0xff\n      mul\n      not\n      and\n      swap1\n      dup4\n      0x02\n      dup2\n      gt\n      iszero\n      tag_53\n      jumpi\n      tag_54\n      tag_31\n      jump\t// in\n    tag_54:\n    tag_53:\n      mul\n      or\n      swap1\n      sstore\n      pop\n      0xa0\n      dup3\n      add\n      mload\n      dup2\n      0x04\n      add\n      sstore\n      swap1\n      pop\n      pop\n        /* \"SupplyChain.sol\":878:925  ProductCreated(productCount, _name, msg.sender) */\n      0xaf6ffb6277511513e7d579327cc1fc57f0266df2fb11a60b13487b8c9cd2c388\n        /* \"SupplyChain.sol\":893:905  productCount */\n      sload(0x01)\n        /* \"SupplyChain.sol\":907:912  _name */\n      dup4\n        /* \"SupplyChain.sol\":914:924  msg.sender */\n      caller\n        /* \"SupplyChain.sol\":878:925  ProductCreated(productCount, _name, msg.sender) */\n      mload(0x40)\n      tag_55\n      swap4\n      swap3\n      swap2\n      swap1\n      tag_56\n      jump\t// in\n    tag_55:\n      mload(0x40)\n      dup1\n      swap2\n      sub\n      swap1\n      log1\n        /* \"SupplyChain.sol\":546:933  function createProduct(string memory _name, string memory _description) public {... */\n      pop\n      pop\n      jump\t// out\n        /* \"SupplyChain.sol\":381:408  uint256 public productCount */\n    tag_22:\n      sload(0x01)\n      dup2\n      jump\t// out\n        /* \"#utility.yul\":7:82   */\n    tag_57:\n        /* \"#utility.yul\":40:46   */\n      0x00\n        /* \"#utility.yul\":73:75   */\n      0x40\n        /* \"#utility.yul\":67:76   */\n      mload\n        /* \"#utility.yul\":57:76   */\n      swap1\n      pop\n        /* \"#utility.yul\":7:82   */\n      swap1\n      jump\t// out\n        /* \"#utility.yul\":88:205   */\n    tag_58:\n        /* \"#utility.yul\":197:198   */\n      0x00\n        /* \"#utility.yul\":194:195   */\n      0x00\n        /* \"#utility.yul\":187:199   */\n      revert\n        /* \"#utility.yul\":211:328   */\n    tag_59:\n        /* \"#utility.yul\":320:321   */\n      0x00\n        /* \"#utility.yul\":317:318   */\n      0x00\n        /* \"#utility.yul\":310:322   */\n      revert\n        /* \"#utility.yul\":334:411   */\n    tag_60:\n        /* \"#utility.yul\":371:378   */\n      0x00\n        /* \"#utility.yul\":400:405   */\n      dup2\n        /* \"#utility.yul\":389:405   */\n      swap1\n      pop\n        /* \"#utility.yul\":334:411   */\n      swap2\n      swap1\n      pop\n      jump\t// out\n        /* \"#utility.yul\":417:539   */\n    tag_61:\n        /* \"#utility.yul\":490:514   */\n      tag_112\n        /* \"#utility.yul\":508:513   */\n      dup2\n        /* \"#utility.yul\":490:514   */\n      tag_60\n      jump\t// in\n    tag_112:\n        /* \"#utility.yul\":483:488   */\n      dup2\n        /* \"#utility.yul\":480:515   */\n      eq\n        /* \"#utility.yul\":470:533   */\n      tag_113\n      jumpi\n        /* \"#utility.yul\":529:530   */\n      0x00\n        /* \"#utility.yul\":526:527   */\n      0x00\n        /* \"#utility.yul\":519:531   */\n      revert\n        /* \"#utility.yul\":470:533   */\n    tag_113:\n        /* \"#utility.yul\":417:539   */\n      pop\n      jump\t// out\n        /* \"#utility.yul\":545:684   */\n    tag_62:\n        /* \"#utility.yul\":591:596   */\n      0x00\n        /* \"#utility.yul\":629:635   */\n      dup2\n        /* \"#utility.yul\":616:636   */\n      calldataload\n        /* \"#utility.yul\":607:636   */\n      swap1\n      pop\n        /* \"#utility.yul\":645:678   */\n      tag_115\n        /* \"#utility.yul\":672:677   */\n      dup2\n        /* \"#utility.yul\":645:678   */\n      tag_61\n      jump\t// in\n    tag_115:\n        /* \"#utility.yul\":545:684   */\n      swap3\n      swap2\n      pop\n      pop\n      jump\t// out\n        /* \"#utility.yul\":690:797   */\n    tag_63:\n        /* \"#utility.yul\":771:772   */\n      0x03\n        /* \"#utility.yul\":764:769   */\n      dup2\n        /* \"#utility.yul\":761:773   */\n      lt\n        /* \"#utility.yul\":751:791   */\n      tag_117\n      jumpi\n        /* \"#utility.yul\":787:788   */\n      0x00\n        /* \"#utility.yul\":784:785   */\n      0x00\n        /* \"#utility.yul\":777:789   */\n      revert\n        /* \"#utility.yul\":751:791   */\n    tag_117:\n        /* \"#utility.yul\":690:797   */\n      pop\n      jump\t// out\n        /* \"#utility.yul\":803:958   */\n    tag_64:\n        /* \"#utility.yul\":857:862   */\n      0x00\n        /* \"#utility.yul\":895:901   */\n      dup2\n        /* \"#utility.yul\":882:902   */\n      calldataload\n        /* \"#utility.yul\":873:902   */\n      swap1\n      pop\n        /* \"#utility.yul\":911:952   */\n      tag_119\n        /* \"#utility.yul\":946:951   */\n      dup2\n        /* \"#utility.yul\":911:952   */\n      tag_63\n      jump\t// in\n    tag_119:\n        /* \"#utility.yul\":803:958   */\n      swap3\n      swap2\n      pop\n      pop\n      jump\t// out\n        /* \"#utility.yul\":964:1454   */\n    tag_9:\n        /* \"#utility.yul\":1040:1046   */\n      0x00\n        /* \"#utility.yul\":1048:1054   */\n      0x00\n        /* \"#utility.yul\":1097:1099   */\n      0x40\n        /* \"#utility.yul\":1085:1094   */\n      dup4\n        /* \"#utility.yul\":1076:1083   */\n      dup6\n        /* \"#utility.yul\":1072:1095   */\n      sub\n        /* \"#utility.yul\":1068:1100   */\n      slt\n        /* \"#utility.yul\":1065:1184   */\n      iszero\n      tag_121\n      jumpi\n        /* \"#utility.yul\":1103:1182   */\n      tag_122\n      tag_58\n      jump\t// in\n    tag_122:\n        /* \"#utility.yul\":1065:1184   */\n    tag_121:\n        /* \"#utility.yul\":1223:1224   */\n      0x00\n        /* \"#utility.yul\":1248:1301   */\n      tag_123\n        /* \"#utility.yul\":1293:1300   */\n      dup6\n        /* \"#utility.yul\":1284:1290   */\n      dup3\n        /* \"#utility.yul\":1273:1282   */\n      dup7\n        /* \"#utility.yul\":1269:1291   */\n      add\n        /* \"#utility.yul\":1248:1301   */\n      tag_62\n      jump\t// in\n    tag_123:\n        /* \"#utility.yul\":1238:1301   */\n      swap3\n      pop\n        /* \"#utility.yul\":1194:1311   */\n      pop\n        /* \"#utility.yul\":1350:1352   */\n      0x20\n        /* \"#utility.yul\":1376:1437   */\n      tag_124\n        /* \"#utility.yul\":1429:1436   */\n      dup6\n        /* \"#utility.yul\":1420:1426   */\n      dup3\n        /* \"#utility.yul\":1409:1418   */\n      dup7\n        /* \"#utility.yul\":1405:1427   */\n      add\n        /* \"#utility.yul\":1376:1437   */\n      tag_64\n      jump\t// in\n    tag_124:\n        /* \"#utility.yul\":1366:1437   */\n      swap2\n      pop\n        /* \"#utility.yul\":1321:1447   */\n      pop\n        /* \"#utility.yul\":964:1454   */\n      swap3\n      pop\n      swap3\n      swap1\n      pop\n      jump\t// out\n        /* \"#utility.yul\":1460:1789   */\n    tag_13:\n        /* \"#utility.yul\":1519:1525   */\n      0x00\n        /* \"#utility.yul\":1568:1570   */\n      0x20\n        /* \"#utility.yul\":1556:1565   */\n      dup3\n        /* \"#utility.yul\":1547:1554   */\n      dup5\n        /* \"#utility.yul\":1543:1566   */\n      sub\n        /* \"#utility.yul\":1539:1571   */\n      slt\n        /* \"#utility.yul\":1536:1655   */\n      iszero\n      tag_126\n      jumpi\n        /* \"#utility.yul\":1574:1653   */\n      tag_127\n      tag_58\n      jump\t// in\n    tag_127:\n        /* \"#utility.yul\":1536:1655   */\n    tag_126:\n        /* \"#utility.yul\":1694:1695   */\n      0x00\n        /* \"#utility.yul\":1719:1772   */\n      tag_128\n        /* \"#utility.yul\":1764:1771   */\n      dup5\n        /* \"#utility.yul\":1755:1761   */\n      dup3\n        /* \"#utility.yul\":1744:1753   */\n      dup6\n        /* \"#utility.yul\":1740:1762   */\n      add\n        /* \"#utility.yul\":1719:1772   */\n      tag_62\n      jump\t// in\n    tag_128:\n        /* \"#utility.yul\":1709:1772   */\n      swap2\n      pop\n        /* \"#utility.yul\":1665:1782   */\n      pop\n        /* \"#utility.yul\":1460:1789   */\n      swap3\n      swap2\n      pop\n      pop\n      jump\t// out\n        /* \"#utility.yul\":1795:1913   */\n    tag_65:\n        /* \"#utility.yul\":1882:1906   */\n      tag_130\n        /* \"#utility.yul\":1900:1905   */\n      dup2\n        /* \"#utility.yul\":1882:1906   */\n      tag_60\n      jump\t// in\n    tag_130:\n        /* \"#utility.yul\":1877:1880   */\n      dup3\n        /* \"#utility.yul\":1870:1907   */\n      mstore\n        /* \"#utility.yul\":1795:1913   */\n      pop\n      pop\n      jump\t// out\n        /* \"#utility.yul\":1919:2018   */\n    tag_66:\n        /* \"#utility.yul\":1971:1977   */\n      0x00\n        /* \"#utility.yul\":2005:2010   */\n      dup2\n        /* \"#utility.yul\":1999:2011   */\n      mload\n        /* \"#utility.yul\":1989:2011   */\n      swap1\n      pop\n        /* \"#utility.yul\":1919:2018   */\n      swap2\n      swap1\n      pop\n      jump\t// out\n        /* \"#utility.yul\":2024:2193   */\n    tag_67:\n        /* \"#utility.yul\":2108:2119   */\n      0x00\n        /* \"#utility.yul\":2142:2148   */\n      dup3\n        /* \"#utility.yul\":2137:2140   */\n      dup3\n        /* \"#utility.yul\":2130:2149   */\n      mstore\n        /* \"#utility.yul\":2182:2186   */\n      0x20\n        /* \"#utility.yul\":2177:2180   */\n      dup3\n        /* \"#utility.yul\":2173:2187   */\n      add\n        /* \"#utility.yul\":2158:2187   */\n      swap1\n      pop\n        /* \"#utility.yul\":2024:2193   */\n      swap3\n      swap2\n      pop\n      pop\n      jump\t// out\n        /* \"#utility.yul\":2199:2338   */\n    tag_68:\n        /* \"#utility.yul\":2288:2294   */\n      dup3\n        /* \"#utility.yul\":2283:2286   */\n      dup2\n        /* \"#utility.yul\":2278:2281   */\n      dup4\n        /* \"#utility.yul\":2272:2295   */\n      mcopy\n        /* \"#utility.yul\":2329:2330   */\n      0x00\n        /* \"#utility.yul\":2320:2326   */\n      dup4\n        /* \"#utility.yul\":2315:2318   */\n      dup4\n        /* \"#utility.yul\":2311:2327   */\n      add\n        /* \"#utility.yul\":2304:2331   */\n      mstore\n        /* \"#utility.yul\":2199:2338   */\n      pop\n      pop\n      pop\n      jump\t// out\n        /* \"#utility.yul\":2344:2446   */\n    tag_69:\n        /* \"#utility.yul\":2385:2391   */\n      0x00\n        /* \"#utility.yul\":2436:2438   */\n      0x1f\n        /* \"#utility.yul\":2432:2439   */\n      not\n        /* \"#utility.yul\":2427:2429   */\n      0x1f\n        /* \"#utility.yul\":2420:2425   */\n      dup4\n        /* \"#utility.yul\":2416:2430   */\n      add\n        /* \"#utility.yul\":2412:2440   */\n      and\n        /* \"#utility.yul\":2402:2440   */\n      swap1\n      pop\n        /* \"#utility.yul\":2344:2446   */\n      swap2\n      swap1\n      pop\n      jump\t// out\n        /* \"#utility.yul\":2452:2829   */\n    tag_70:\n        /* \"#utility.yul\":2540:2543   */\n      0x00\n        /* \"#utility.yul\":2568:2607   */\n      tag_136\n        /* \"#utility.yul\":2601:2606   */\n      dup3\n        /* \"#utility.yul\":2568:2607   */\n      tag_66\n      jump\t// in\n    tag_136:\n        /* \"#utility.yul\":2623:2694   */\n      tag_137\n        /* \"#utility.yul\":2687:2693   */\n      dup2\n        /* \"#utility.yul\":2682:2685   */\n      dup6\n        /* \"#utility.yul\":2623:2694   */\n      tag_67\n      jump\t// in\n    tag_137:\n        /* \"#utility.yul\":2616:2694   */\n      swap4\n      pop\n        /* \"#utility.yul\":2703:2768   */\n      tag_138\n        /* \"#utility.yul\":2761:2767   */\n      dup2\n        /* \"#utility.yul\":2756:2759   */\n      dup6\n        /* \"#utility.yul\":2749:2753   */\n      0x20\n        /* \"#utility.yul\":2742:2747   */\n      dup7\n        /* \"#utility.yul\":2738:2754   */\n      add\n        /* \"#utility.yul\":2703:2768   */\n      tag_68\n      jump\t// in\n    tag_138:\n        /* \"#utility.yul\":2793:2822   */\n      tag_139\n        /* \"#utility.yul\":2815:2821   */\n      dup2\n        /* \"#utility.yul\":2793:2822   */\n      tag_69\n      jump\t// in\n    tag_139:\n        /* \"#utility.yul\":2788:2791   */\n      dup5\n        /* \"#utility.yul\":2784:2823   */\n      add\n        /* \"#utility.yul\":2777:2823   */\n      swap2\n      pop\n        /* \"#utility.yul\":2544:2829   */\n      pop\n        /* \"#utility.yul\":2452:2829   */\n      swap3\n      swap2\n      pop\n      pop\n      jump\t// out\n        /* \"#utility.yul\":2835:2961   */\n    tag_71:\n        /* \"#utility.yul\":2872:2879   */\n      0x00\n        /* \"#utility.yul\":2912:2954   */\n      0xffffffffffffffffffffffffffffffffffffffff\n        /* \"#utility.yul\":2905:2910   */\n      dup3\n        /* \"#utility.yul\":2901:2955   */\n      and\n        /* \"#utility.yul\":2890:2955   */\n      swap1\n      pop\n        /* \"#utility.yul\":2835:2961   */\n      swap2\n      swap1\n      pop\n      jump\t// out\n        /* \"#utility.yul\":2967:3063   */\n    tag_72:\n        /* \"#utility.yul\":3004:3011   */\n      0x00\n        /* \"#utility.yul\":3033:3057   */\n      tag_142\n        /* \"#utility.yul\":3051:3056   */\n      dup3\n        /* \"#utility.yul\":3033:3057   */\n      tag_71\n      jump\t// in\n    tag_142:\n        /* \"#utility.yul\":3022:3057   */\n      swap1\n      pop\n        /* \"#utility.yul\":2967:3063   */\n      swap2\n      swap1\n      pop\n      jump\t// out\n        /* \"#utility.yul\":3069:3187   */\n    tag_73:\n        /* \"#utility.yul\":3156:3180   */\n      tag_144\n        /* \"#utility.yul\":3174:3179   */\n      dup2\n        /* \"#utility.yul\":3156:3180   */\n      tag_72\n      jump\t// in\n    tag_144:\n        /* \"#utility.yul\":3151:3154   */\n      dup3\n        /* \"#utility.yul\":3144:3181   */\n      mstore\n        /* \"#utility.yul\":3069:3187   */\n      pop\n      pop\n      jump\t// out\n        /* \"#utility.yul\":3193:3373   */\n    tag_31:\n        /* \"#utility.yul\":3241:3318   */\n      0x4e487b7100000000000000000000000000000000000000000000000000000000\n        /* \"#utility.yul\":3238:3239   */\n      0x00\n        /* \"#utility.yul\":3231:3319   */\n      mstore\n        /* \"#utility.yul\":3338:3342   */\n      0x21\n        /* \"#utility.yul\":3335:3336   */\n      0x04\n        /* \"#utility.yul\":3328:3343   */\n      mstore\n        /* \"#utility.yul\":3362:3366   */\n      0x24\n        /* \"#utility.yul\":3359:3360   */\n      0x00\n        /* \"#utility.yul\":3352:3367   */\n      revert\n        /* \"#utility.yul\":3379:3492   */\n    tag_74:\n        /* \"#utility.yul\":3460:3461   */\n      0x03\n        /* \"#utility.yul\":3453:3458   */\n      dup2\n        /* \"#utility.yul\":3450:3462   */\n      lt\n        /* \"#utility.yul\":3440:3486   */\n      tag_147\n      jumpi\n        /* \"#utility.yul\":3466:3484   */\n      tag_148\n      tag_31\n      jump\t// in\n    tag_148:\n        /* \"#utility.yul\":3440:3486   */\n    tag_147:\n        /* \"#utility.yul\":3379:3492   */\n      pop\n      jump\t// out\n        /* \"#utility.yul\":3498:3625   */\n    tag_75:\n        /* \"#utility.yul\":3543:3550   */\n      0x00\n        /* \"#utility.yul\":3572:3577   */\n      dup2\n        /* \"#utility.yul\":3561:3577   */\n      swap1\n      pop\n        /* \"#utility.yul\":3578:3619   */\n      tag_150\n        /* \"#utility.yul\":3613:3618   */\n      dup3\n        /* \"#utility.yul\":3578:3619   */\n      tag_74\n      jump\t// in\n    tag_150:\n        /* \"#utility.yul\":3498:3625   */\n      swap2\n      swap1\n      pop\n      jump\t// out\n        /* \"#utility.yul\":3631:3758   */\n    tag_76:\n        /* \"#utility.yul\":3687:3696   */\n      0x00\n        /* \"#utility.yul\":3720:3752   */\n      tag_152\n        /* \"#utility.yul\":3746:3751   */\n      dup3\n        /* \"#utility.yul\":3720:3752   */\n      tag_75\n      jump\t// in\n    tag_152:\n        /* \"#utility.yul\":3707:3752   */\n      swap1\n      pop\n        /* \"#utility.yul\":3631:3758   */\n      swap2\n      swap1\n      pop\n      jump\t// out\n        /* \"#utility.yul\":3764:3907   */\n    tag_77:\n        /* \"#utility.yul\":3857:3900   */\n      tag_154\n        /* \"#utility.yul\":3894:3899   */\n      dup2\n        /* \"#utility.yul\":3857:3900   */\n      tag_76\n      jump\t// in\n    tag_154:\n        /* \"#utility.yul\":3852:3855   */\n      dup3\n        /* \"#utility.yul\":3845:3901   */\n      mstore\n        /* \"#utility.yul\":3764:3907   */\n      pop\n      pop\n      jump\t// out\n        /* \"#utility.yul\":3913:4882   */\n    tag_16:\n        /* \"#utility.yul\":4192:4196   */\n      0x00\n        /* \"#utility.yul\":4230:4233   */\n      0xc0\n        /* \"#utility.yul\":4219:4228   */\n      dup3\n        /* \"#utility.yul\":4215:4234   */\n      add\n        /* \"#utility.yul\":4207:4234   */\n      swap1\n      pop\n        /* \"#utility.yul\":4244:4315   */\n      tag_156\n        /* \"#utility.yul\":4312:4313   */\n      0x00\n        /* \"#utility.yul\":4301:4310   */\n      dup4\n        /* \"#utility.yul\":4297:4314   */\n      add\n        /* \"#utility.yul\":4288:4294   */\n      dup10\n        /* \"#utility.yul\":4244:4315   */\n      tag_65\n      jump\t// in\n    tag_156:\n        /* \"#utility.yul\":4362:4371   */\n      dup2\n        /* \"#utility.yul\":4356:4360   */\n      dup2\n        /* \"#utility.yul\":4352:4372   */\n      sub\n        /* \"#utility.yul\":4347:4349   */\n      0x20\n        /* \"#utility.yul\":4336:4345   */\n      dup4\n        /* \"#utility.yul\":4332:4350   */\n      add\n        /* \"#utility.yul\":4325:4373   */\n      mstore\n        /* \"#utility.yul\":4390:4468   */\n      tag_157\n        /* \"#utility.yul\":4463:4467   */\n      dup2\n        /* \"#utility.yul\":4454:4460   */\n      dup9\n        /* \"#utility.yul\":4390:4468   */\n      tag_70\n      jump\t// in\n    tag_157:\n        /* \"#utility.yul\":4382:4468   */\n      swap1\n      pop\n        /* \"#utility.yul\":4515:4524   */\n      dup2\n        /* \"#utility.yul\":4509:4513   */\n      dup2\n        /* \"#utility.yul\":4505:4525   */\n      sub\n        /* \"#utility.yul\":4500:4502   */\n      0x40\n        /* \"#utility.yul\":4489:4498   */\n      dup4\n        /* \"#utility.yul\":4485:4503   */\n      add\n        /* \"#utility.yul\":4478:4526   */\n      mstore\n        /* \"#utility.yul\":4543:4621   */\n      tag_158\n        /* \"#utility.yul\":4616:4620   */\n      dup2\n        /* \"#utility.yul\":4607:4613   */\n      dup8\n        /* \"#utility.yul\":4543:4621   */\n      tag_70\n      jump\t// in\n    tag_158:\n        /* \"#utility.yul\":4535:4621   */\n      swap1\n      pop\n        /* \"#utility.yul\":4631:4703   */\n      tag_159\n        /* \"#utility.yul\":4699:4701   */\n      0x60\n        /* \"#utility.yul\":4688:4697   */\n      dup4\n        /* \"#utility.yul\":4684:4702   */\n      add\n        /* \"#utility.yul\":4675:4681   */\n      dup7\n        /* \"#utility.yul\":4631:4703   */\n      tag_73\n      jump\t// in\n    tag_159:\n        /* \"#utility.yul\":4713:4792   */\n      tag_160\n        /* \"#utility.yul\":4787:4790   */\n      0x80\n        /* \"#utility.yul\":4776:4785   */\n      dup4\n        /* \"#utility.yul\":4772:4791   */\n      add\n        /* \"#utility.yul\":4763:4769   */\n      dup6\n        /* \"#utility.yul\":4713:4792   */\n      tag_77\n      jump\t// in\n    tag_160:\n        /* \"#utility.yul\":4802:4875   */\n      tag_161\n        /* \"#utility.yul\":4870:4873   */\n      0xa0\n        /* \"#utility.yul\":4859:4868   */\n      dup4\n        /* \"#utility.yul\":4855:4874   */\n      add\n        /* \"#utility.yul\":4846:4852   */\n      dup5\n        /* \"#utility.yul\":4802:4875   */\n      tag_65\n      jump\t// in\n    tag_161:\n        /* \"#utility.yul\":3913:4882   */\n      swap8\n      swap7\n      pop\n      pop\n      pop\n      pop\n      pop\n      pop\n      pop\n      jump\t// out\n        /* \"#utility.yul\":4888:5005   */\n    tag_78:\n        /* \"#utility.yul\":4997:4998   */\n      0x00\n        /* \"#utility.yul\":4994:4995   */\n      0x00\n        /* \"#utility.yul\":4987:4999   */\n      revert\n        /* \"#utility.yul\":5011:5128   */\n    tag_79:\n        /* \"#utility.yul\":5120:5121   */\n      0x00\n        /* \"#utility.yul\":5117:5118   */\n      0x00\n        /* \"#utility.yul\":5110:5122   */\n      revert\n        /* \"#utility.yul\":5134:5314   */\n    tag_80:\n        /* \"#utility.yul\":5182:5259   */\n      0x4e487b7100000000000000000000000000000000000000000000000000000000\n        /* \"#utility.yul\":5179:5180   */\n      0x00\n        /* \"#utility.yul\":5172:5260   */\n      mstore\n        /* \"#utility.yul\":5279:5283   */\n      0x41\n        /* \"#utility.yul\":5276:5277   */\n      0x04\n        /* \"#utility.yul\":5269:5284   */\n      mstore\n        /* \"#utility.yul\":5303:5307   */\n      0x24\n        /* \"#utility.yul\":5300:5301   */\n      0x00\n        /* \"#utility.yul\":5293:5308   */\n      revert\n        /* \"#utility.yul\":5320:5601   */\n    tag_81:\n        /* \"#utility.yul\":5403:5430   */\n      tag_166\n        /* \"#utility.yul\":5425:5429   */\n      dup3\n        /* \"#utility.yul\":5403:5430   */\n      tag_69\n      jump\t// in\n    tag_166:\n        /* \"#utility.yul\":5395:5401   */\n      dup2\n        /* \"#utility.yul\":5391:5431   */\n      add\n        /* \"#utility.yul\":5533:5539   */\n      dup2\n        /* \"#utility.yul\":5521:5531   */\n      dup2\n        /* \"#utility.yul\":5518:5540   */\n      lt\n        /* \"#utility.yul\":5497:5515   */\n      0xffffffffffffffff\n        /* \"#utility.yul\":5485:5495   */\n      dup3\n        /* \"#utility.yul\":5482:5516   */\n      gt\n        /* \"#utility.yul\":5479:5541   */\n      or\n        /* \"#utility.yul\":5476:5564   */\n      iszero\n      tag_167\n      jumpi\n        /* \"#utility.yul\":5544:5562   */\n      tag_168\n      tag_80\n      jump\t// in\n    tag_168:\n        /* \"#utility.yul\":5476:5564   */\n    tag_167:\n        /* \"#utility.yul\":5584:5594   */\n      dup1\n        /* \"#utility.yul\":5580:5582   */\n      0x40\n        /* \"#utility.yul\":5573:5595   */\n      mstore\n        /* \"#utility.yul\":5363:5601   */\n      pop\n        /* \"#utility.yul\":5320:5601   */\n      pop\n      pop\n      jump\t// out\n        /* \"#utility.yul\":5607:5736   */\n    tag_82:\n        /* \"#utility.yul\":5641:5647   */\n      0x00\n        /* \"#utility.yul\":5668:5688   */\n      tag_170\n      tag_57\n      jump\t// in\n    tag_170:\n        /* \"#utility.yul\":5658:5688   */\n      swap1\n      pop\n        /* \"#utility.yul\":5697:5730   */\n      tag_171\n        /* \"#utility.yul\":5725:5729   */\n      dup3\n        /* \"#utility.yul\":5717:5723   */\n      dup3\n        /* \"#utility.yul\":5697:5730   */\n      tag_81\n      jump\t// in\n    tag_171:\n        /* \"#utility.yul\":5607:5736   */\n      swap2\n      swap1\n      pop\n      jump\t// out\n        /* \"#utility.yul\":5742:6050   */\n    tag_83:\n        /* \"#utility.yul\":5804:5808   */\n      0x00\n        /* \"#utility.yul\":5894:5912   */\n      0xffffffffffffffff\n        /* \"#utility.yul\":5886:5892   */\n      dup3\n        /* \"#utility.yul\":5883:5913   */\n      gt\n        /* \"#utility.yul\":5880:5936   */\n      iszero\n      tag_173\n      jumpi\n        /* \"#utility.yul\":5916:5934   */\n      tag_174\n      tag_80\n      jump\t// in\n    tag_174:\n        /* \"#utility.yul\":5880:5936   */\n    tag_173:\n        /* \"#utility.yul\":5954:5983   */\n      tag_175\n        /* \"#utility.yul\":5976:5982   */\n      dup3\n        /* \"#utility.yul\":5954:5983   */\n      tag_69\n      jump\t// in\n    tag_175:\n        /* \"#utility.yul\":5946:5983   */\n      swap1\n      pop\n        /* \"#utility.yul\":6038:6042   */\n      0x20\n        /* \"#utility.yul\":6032:6036   */\n      dup2\n        /* \"#utility.yul\":6028:6043   */\n      add\n        /* \"#utility.yul\":6020:6043   */\n      swap1\n      pop\n        /* \"#utility.yul\":5742:6050   */\n      swap2\n      swap1\n      pop\n      jump\t// out\n        /* \"#utility.yul\":6056:6204   */\n    tag_84:\n        /* \"#utility.yul\":6154:6160   */\n      dup3\n        /* \"#utility.yul\":6149:6152   */\n      dup2\n        /* \"#utility.yul\":6144:6147   */\n      dup4\n        /* \"#utility.yul\":6131:6161   */\n      calldatacopy\n        /* \"#utility.yul\":6195:6196   */\n      0x00\n        /* \"#utility.yul\":6186:6192   */\n      dup4\n        /* \"#utility.yul\":6181:6184   */\n      dup4\n        /* \"#utility.yul\":6177:6193   */\n      add\n        /* \"#utility.yul\":6170:6197   */\n      mstore\n        /* \"#utility.yul\":6056:6204   */\n      pop\n      pop\n      pop\n      jump\t// out\n        /* \"#utility.yul\":6210:6635   */\n    tag_85:\n        /* \"#utility.yul\":6288:6293   */\n      0x00\n        /* \"#utility.yul\":6313:6379   */\n      tag_178\n        /* \"#utility.yul\":6329:6378   */\n      tag_179\n        /* \"#utility.yul\":6371:6377   */\n      dup5\n        /* \"#utility.yul\":6329:6378   */\n      tag_83\n      jump\t// in\n    tag_179:\n        /* \"#utility.yul\":6313:6379   */\n      tag_82\n      jump\t// in\n    tag_178:\n        /* \"#utility.yul\":6304:6379   */\n      swap1\n      pop\n        /* \"#utility.yul\":6402:6408   */\n      dup3\n        /* \"#utility.yul\":6395:6400   */\n      dup2\n        /* \"#utility.yul\":6388:6409   */\n      mstore\n        /* \"#utility.yul\":6440:6444   */\n      0x20\n        /* \"#utility.yul\":6433:6438   */\n      dup2\n        /* \"#utility.yul\":6429:6445   */\n      add\n        /* \"#utility.yul\":6478:6481   */\n      dup5\n        /* \"#utility.yul\":6469:6475   */\n      dup5\n        /* \"#utility.yul\":6464:6467   */\n      dup5\n        /* \"#utility.yul\":6460:6476   */\n      add\n        /* \"#utility.yul\":6457:6482   */\n      gt\n        /* \"#utility.yul\":6454:6566   */\n      iszero\n      tag_180\n      jumpi\n        /* \"#utility.yul\":6485:6564   */\n      tag_181\n      tag_79\n      jump\t// in\n    tag_181:\n        /* \"#utility.yul\":6454:6566   */\n    tag_180:\n        /* \"#utility.yul\":6575:6629   */\n      tag_182\n        /* \"#utility.yul\":6622:6628   */\n      dup5\n        /* \"#utility.yul\":6617:6620   */\n      dup3\n        /* \"#utility.yul\":6612:6615   */\n      dup6\n        /* \"#utility.yul\":6575:6629   */\n      tag_84\n      jump\t// in\n    tag_182:\n        /* \"#utility.yul\":6294:6635   */\n      pop\n        /* \"#utility.yul\":6210:6635   */\n      swap4\n      swap3\n      pop\n      pop\n      pop\n      jump\t// out\n        /* \"#utility.yul\":6655:6995   */\n    tag_86:\n        /* \"#utility.yul\":6711:6716   */\n      0x00\n        /* \"#utility.yul\":6760:6763   */\n      dup3\n        /* \"#utility.yul\":6753:6757   */\n      0x1f\n        /* \"#utility.yul\":6745:6751   */\n      dup4\n        /* \"#utility.yul\":6741:6758   */\n      add\n        /* \"#utility.yul\":6737:6764   */\n      slt\n        /* \"#utility.yul\":6727:6849   */\n      tag_184\n      jumpi\n        /* \"#utility.yul\":6768:6847   */\n      tag_185\n      tag_78\n      jump\t// in\n    tag_185:\n        /* \"#utility.yul\":6727:6849   */\n    tag_184:\n        /* \"#utility.yul\":6885:6891   */\n      dup2\n        /* \"#utility.yul\":6872:6892   */\n      calldataload\n        /* \"#utility.yul\":6910:6989   */\n      tag_186\n        /* \"#utility.yul\":6985:6988   */\n      dup5\n        /* \"#utility.yul\":6977:6983   */\n      dup3\n        /* \"#utility.yul\":6970:6974   */\n      0x20\n        /* \"#utility.yul\":6962:6968   */\n      dup7\n        /* \"#utility.yul\":6958:6975   */\n      add\n        /* \"#utility.yul\":6910:6989   */\n      tag_85\n      jump\t// in\n    tag_186:\n        /* \"#utility.yul\":6901:6989   */\n      swap2\n      pop\n        /* \"#utility.yul\":6717:6995   */\n      pop\n        /* \"#utility.yul\":6655:6995   */\n      swap3\n      swap2\n      pop\n      pop\n      jump\t// out\n        /* \"#utility.yul\":7001:7835   */\n    tag_19:\n        /* \"#utility.yul\":7089:7095   */\n      0x00\n        /* \"#utility.yul\":7097:7103   */\n      0x00\n        /* \"#utility.yul\":7146:7148   */\n      0x40\n        /* \"#utility.yul\":7134:7143   */\n      dup4\n        /* \"#utility.yul\":7125:7132   */\n      dup6\n        /* \"#utility.yul\":7121:7144   */\n      sub\n        /* \"#utility.yul\":7117:7149   */\n      slt\n        /* \"#utility.yul\":7114:7233   */\n      iszero\n      tag_188\n      jumpi\n        /* \"#utility.yul\":7152:7231   */\n      tag_189\n      tag_58\n      jump\t// in\n    tag_189:\n        /* \"#utility.yul\":7114:7233   */\n    tag_188:\n        /* \"#utility.yul\":7300:7301   */\n      0x00\n        /* \"#utility.yul\":7289:7298   */\n      dup4\n        /* \"#utility.yul\":7285:7302   */\n      add\n        /* \"#utility.yul\":7272:7303   */\n      calldataload\n        /* \"#utility.yul\":7330:7348   */\n      0xffffffffffffffff\n        /* \"#utility.yul\":7322:7328   */\n      dup2\n        /* \"#utility.yul\":7319:7349   */\n      gt\n        /* \"#utility.yul\":7316:7433   */\n      iszero\n      tag_190\n      jumpi\n        /* \"#utility.yul\":7352:7431   */\n      tag_191\n      tag_59\n      jump\t// in\n    tag_191:\n        /* \"#utility.yul\":7316:7433   */\n    tag_190:\n        /* \"#utility.yul\":7457:7520   */\n      tag_192\n        /* \"#utility.yul\":7512:7519   */\n      dup6\n        /* \"#utility.yul\":7503:7509   */\n      dup3\n        /* \"#utility.yul\":7492:7501   */\n      dup7\n        /* \"#utility.yul\":7488:7510   */\n      add\n        /* \"#utility.yul\":7457:7520   */\n      tag_86\n      jump\t// in\n    tag_192:\n        /* \"#utility.yul\":7447:7520   */\n      swap3\n      pop\n        /* \"#utility.yul\":7243:7530   */\n      pop\n        /* \"#utility.yul\":7597:7599   */\n      0x20\n        /* \"#utility.yul\":7586:7595   */\n      dup4\n        /* \"#utility.yul\":7582:7600   */\n      add\n        /* \"#utility.yul\":7569:7601   */\n      calldataload\n        /* \"#utility.yul\":7628:7646   */\n      0xffffffffffffffff\n        /* \"#utility.yul\":7620:7626   */\n      dup2\n        /* \"#utility.yul\":7617:7647   */\n      gt\n        /* \"#utility.yul\":7614:7731   */\n      iszero\n      tag_193\n      jumpi\n        /* \"#utility.yul\":7650:7729   */\n      tag_194\n      tag_59\n      jump\t// in\n    tag_194:\n        /* \"#utility.yul\":7614:7731   */\n    tag_193:\n        /* \"#utility.yul\":7755:7818   */\n      tag_195\n        /* \"#utility.yul\":7810:7817   */\n      dup6\n        /* \"#utility.yul\":7801:7807   */\n      dup3\n        /* \"#utility.yul\":7790:7799   */\n      dup7\n        /* \"#utility.yul\":7786:7808   */\n      add\n        /* \"#utility.yul\":7755:7818   */\n      tag_86\n      jump\t// in\n    tag_195:\n        /* \"#utility.yul\":7745:7818   */\n      swap2\n      pop\n        /* \"#utility.yul\":7540:7828   */\n      pop\n        /* \"#utility.yul\":7001:7835   */\n      swap3\n      pop\n      swap3\n      swap1\n      pop\n      jump\t// out\n        /* \"#utility.yul\":7841:8063   */\n    tag_24:\n        /* \"#utility.yul\":7934:7938   */\n      0x00\n        /* \"#utility.yul\":7972:7974   */\n      0x20\n        /* \"#utility.yul\":7961:7970   */\n      dup3\n        /* \"#utility.yul\":7957:7975   */\n      add\n        /* \"#utility.yul\":7949:7975   */\n      swap1\n      pop\n        /* \"#utility.yul\":7985:8056   */\n      tag_197\n        /* \"#utility.yul\":8053:8054   */\n      0x00\n        /* \"#utility.yul\":8042:8051   */\n      dup4\n        /* \"#utility.yul\":8038:8055   */\n      add\n        /* \"#utility.yul\":8029:8035   */\n      dup5\n        /* \"#utility.yul\":7985:8056   */\n      tag_65\n      jump\t// in\n    tag_197:\n        /* \"#utility.yul\":7841:8063   */\n      swap3\n      swap2\n      pop\n      pop\n      jump\t// out\n        /* \"#utility.yul\":8069:8241   */\n    tag_87:\n        /* \"#utility.yul\":8209:8233   */\n      0x50726f6475637420646f6573206e6f7420657869737400000000000000000000\n        /* \"#utility.yul\":8205:8206   */\n      0x00\n        /* \"#utility.yul\":8197:8203   */\n      dup3\n        /* \"#utility.yul\":8193:8207   */\n      add\n        /* \"#utility.yul\":8186:8234   */\n      mstore\n        /* \"#utility.yul\":8069:8241   */\n      pop\n      jump\t// out\n        /* \"#utility.yul\":8247:8613   */\n    tag_88:\n        /* \"#utility.yul\":8389:8392   */\n      0x00\n        /* \"#utility.yul\":8410:8477   */\n      tag_200\n        /* \"#utility.yul\":8474:8476   */\n      0x16\n        /* \"#utility.yul\":8469:8472   */\n      dup4\n        /* \"#utility.yul\":8410:8477   */\n      tag_67\n      jump\t// in\n    tag_200:\n        /* \"#utility.yul\":8403:8477   */\n      swap2\n      pop\n        /* \"#utility.yul\":8486:8579   */\n      tag_201\n        /* \"#utility.yul\":8575:8578   */\n      dup3\n        /* \"#utility.yul\":8486:8579   */\n      tag_87\n      jump\t// in\n    tag_201:\n        /* \"#utility.yul\":8604:8606   */\n      0x20\n        /* \"#utility.yul\":8599:8602   */\n      dup3\n        /* \"#utility.yul\":8595:8607   */\n      add\n        /* \"#utility.yul\":8588:8607   */\n      swap1\n      pop\n        /* \"#utility.yul\":8247:8613   */\n      swap2\n      swap1\n      pop\n      jump\t// out\n        /* \"#utility.yul\":8619:9038   */\n    tag_28:\n        /* \"#utility.yul\":8785:8789   */\n      0x00\n        /* \"#utility.yul\":8823:8825   */\n      0x20\n        /* \"#utility.yul\":8812:8821   */\n      dup3\n        /* \"#utility.yul\":8808:8826   */\n      add\n        /* \"#utility.yul\":8800:8826   */\n      swap1\n      pop\n        /* \"#utility.yul\":8872:8881   */\n      dup2\n        /* \"#utility.yul\":8866:8870   */\n      dup2\n        /* \"#utility.yul\":8862:8882   */\n      sub\n        /* \"#utility.yul\":8858:8859   */\n      0x00\n        /* \"#utility.yul\":8847:8856   */\n      dup4\n        /* \"#utility.yul\":8843:8860   */\n      add\n        /* \"#utility.yul\":8836:8883   */\n      mstore\n        /* \"#utility.yul\":8900:9031   */\n      tag_203\n        /* \"#utility.yul\":9026:9030   */\n      dup2\n        /* \"#utility.yul\":8900:9031   */\n      tag_88\n      jump\t// in\n    tag_203:\n        /* \"#utility.yul\":8892:9031   */\n      swap1\n      pop\n        /* \"#utility.yul\":8619:9038   */\n      swap2\n      swap1\n      pop\n      jump\t// out\n        /* \"#utility.yul\":9044:9388   */\n    tag_33:\n        /* \"#utility.yul\":9171:9175   */\n      0x00\n        /* \"#utility.yul\":9209:9211   */\n      0x40\n        /* \"#utility.yul\":9198:9207   */\n      dup3\n        /* \"#utility.yul\":9194:9212   */\n      add\n        /* \"#utility.yul\":9186:9212   */\n      swap1\n      pop\n        /* \"#utility.yul\":9222:9293   */\n      tag_205\n        /* \"#utility.yul\":9290:9291   */\n      0x00\n        /* \"#utility.yul\":9279:9288   */\n      dup4\n        /* \"#utility.yul\":9275:9292   */\n      add\n        /* \"#utility.yul\":9266:9272   */\n      dup6\n        /* \"#utility.yul\":9222:9293   */\n      tag_65\n      jump\t// in\n    tag_205:\n        /* \"#utility.yul\":9303:9381   */\n      tag_206\n        /* \"#utility.yul\":9377:9379   */\n      0x20\n        /* \"#utility.yul\":9366:9375   */\n      dup4\n        /* \"#utility.yul\":9362:9380   */\n      add\n        /* \"#utility.yul\":9353:9359   */\n      dup5\n        /* \"#utility.yul\":9303:9381   */\n      tag_77\n      jump\t// in\n    tag_206:\n        /* \"#utility.yul\":9044:9388   */\n      swap4\n      swap3\n      pop\n      pop\n      pop\n      jump\t// out\n        /* \"#utility.yul\":9394:9574   */\n    tag_89:\n        /* \"#utility.yul\":9442:9519   */\n      0x4e487b7100000000000000000000000000000000000000000000000000000000\n        /* \"#utility.yul\":9439:9440   */\n      0x00\n        /* \"#utility.yul\":9432:9520   */\n      mstore\n        /* \"#utility.yul\":9539:9543   */\n      0x22\n        /* \"#utility.yul\":9536:9537   */\n      0x04\n        /* \"#utility.yul\":9529:9544   */\n      mstore\n        /* \"#utility.yul\":9563:9567   */\n      0x24\n        /* \"#utility.yul\":9560:9561   */\n      0x00\n        /* \"#utility.yul\":9553:9568   */\n      revert\n        /* \"#utility.yul\":9580:9900   */\n    tag_35:\n        /* \"#utility.yul\":9624:9630   */\n      0x00\n        /* \"#utility.yul\":9661:9662   */\n      0x02\n        /* \"#utility.yul\":9655:9659   */\n      dup3\n        /* \"#utility.yul\":9651:9663   */\n      div\n        /* \"#utility.yul\":9641:9663   */\n      swap1\n      pop\n        /* \"#utility.yul\":9708:9709   */\n      0x01\n        /* \"#utility.yul\":9702:9706   */\n      dup3\n        /* \"#utility.yul\":9698:9710   */\n      and\n        /* \"#utility.yul\":9729:9747   */\n      dup1\n        /* \"#utility.yul\":9719:9800   */\n      tag_209\n      jumpi\n        /* \"#utility.yul\":9785:9789   */\n      0x7f\n        /* \"#utility.yul\":9777:9783   */\n      dup3\n        /* \"#utility.yul\":9773:9790   */\n      and\n        /* \"#utility.yul\":9763:9790   */\n      swap2\n      pop\n        /* \"#utility.yul\":9719:9800   */\n    tag_209:\n        /* \"#utility.yul\":9847:9849   */\n      0x20\n        /* \"#utility.yul\":9839:9845   */\n      dup3\n        /* \"#utility.yul\":9836:9850   */\n      lt\n        /* \"#utility.yul\":9816:9834   */\n      dup2\n        /* \"#utility.yul\":9813:9851   */\n      sub\n        /* \"#utility.yul\":9810:9894   */\n      tag_210\n      jumpi\n        /* \"#utility.yul\":9866:9884   */\n      tag_211\n      tag_89\n      jump\t// in\n    tag_211:\n        /* \"#utility.yul\":9810:9894   */\n    tag_210:\n        /* \"#utility.yul\":9631:9900   */\n      pop\n        /* \"#utility.yul\":9580:9900   */\n      swap2\n      swap1\n      pop\n      jump\t// out\n        /* \"#utility.yul\":9906:10086   */\n    tag_90:\n        /* \"#utility.yul\":9954:10031   */\n      0x4e487b7100000000000000000000000000000000000000000000000000000000\n        /* \"#utility.yul\":9951:9952   */\n      0x00\n        /* \"#utility.yul\":9944:10032   */\n      mstore\n        /* \"#utility.yul\":10051:10055   */\n      0x11\n        /* \"#utility.yul\":10048:10049   */\n      0x04\n        /* \"#utility.yul\":10041:10056   */\n      mstore\n        /* \"#utility.yul\":10075:10079   */\n      0x24\n        /* \"#utility.yul\":10072:10073   */\n      0x00\n        /* \"#utility.yul\":10065:10080   */\n      revert\n        /* \"#utility.yul\":10092:10325   */\n    tag_47:\n        /* \"#utility.yul\":10131:10134   */\n      0x00\n        /* \"#utility.yul\":10154:10178   */\n      tag_214\n        /* \"#utility.yul\":10172:10177   */\n      dup3\n        /* \"#utility.yul\":10154:10178   */\n      tag_60\n      jump\t// in\n    tag_214:\n        /* \"#utility.yul\":10145:10178   */\n      swap2\n      pop\n        /* \"#utility.yul\":10200:10266   */\n      0xffffffffffffffffffffffffffffffffffffffffffffffffffffffffffffffff\n        /* \"#utility.yul\":10193:10198   */\n      dup3\n        /* \"#utility.yul\":10190:10267   */\n      sub\n        /* \"#utility.yul\":10187:10290   */\n      tag_215\n      jumpi\n        /* \"#utility.yul\":10270:10288   */\n      tag_216\n      tag_90\n      jump\t// in\n    tag_216:\n        /* \"#utility.yul\":10187:10290   */\n    tag_215:\n        /* \"#utility.yul\":10317:10318   */\n      0x01\n        /* \"#utility.yul\":10310:10315   */\n      dup3\n        /* \"#utility.yul\":10306:10319   */\n      add\n        /* \"#utility.yul\":10299:10319   */\n      swap1\n      pop\n        /* \"#utility.yul\":10092:10325   */\n      swap2\n      swap1\n      pop\n      jump\t// out\n        /* \"#utility.yul\":10331:10472   */\n    tag_91:\n        /* \"#utility.yul\":10380:10384   */\n      0x00\n        /* \"#utility.yul\":10403:10406   */\n      dup2\n        /* \"#utility.yul\":10395:10406   */\n      swap1\n      pop\n        /* \"#utility.yul\":10426:10429   */\n      dup2\n        /* \"#utility.yul\":10423:10424   */\n      0x00\n        /* \"#utility.yul\":10416:10430   */\n      mstore\n        /* \"#utility.yul\":10460:10464   */\n      0x20\n        /* \"#utility.yul\":10457:10458   */\n      0x00\n        /* \"#utility.yul\":10447:10465   */\n      keccak256\n        /* \"#utility.yul\":10439:10465   */\n      swap1\n      pop\n        /* \"#utility.yul\":10331:10472   */\n      swap2\n      swap1\n      pop\n      jump\t// out\n        /* \"#utility.yul\":10478:10571   */\n    tag_92:\n        /* \"#utility.yul\":10515:10521   */\n      0x00\n        /* \"#utility.yul\":10562:10564   */\n      0x20\n        /* \"#utility.yul\":10557:10559   */\n      0x1f\n        /* \"#utility.yul\":10550:10555   */\n      dup4\n        /* \"#utility.yul\":10546:10560   */\n      add\n        /* \"#utility.yul\":10542:10565   */\n      div\n        /* \"#utility.yul\":10532:10565   */\n      swap1\n      pop\n        /* \"#utility.yul\":10478:10571   */\n      swap2\n      swap1\n      pop\n      jump\t// out\n        /* \"#utility.yul\":10577:10684   */\n    tag_93:\n        /* \"#utility.yul\":10621:10629   */\n      0x00\n        /* \"#utility.yul\":10671:10676   */\n      dup3\n        /* \"#utility.yul\":10665:10669   */\n      dup3\n        /* \"#utility.yul\":10661:10677   */\n      shl\n        /* \"#utility.yul\":10640:10677   */\n      swap1\n      pop\n        /* \"#utility.yul\":10577:10684   */\n      swap3\n      swap2\n      pop\n      pop\n      jump\t// out\n        /* \"#utility.yul\":10690:11083   */\n    tag_94:\n        /* \"#utility.yul\":10759:10765   */\n      0x00\n        /* \"#utility.yul\":10809:10810   */\n      0x08\n        /* \"#utility.yul\":10797:10807   */\n      dup4\n        /* \"#utility.yul\":10793:10811   */\n      mul\n        /* \"#utility.yul\":10832:10929   */\n      tag_221\n        /* \"#utility.yul\":10862:10928   */\n      0xffffffffffffffffffffffffffffffffffffffffffffffffffffffffffffffff\n        /* \"#utility.yul\":10851:10860   */\n      dup3\n        /* \"#utility.yul\":10832:10929   */\n      tag_93\n      jump\t// in\n    tag_221:\n        /* \"#utility.yul\":10950:10989   */\n      tag_222\n        /* \"#utility.yul\":10980:10988   */\n      dup7\n        /* \"#utility.yul\":10969:10978   */\n      dup4\n        /* \"#utility.yul\":10950:10989   */\n      tag_93\n      jump\t// in\n    tag_222:\n        /* \"#utility.yul\":10938:10989   */\n      swap6\n      pop\n        /* \"#utility.yul\":11022:11026   */\n      dup1\n        /* \"#utility.yul\":11018:11027   */\n      not\n        /* \"#utility.yul\":11011:11016   */\n      dup5\n        /* \"#utility.yul\":11007:11028   */\n      and\n        /* \"#utility.yul\":10998:11028   */\n      swap4\n      pop\n        /* \"#utility.yul\":11071:11075   */\n      dup1\n        /* \"#utility.yul\":11061:11069   */\n      dup7\n        /* \"#utility.yul\":11057:11076   */\n      and\n        /* \"#utility.yul\":11050:11055   */\n      dup5\n        /* \"#utility.yul\":11047:11077   */\n      or\n        /* \"#utility.yul\":11037:11077   */\n      swap3\n      pop\n        /* \"#utility.yul\":10766:11083   */\n      pop\n      pop\n        /* \"#utility.yul\":10690:11083   */\n      swap4\n      swap3\n      pop\n      pop\n      pop\n      jump\t// out\n        /* \"#utility.yul\":11089:11149   */\n    tag_95:\n        /* \"#utility.yul\":11117:11120   */\n      0x00\n        /* \"#utility.yul\":11138:11143   */\n      dup2\n        /* \"#utility.yul\":11131:11143   */\n      swap1\n      pop\n        /* \"#utility.yul\":11089:11149   */\n      swap2\n      swap1\n      pop\n      jump\t// out\n        /* \"#utility.yul\":11155:11297   */\n    tag_96:\n        /* \"#utility.yul\":11205:11214   */\n      0x00\n        /* \"#utility.yul\":11238:11291   */\n      tag_225\n        /* \"#utility.yul\":11256:11290   */\n      tag_226\n        /* \"#utility.yul\":11265:11289   */\n      tag_227\n        /* \"#utility.yul\":11283:11288   */\n      dup5\n        /* \"#utility.yul\":11265:11289   */\n      tag_60\n      jump\t// in\n    tag_227:\n        /* \"#utility.yul\":11256:11290   */\n      tag_95\n      jump\t// in\n    tag_226:\n        /* \"#utility.yul\":11238:11291   */\n      tag_60\n      jump\t// in\n    tag_225:\n        /* \"#utility.yul\":11225:11291   */\n      swap1\n      pop\n        /* \"#utility.yul\":11155:11297   */\n      swap2\n      swap1\n      pop\n      jump\t// out\n        /* \"#utility.yul\":11303:11378   */\n    tag_97:\n        /* \"#utility.yul\":11346:11349   */\n      0x00\n        /* \"#utility.yul\":11367:11372   */\n      dup2\n        /* \"#utility.yul\":11360:11372   */\n      swap1\n      pop\n        /* \"#utility.yul\":11303:11378   */\n      swap2\n      swap1\n      pop\n      jump\t// out\n        /* \"#utility.yul\":11384:11653   */\n    tag_98:\n        /* \"#utility.yul\":11494:11533   */\n      tag_230\n        /* \"#utility.yul\":11525:11532   */\n      dup4\n        /* \"#utility.yul\":11494:11533   */\n      tag_96\n      jump\t// in\n    tag_230:\n        /* \"#utility.yul\":11555:11646   */\n      tag_231\n        /* \"#utility.yul\":11604:11645   */\n      tag_232\n        /* \"#utility.yul\":11628:11644   */\n      dup3\n        /* \"#utility.yul\":11604:11645   */\n      tag_97\n      jump\t// in\n    tag_232:\n        /* \"#utility.yul\":11596:11602   */\n      dup5\n        /* \"#utility.yul\":11589:11593   */\n      dup5\n        /* \"#utility.yul\":11583:11594   */\n      sload\n        /* \"#utility.yul\":11555:11646   */\n      tag_94\n      jump\t// in\n    tag_231:\n        /* \"#utility.yul\":11549:11553   */\n      dup3\n        /* \"#utility.yul\":11542:11647   */\n      sstore\n        /* \"#utility.yul\":11460:11653   */\n      pop\n        /* \"#utility.yul\":11384:11653   */\n      pop\n      pop\n      pop\n      jump\t// out\n        /* \"#utility.yul\":11659:11732   */\n    tag_99:\n        /* \"#utility.yul\":11704:11707   */\n      0x00\n        /* \"#utility.yul\":11725:11726   */\n      0x00\n        /* \"#utility.yul\":11718:11726   */\n      swap1\n      pop\n        /* \"#utility.yul\":11659:11732   */\n      swap1\n      jump\t// out\n        /* \"#utility.yul\":11738:11927   */\n    tag_100:\n        /* \"#utility.yul\":11815:11847   */\n      tag_235\n      tag_99\n      jump\t// in\n    tag_235:\n        /* \"#utility.yul\":11856:11921   */\n      tag_236\n        /* \"#utility.yul\":11914:11920   */\n      dup2\n        /* \"#utility.yul\":11906:11912   */\n      dup5\n        /* \"#utility.yul\":11900:11904   */\n      dup5\n        /* \"#utility.yul\":11856:11921   */\n      tag_98\n      jump\t// in\n    tag_236:\n        /* \"#utility.yul\":11791:11927   */\n      pop\n        /* \"#utility.yul\":11738:11927   */\n      pop\n      pop\n      jump\t// out\n        /* \"#utility.yul\":11933:12119   */\n    tag_101:\n        /* \"#utility.yul\":11993:12113   */\n    tag_238:\n        /* \"#utility.yul\":12010:12013   */\n      dup2\n        /* \"#utility.yul\":12003:12008   */\n      dup2\n        /* \"#utility.yul\":12000:12014   */\n      lt\n        /* \"#utility.yul\":11993:12113   */\n      iszero\n      tag_240\n      jumpi\n        /* \"#utility.yul\":12064:12103   */\n      tag_241\n        /* \"#utility.yul\":12101:12102   */\n      0x00\n        /* \"#utility.yul\":12094:12099   */\n      dup3\n        /* \"#utility.yul\":12064:12103   */\n      tag_100\n      jump\t// in\n    tag_241:\n        /* \"#utility.yul\":12037:12038   */\n      0x01\n        /* \"#utility.yul\":12030:12035   */\n      dup2\n        /* \"#utility.yul\":12026:12039   */\n      add\n        /* \"#utility.yul\":12017:12039   */\n      swap1\n      pop\n        /* \"#utility.yul\":11993:12113   */\n      jump(tag_238)\n    tag_240:\n        /* \"#utility.yul\":11933:12119   */\n      pop\n      pop\n      jump\t// out\n        /* \"#utility.yul\":12125:12668   */\n    tag_102:\n        /* \"#utility.yul\":12226:12228   */\n      0x1f\n        /* \"#utility.yul\":12221:12224   */\n      dup3\n        /* \"#utility.yul\":12218:12229   */\n      gt\n        /* \"#utility.yul\":12215:12661   */\n      iszero\n      tag_243\n      jumpi\n        /* \"#utility.yul\":12260:12298   */\n      tag_244\n        /* \"#utility.yul\":12292:12297   */\n      dup2\n        /* \"#utility.yul\":12260:12298   */\n      tag_91\n      jump\t// in\n    tag_244:\n        /* \"#utility.yul\":12344:12373   */\n      tag_245\n        /* \"#utility.yul\":12362:12372   */\n      dup5\n        /* \"#utility.yul\":12344:12373   */\n      tag_92\n      jump\t// in\n    tag_245:\n        /* \"#utility.yul\":12334:12342   */\n      dup2\n        /* \"#utility.yul\":12330:12374   */\n      add\n        /* \"#utility.yul\":12527:12529   */\n      0x20\n        /* \"#utility.yul\":12515:12525   */\n      dup6\n        /* \"#utility.yul\":12512:12530   */\n      lt\n        /* \"#utility.yul\":12509:12558   */\n      iszero\n      tag_246\n      jumpi\n        /* \"#utility.yul\":12548:12556   */\n      dup2\n        /* \"#utility.yul\":12533:12556   */\n      swap1\n      pop\n        /* \"#utility.yul\":12509:12558   */\n    tag_246:\n        /* \"#utility.yul\":12571:12651   */\n      tag_247\n        /* \"#utility.yul\":12627:12649   */\n      tag_248\n        /* \"#utility.yul\":12645:12648   */\n      dup6\n        /* \"#utility.yul\":12627:12649   */\n      tag_92\n      jump\t// in\n    tag_248:\n        /* \"#utility.yul\":12617:12625   */\n      dup4\n        /* \"#utility.yul\":12613:12650   */\n      add\n        /* \"#utility.yul\":12600:12611   */\n      dup3\n        /* \"#utility.yul\":12571:12651   */\n      tag_101\n      jump\t// in\n    tag_247:\n        /* \"#utility.yul\":12230:12661   */\n      pop\n      pop\n        /* \"#utility.yul\":12215:12661   */\n    tag_243:\n        /* \"#utility.yul\":12125:12668   */\n      pop\n      pop\n      pop\n      jump\t// out\n        /* \"#utility.yul\":12674:12791   */\n    tag_103:\n        /* \"#utility.yul\":12728:12736   */\n      0x00\n        /* \"#utility.yul\":12778:12783   */\n      dup3\n        /* \"#utility.yul\":12772:12776   */\n      dup3\n        /* \"#utility.yul\":12768:12784   */\n      shr\n        /* \"#utility.yul\":12747:12784   */\n      swap1\n      pop\n        /* \"#utility.yul\":12674:12791   */\n      swap3\n      swap2\n      pop\n      pop\n      jump\t// out\n        /* \"#utility.yul\":12797:12966   */\n    tag_104:\n        /* \"#utility.yul\":12841:12847   */\n      0x00\n        /* \"#utility.yul\":12874:12925   */\n      tag_251\n        /* \"#utility.yul\":12922:12923   */\n      0x00\n        /* \"#utility.yul\":12918:12924   */\n      not\n        /* \"#utility.yul\":12910:12915   */\n      dup5\n        /* \"#utility.yul\":12907:12908   */\n      0x08\n        /* \"#utility.yul\":12903:12916   */\n      mul\n        /* \"#utility.yul\":12874:12925   */\n      tag_103\n      jump\t// in\n    tag_251:\n        /* \"#utility.yul\":12870:12926   */\n      not\n        /* \"#utility.yul\":12955:12959   */\n      dup1\n        /* \"#utility.yul\":12949:12953   */\n      dup4\n        /* \"#utility.yul\":12945:12960   */\n      and\n        /* \"#utility.yul\":12935:12960   */\n      swap2\n      pop\n        /* \"#utility.yul\":12848:12966   */\n      pop\n        /* \"#utility.yul\":12797:12966   */\n      swap3\n      swap2\n      pop\n      pop\n      jump\t// out\n        /* \"#utility.yul\":12971:13266   */\n    tag_105:\n        /* \"#utility.yul\":13047:13051   */\n      0x00\n        /* \"#utility.yul\":13193:13222   */\n      tag_253\n        /* \"#utility.yul\":13218:13221   */\n      dup4\n        /* \"#utility.yul\":13212:13216   */\n      dup4\n        /* \"#utility.yul\":13193:13222   */\n      tag_104\n      jump\t// in\n    tag_253:\n        /* \"#utility.yul\":13185:13222   */\n      swap2\n      pop\n        /* \"#utility.yul\":13255:13258   */\n      dup3\n        /* \"#utility.yul\":13252:13253   */\n      0x02\n        /* \"#utility.yul\":13248:13259   */\n      mul\n        /* \"#utility.yul\":13242:13246   */\n      dup3\n        /* \"#utility.yul\":13239:13260   */\n      or\n        /* \"#utility.yul\":13231:13260   */\n      swap1\n      pop\n        /* \"#utility.yul\":12971:13266   */\n      swap3\n      swap2\n      pop\n      pop\n      jump\t// out\n        /* \"#utility.yul\":13271:14666   */\n    tag_51:\n        /* \"#utility.yul\":13388:13425   */\n      tag_255\n        /* \"#utility.yul\":13421:13424   */\n      dup3\n        /* \"#utility.yul\":13388:13425   */\n      tag_66\n      jump\t// in\n    tag_255:\n        /* \"#utility.yul\":13490:13508   */\n      0xffffffffffffffff\n        /* \"#utility.yul\":13482:13488   */\n      dup2\n        /* \"#utility.yul\":13479:13509   */\n      gt\n        /* \"#utility.yul\":13476:13532   */\n      iszero\n      tag_256\n      jumpi\n        /* \"#utility.yul\":13512:13530   */\n      tag_257\n      tag_80\n      jump\t// in\n    tag_257:\n        /* \"#utility.yul\":13476:13532   */\n    tag_256:\n        /* \"#utility.yul\":13556:13594   */\n      tag_258\n        /* \"#utility.yul\":13588:13592   */\n      dup3\n        /* \"#utility.yul\":13582:13593   */\n      sload\n        /* \"#utility.yul\":13556:13594   */\n      tag_35\n      jump\t// in\n    tag_258:\n        /* \"#utility.yul\":13641:13708   */\n      tag_259\n        /* \"#utility.yul\":13701:13707   */\n      dup3\n        /* \"#utility.yul\":13693:13699   */\n      dup3\n        /* \"#utility.yul\":13687:13691   */\n      dup6\n        /* \"#utility.yul\":13641:13708   */\n      tag_102\n      jump\t// in\n    tag_259:\n        /* \"#utility.yul\":13735:13736   */\n      0x00\n        /* \"#utility.yul\":13759:13763   */\n      0x20\n        /* \"#utility.yul\":13746:13763   */\n      swap1\n      pop\n        /* \"#utility.yul\":13791:13793   */\n      0x1f\n        /* \"#utility.yul\":13783:13789   */\n      dup4\n        /* \"#utility.yul\":13780:13794   */\n      gt\n        /* \"#utility.yul\":13808:13809   */\n      0x01\n        /* \"#utility.yul\":13803:14421   */\n      dup2\n      eq\n      tag_261\n      jumpi\n        /* \"#utility.yul\":14465:14466   */\n      0x00\n        /* \"#utility.yul\":14482:14488   */\n      dup5\n        /* \"#utility.yul\":14479:14556   */\n      iszero\n      tag_262\n      jumpi\n        /* \"#utility.yul\":14531:14540   */\n      dup3\n        /* \"#utility.yul\":14526:14529   */\n      dup8\n        /* \"#utility.yul\":14522:14541   */\n      add\n        /* \"#utility.yul\":14516:14542   */\n      mload\n        /* \"#utility.yul\":14507:14542   */\n      swap1\n      pop\n        /* \"#utility.yul\":14479:14556   */\n    tag_262:\n        /* \"#utility.yul\":14582:14649   */\n      tag_263\n        /* \"#utility.yul\":14642:14648   */\n      dup6\n        /* \"#utility.yul\":14635:14640   */\n      dup3\n        /* \"#utility.yul\":14582:14649   */\n      tag_105\n      jump\t// in\n    tag_263:\n        /* \"#utility.yul\":14576:14580   */\n      dup7\n        /* \"#utility.yul\":14569:14650   */\n      sstore\n        /* \"#utility.yul\":14438:14660   */\n      pop\n        /* \"#utility.yul\":13773:14660   */\n      jump(tag_260)\n        /* \"#utility.yul\":13803:14421   */\n    tag_261:\n        /* \"#utility.yul\":13855:13859   */\n      0x1f\n        /* \"#utility.yul\":13851:13860   */\n      not\n        /* \"#utility.yul\":13843:13849   */\n      dup5\n        /* \"#utility.yul\":13839:13861   */\n      and\n        /* \"#utility.yul\":13889:13926   */\n      tag_264\n        /* \"#utility.yul\":13921:13925   */\n      dup7\n        /* \"#utility.yul\":13889:13926   */\n      tag_91\n      jump\t// in\n    tag_264:\n        /* \"#utility.yul\":13948:13949   */\n      0x00\n        /* \"#utility.yul\":13962:14170   */\n    tag_265:\n        /* \"#utility.yul\":13976:13983   */\n      dup3\n        /* \"#utility.yul\":13973:13974   */\n      dup2\n        /* \"#utility.yul\":13970:13984   */\n      lt\n        /* \"#utility.yul\":13962:14170   */\n      iszero\n      tag_267\n      jumpi\n        /* \"#utility.yul\":14055:14064   */\n      dup5\n        /* \"#utility.yul\":14050:14053   */\n      dup10\n        /* \"#utility.yul\":14046:14065   */\n      add\n        /* \"#utility.yul\":14040:14066   */\n      mload\n        /* \"#utility.yul\":14032:14038   */\n      dup3\n        /* \"#utility.yul\":14025:14067   */\n      sstore\n        /* \"#utility.yul\":14106:14107   */\n      0x01\n        /* \"#utility.yul\":14098:14104   */\n      dup3\n        /* \"#utility.yul\":14094:14108   */\n      add\n        /* \"#utility.yul\":14084:14108   */\n      swap2\n      pop\n        /* \"#utility.yul\":14153:14155   */\n      0x20\n        /* \"#utility.yul\":14142:14151   */\n      dup6\n        /* \"#utility.yul\":14138:14156   */\n      add\n        /* \"#utility.yul\":14125:14156   */\n      swap5\n      pop\n        /* \"#utility.yul\":13999:14003   */\n      0x20\n        /* \"#utility.yul\":13996:13997   */\n      dup2\n        /* \"#utility.yul\":13992:14004   */\n      add\n        /* \"#utility.yul\":13987:14004   */\n      swap1\n      pop\n        /* \"#utility.yul\":13962:14170   */\n      jump(tag_265)\n    tag_267:\n        /* \"#utility.yul\":14198:14204   */\n      dup7\n        /* \"#utility.yul\":14189:14196   */\n      dup4\n        /* \"#utility.yul\":14186:14205   */\n      lt\n        /* \"#utility.yul\":14183:14362   */\n      iszero\n      tag_268\n      jumpi\n        /* \"#utility.yul\":14256:14265   */\n      dup5\n        /* \"#utility.yul\":14251:14254   */\n      dup10\n        /* \"#utility.yul\":14247:14266   */\n      add\n        /* \"#utility.yul\":14241:14267   */\n      mload\n        /* \"#utility.yul\":14299:14347   */\n      tag_269\n        /* \"#utility.yul\":14341:14345   */\n      0x1f\n        /* \"#utility.yul\":14333:14339   */\n      dup10\n        /* \"#utility.yul\":14329:14346   */\n      and\n        /* \"#utility.yul\":14318:14327   */\n      dup3\n        /* \"#utility.yul\":14299:14347   */\n      tag_104\n      jump\t// in\n    tag_269:\n        /* \"#utility.yul\":14291:14297   */\n      dup4\n        /* \"#utility.yul\":14284:14348   */\n      sstore\n        /* \"#utility.yul\":14206:14362   */\n      pop\n        /* \"#utility.yul\":14183:14362   */\n    tag_268:\n        /* \"#utility.yul\":14408:14409   */\n      0x01\n        /* \"#utility.yul\":14404:14405   */\n      0x02\n        /* \"#utility.yul\":14396:14402   */\n      dup9\n        /* \"#utility.yul\":14392:14406   */\n      mul\n        /* \"#utility.yul\":14388:14410   */\n      add\n        /* \"#utility.yul\":14382:14386   */\n      dup9\n        /* \"#utility.yul\":14375:14411   */\n      sstore\n        /* \"#utility.yul\":13810:14421   */\n      pop\n      pop\n      pop\n        /* \"#utility.yul\":13773:14660   */\n    tag_260:\n      pop\n        /* \"#utility.yul\":13363:14666   */\n      pop\n      pop\n      pop\n        /* \"#utility.yul\":13271:14666   */\n      pop\n      pop\n      jump\t// out\n        /* \"#utility.yul\":14672:15205   */\n    tag_56:\n        /* \"#utility.yul\":14841:14845   */\n      0x00\n        /* \"#utility.yul\":14879:14881   */\n      0x60\n        /* \"#utility.yul\":14868:14877   */\n      dup3\n        /* \"#utility.yul\":14864:14882   */\n      add\n        /* \"#utility.yul\":14856:14882   */\n      swap1\n      pop\n        /* \"#utility.yul\":14892:14963   */\n      tag_271\n        /* \"#utility.yul\":14960:14961   */\n      0x00\n        /* \"#utility.yul\":14949:14958   */\n      dup4\n        /* \"#utility.yul\":14945:14962   */\n      add\n        /* \"#utility.yul\":14936:14942   */\n      dup7\n        /* \"#utility.yul\":14892:14963   */\n      tag_65\n      jump\t// in\n    tag_271:\n        /* \"#utility.yul\":15010:15019   */\n      dup2\n        /* \"#utility.yul\":15004:15008   */\n      dup2\n        /* \"#utility.yul\":15000:15020   */\n      sub\n        /* \"#utility.yul\":14995:14997   */\n      0x20\n        /* \"#utility.yul\":14984:14993   */\n      dup4\n        /* \"#utility.yul\":14980:14998   */\n      add\n        /* \"#utility.yul\":14973:15021   */\n      mstore\n        /* \"#utility.yul\":15038:15116   */\n      tag_272\n        /* \"#utility.yul\":15111:15115   */\n      dup2\n        /* \"#utility.yul\":15102:15108   */\n      dup6\n        /* \"#utility.yul\":15038:15116   */\n      tag_70\n      jump\t// in\n    tag_272:\n        /* \"#utility.yul\":15030:15116   */\n      swap1\n      pop\n        /* \"#utility.yul\":15126:15198   */\n      tag_273\n        /* \"#utility.yul\":15194:15196   */\n      0x40\n        /* \"#utility.yul\":15183:15192   */\n      dup4\n        /* \"#utility.yul\":15179:15197   */\n      add\n        /* \"#utility.yul\":15170:15176   */\n      dup5\n        /* \"#utility.yul\":15126:15198   */\n      tag_73\n      jump\t// in\n    tag_273:\n        /* \"#utility.yul\":14672:15205   */\n      swap5\n      swap4\n      pop\n      pop\n      pop\n      pop\n      jump\t// out\n\n    auxdata: 0xa2646970667358221220822007e2d8d1d539ef79157e2b093b4adb5ead911765b9d2231e0b059093e8d964736f6c634300081d0033\n}\n",
    "bytecode": {
      "linkReferences": {},
      "object": "6080604052348015600e575f5ffd5b50610cf28061001c5f395ff3fe608060405234801561000f575f5ffd5b506004361061004a575f3560e01c80633a1b3d311461004e5780637acc0b201461006a57806387592bce1461009f578063e0f6ef87146100bb575b5f5ffd5b610068600480360381019061006391906104ef565b6100d9565b005b610084600480360381019061007f919061052d565b61019b565b60405161009696959493929190610689565b60405180910390f35b6100b960048036038101906100b49190610822565b61030a565b005b6100c3610482565b6040516100d09190610898565b60405180910390f35b60015482111561011e576040517f08c379a0000000000000000000000000000000000000000000000000000000008152600401610115906108fb565b60405180910390fd5b5f5f5f8481526020019081526020015f209050818160030160146101000a81548160ff0219169083600281111561015857610157610616565b5b02179055507f2da7b23ca63c1eb969eee5fae4acb98186abecf5358b0354a82a5183ebca6b2a838360405161018e929190610919565b60405180910390a1505050565b5f602052805f5260405f205f91509050805f0154908060010180546101bf9061096d565b80601f01602080910402602001604051908101604052809291908181526020018280546101eb9061096d565b80156102365780601f1061020d57610100808354040283529160200191610236565b820191905f5260205f20905b81548152906001019060200180831161021957829003601f168201915b50505050509080600201805461024b9061096d565b80601f01602080910402602001604051908101604052809291908181526020018280546102779061096d565b80156102c25780601f10610299576101008083540402835291602001916102c2565b820191905f5260205f20905b8154815290600101906020018083116102a557829003601f168201915b505050505090806003015f9054906101000a900473ffffffffffffffffffffffffffffffffffffffff16908060030160149054906101000a900460ff16908060040154905086565b60015f81548092919061031c906109ca565b91905055506040518060c0016040528060015481526020018381526020018281526020013373ffffffffffffffffffffffffffffffffffffffff1681526020015f600281111561036f5761036e610616565b5b8152602001428152505f5f60015481526020019081526020015f205f820151815f015560208201518160010190816103a79190610bb1565b5060408201518160020190816103bd9190610bb1565b506060820151816003015f6101000a81548173ffffffffffffffffffffffffffffffffffffffff021916908373ffffffffffffffffffffffffffffffffffffffff16021790555060808201518160030160146101000a81548160ff0219169083600281111561042f5761042e610616565b5b021790555060a082015181600401559050507faf6ffb6277511513e7d579327cc1fc57f0266df2fb11a60b13487b8c9cd2c388600154833360405161047693929190610c80565b60405180910390a15050565b60015481565b5f604051905090565b5f5ffd5b5f5ffd5b5f819050919050565b6104ab81610499565b81146104b5575f5ffd5b50565b5f813590506104c6816104a2565b92915050565b600381106104d8575f5ffd5b50565b5f813590506104e9816104cc565b92915050565b5f5f6040838503121561050557610504610491565b5b5f610512858286016104b8565b9250506020610523858286016104db565b9150509250929050565b5f6020828403121561054257610541610491565b5b5f61054f848285016104b8565b91505092915050565b61056181610499565b82525050565b5f81519050919050565b5f82825260208201905092915050565b8281835e5f83830152505050565b5f601f19601f8301169050919050565b5f6105a982610567565b6105b38185610571565b93506105c3818560208601610581565b6105cc8161058f565b840191505092915050565b5f73ffffffffffffffffffffffffffffffffffffffff82169050919050565b5f610600826105d7565b9050919050565b610610816105f6565b82525050565b7f4e487b71000000000000000000000000000000000000000000000000000000005f52602160045260245ffd5b6003811061065457610653610616565b5b50565b5f81905061066482610643565b919050565b5f61067382610657565b9050919050565b61068381610669565b82525050565b5f60c08201905061069c5f830189610558565b81810360208301526106ae818861059f565b905081810360408301526106c2818761059f565b90506106d16060830186610607565b6106de608083018561067a565b6106eb60a0830184610558565b979650505050505050565b5f5ffd5b5f5ffd5b7f4e487b71000000000000000000000000000000000000000000000000000000005f52604160045260245ffd5b6107348261058f565b810181811067ffffffffffffffff82111715610753576107526106fe565b5b80604052505050565b5f610765610488565b9050610771828261072b565b919050565b5f67ffffffffffffffff8211156107905761078f6106fe565b5b6107998261058f565b9050602081019050919050565b828183375f83830152505050565b5f6107c66107c184610776565b61075c565b9050828152602081018484840111156107e2576107e16106fa565b5b6107ed8482856107a6565b509392505050565b5f82601f830112610809576108086106f6565b5b81356108198482602086016107b4565b91505092915050565b5f5f6040838503121561083857610837610491565b5b5f83013567ffffffffffffffff81111561085557610854610495565b5b610861858286016107f5565b925050602083013567ffffffffffffffff81111561088257610881610495565b5b61088e858286016107f5565b9150509250929050565b5f6020820190506108ab5f830184610558565b92915050565b7f50726f6475637420646f6573206e6f74206578697374000000000000000000005f82015250565b5f6108e5601683610571565b91506108f0826108b1565b602082019050919050565b5f6020820190508181035f830152610912816108d9565b9050919050565b5f60408201905061092c5f830185610558565b610939602083018461067a565b9392505050565b7f4e487b71000000000000000000000000000000000000000000000000000000005f52602260045260245ffd5b5f600282049050600182168061098457607f821691505b60208210810361099757610996610940565b5b50919050565b7f4e487b71000000000000000000000000000000000000000000000000000000005f52601160045260245ffd5b5f6109d482610499565b91507fffffffffffffffffffffffffffffffffffffffffffffffffffffffffffffffff8203610a0657610a0561099d565b5b600182019050919050565b5f819050815f5260205f209050919050565b5f6020601f8301049050919050565b5f82821b905092915050565b5f60088302610a6d7fffffffffffffffffffffffffffffffffffffffffffffffffffffffffffffffff82610a32565b610a778683610a32565b95508019841693508086168417925050509392505050565b5f819050919050565b5f610ab2610aad610aa884610499565b610a8f565b610499565b9050919050565b5f819050919050565b610acb83610a98565b610adf610ad782610ab9565b848454610a3e565b825550505050565b5f5f905090565b610af6610ae7565b610b01818484610ac2565b505050565b5b81811015610b2457610b195f82610aee565b600181019050610b07565b5050565b601f821115610b6957610b3a81610a11565b610b4384610a23565b81016020851015610b52578190505b610b66610b5e85610a23565b830182610b06565b50505b505050565b5f82821c905092915050565b5f610b895f1984600802610b6e565b1980831691505092915050565b5f610ba18383610b7a565b9150826002028217905092915050565b610bba82610567565b67ffffffffffffffff811115610bd357610bd26106fe565b5b610bdd825461096d565b610be8828285610b28565b5f60209050601f831160018114610c19575f8415610c07578287015190505b610c118582610b96565b865550610c78565b601f198416610c2786610a11565b5f5b82811015610c4e57848901518255600182019150602085019450602081019050610c29565b86831015610c6b5784890151610c67601f891682610b7a565b8355505b6001600288020188555050505b505050505050565b5f606082019050610c935f830186610558565b8181036020830152610ca5818561059f565b9050610cb46040830184610607565b94935050505056fea2646970667358221220822007e2d8d1d539ef79157e2b093b4adb5ead911765b9d2231e0b059093e8d964736f6c634300081d0033",
      "opcodes": "PUSH1 0x80 PUSH1 0x40 MSTORE CALLVALUE DUP1 ISZERO PUSH1 0xE JUMPI PUSH0 PUSH0 REVERT JUMPDEST POP PUSH2 0xCF2 DUP1 PUSH2 0x1C PUSH0 CODECOPY PUSH0 RETURN INVALID PUSH1 0x80 PUSH1 0x40 MSTORE CALLVALUE DUP1 ISZERO PUSH2 0xF JUMPI PUSH0 PUSH0 REVERT JUMPDEST POP PUSH1 0x4 CALLDATASIZE LT PUSH2 0x4A JUMPI PUSH0 CALLDATALOAD PUSH1 0xE0 SHR DUP1 PUSH4 0x3A1B3D31 EQ PUSH2 0x4E JUMPI DUP1 PUSH4 0x7ACC0B20 EQ PUSH2 0x6A JUMPI DUP1 PUSH4 0x87592BCE EQ PUSH2 0x9F JUMPI DUP1 PUSH4 0xE0F6EF87 EQ PUSH2 0xBB JUMPI JUMPDEST PUSH0 PUSH0 REVERT JUMPDEST PUSH2 0x68 PUSH1 0x4 DUP1 CALLDATASIZE SUB DUP2 ADD SWAP1 PUSH2 0x63 SWAP2 SWAP1 PUSH2 0x4EF JUMP JUMPDEST PUSH2 0xD9 JUMP JUMPDEST STOP JUMPDEST PUSH2 0x84 PUSH1 0x4 DUP1 CALLDATASIZE SUB DUP2 ADD SWAP1 PUSH2 0x7F SWAP2 SWAP1 PUSH2 0x52D JUMP JUMPDEST PUSH2 0x19B JUMP JUMPDEST PUSH1 0x40 MLOAD PUSH2 0x96 SWAP7 SWAP6 SWAP5 SWAP4 SWAP3 SWAP2 SWAP1 PUSH2 0x689 JUMP JUMPDEST PUSH1 0x40 MLOAD DUP1 SWAP2 SUB SWAP1 RETURN JUMPDEST PUSH2 0xB9 PUSH1 0x4 DUP1 CALLDATASIZE SUB DUP2 ADD SWAP1 PUSH2 0xB4 SWAP2 SWAP1 PUSH2 0x822 JUMP JUMPDEST PUSH2 0x30A JUMP JUMPDEST STOP JUMPDEST PUSH2 0xC3 PUSH2 0x482 JUMP JUMPDEST PUSH1 0x40 MLOAD PUSH2 0xD0 SWAP2 SWAP1 PUSH2 0x898 JUMP JUMPDEST PUSH1 0x40 MLOAD DUP1 SWAP2 SUB SWAP1 RETURN JUMPDEST PUSH1 0x1 SLOAD DUP3 GT ISZERO PUSH2 0x11E JUMPI PUSH1 0x40 MLOAD PUSH32 0x8C379A000000000000000000000000000000000000000000000000000000000 DUP2 MSTORE PUSH1 0x4 ADD PUSH2 0x115 SWAP1 PUSH2 0x8FB JUMP JUMPDEST PUSH1 0x40 MLOAD DUP1 SWAP2 SUB SWAP1 REVERT JUMPDEST PUSH0 PUSH0 PUSH0 DUP5 DUP2 MSTORE PUSH1 0x20 ADD SWAP1 DUP2 MSTORE PUSH1 0x20 ADD PUSH0 KECCAK256 SWAP1 POP DUP2 DUP2 PUSH1 0x3 ADD PUSH1 0x14 PUSH2 0x100 EXP DUP2 SLOAD DUP2 PUSH1 0xFF MUL NOT AND SWAP1 DUP4 PUSH1 0x2 DUP2 GT ISZERO PUSH2 0x158 JUMPI PUSH2 0x157 PUSH2 0x616 JUMP JUMPDEST JUMPDEST MUL OR SWAP1 SSTORE POP PUSH32 0x2DA7B23CA63C1EB969EEE5FAE4ACB98186ABECF5358B0354A82A5183EBCA6B2A DUP4 DUP4 PUSH1 0x40 MLOAD PUSH2 0x18E SWAP3 SWAP2 SWAP1 PUSH2 0x919 JUMP JUMPDEST PUSH1 0x40 MLOAD DUP1 SWAP2 SUB SWAP1 LOG1 POP POP POP JUMP JUMPDEST PUSH0 PUSH1 0x20 MSTORE DUP1 PUSH0 MSTORE PUSH1 0x40 PUSH0 KECCAK256 PUSH0 SWAP2 POP SWAP1 POP DUP1 PUSH0 ADD SLOAD SWAP1 DUP1 PUSH1 0x1 ADD DUP1 SLOAD PUSH2 0x1BF SWAP1 PUSH2 0x96D JUMP JUMPDEST DUP1 PUSH1 0x1F ADD PUSH1 0x20 DUP1 SWAP2 DIV MUL PUSH1 0x20 ADD PUSH1 0x40 MLOAD SWAP1 DUP2 ADD PUSH1 0x40 MSTORE DUP1 SWAP3 SWAP2 SWAP1 DUP2 DUP2 MSTORE PUSH1 0x20 ADD DUP3 DUP1 SLOAD PUSH2 0x1EB SWAP1 PUSH2 0x96D JUMP JUMPDEST DUP1 ISZERO PUSH2 0x236 JUMPI DUP1 PUSH1 0x1F LT PUSH2 0x20D JUMPI PUSH2 0x100 DUP1 DUP4 SLOAD DIV MUL DUP4 MSTORE SWAP2 PUSH1 0x20 ADD SWAP2 PUSH2 0x236 JUMP JUMPDEST DUP3 ADD SWAP2 SWAP1 PUSH0 MSTORE PUSH1 0x20 PUSH0 KECCAK256 SWAP1 JUMPDEST DUP2 SLOAD DUP2 MSTORE SWAP1 PUSH1 0x1 ADD SWAP1 PUSH1 0x20 ADD DUP1 DUP4 GT PUSH2 0x219 JUMPI DUP3 SWAP1 SUB PUSH1 0x1F AND DUP3 ADD SWAP2 JUMPDEST POP POP POP POP POP SWAP1 DUP1 PUSH1 0x2 ADD DUP1 SLOAD PUSH2 0x24B SWAP1 PUSH2 0x96D JUMP JUMPDEST DUP1 PUSH1 0x1F ADD PUSH1 0x20 DUP1 SWAP2 DIV MUL PUSH1 0x20 ADD PUSH1 0x40 MLOAD SWAP1 DUP2 ADD PUSH1 0x40 MSTORE DUP1 SWAP3 SWAP2 SWAP1 DUP2 DUP2 MSTORE PUSH1 0x20 ADD DUP3 DUP1 SLOAD PUSH2 0x277 SWAP1 PUSH2 0x96D JUMP JUMPDEST DUP1 ISZERO PUSH2 0x2C2 JUMPI DUP1 PUSH1 0x1F LT PUSH2 0x299 JUMPI PUSH2 0x100 DUP1 DUP4 SLOAD DIV MUL DUP4 MSTORE SWAP2 PUSH1 0x20 ADD SWAP2 PUSH2 0x2C2 JUMP JUMPDEST DUP3 ADD SWAP2 SWAP1 PUSH0 MSTORE PUSH1 0x20 PUSH0 KECCAK256 SWAP1 JUMPDEST DUP2 SLOAD DUP2 MSTORE SWAP1 PUSH1 0x1 ADD SWAP1 PUSH1 0x20 ADD DUP1 DUP4 GT PUSH2 0x2A5 JUMPI DUP3 SWAP1 SUB PUSH1 0x1F AND DUP3 ADD SWAP2 JUMPDEST POP POP POP POP POP SWAP1 DUP1 PUSH1 0x3 ADD PUSH0 SWAP1 SLOAD SWAP1 PUSH2 0x100 EXP SWAP1 DIV PUSH20 0xFFFFFFFFFFFFFFFFFFFFFFFFFFFFFFFFFFFFFFFF AND SWAP1 DUP1 PUSH1 0x3 ADD PUSH1 0x14 SWAP1 SLOAD SWAP1 PUSH2 0x100 EXP SWAP1 DIV PUSH1 0xFF AND SWAP1 DUP1 PUSH1 0x4 ADD SLOAD SWAP1 POP DUP7 JUMP JUMPDEST PUSH1 0x1 PUSH0 DUP2 SLOAD DUP1 SWAP3 SWAP2 SWAP1 PUSH2 0x31C SWAP1 PUSH2 0x9CA JUMP JUMPDEST SWAP2 SWAP1 POP SSTORE POP PUSH1 0x40 MLOAD DUP1 PUSH1 0xC0 ADD PUSH1 0x40 MSTORE DUP1 PUSH1 0x1 SLOAD DUP2 MSTORE PUSH1 0x20 ADD DUP4 DUP2 MSTORE PUSH1 0x20 ADD DUP3 DUP2 MSTORE PUSH1 0x20 ADD CALLER PUSH20 0xFFFFFFFFFFFFFFFFFFFFFFFFFFFFFFFFFFFFFFFF AND DUP2 MSTORE PUSH1 0x20 ADD PUSH0 PUSH1 0x2 DUP2 GT ISZERO PUSH2 0x36F JUMPI PUSH2 0x36E PUSH2 0x616 JUMP JUMPDEST JUMPDEST DUP2 MSTORE PUSH1 0x20 ADD TIMESTAMP DUP2 MSTORE POP PUSH0 PUSH0 PUSH1 0x1 SLOAD DUP2 MSTORE PUSH1 0x20 ADD SWAP1 DUP2 MSTORE PUSH1 0x20 ADD PUSH0 KECCAK256 PUSH0 DUP3 ADD MLOAD DUP2 PUSH0 ADD SSTORE PUSH1 0x20 DUP3 ADD MLOAD DUP2 PUSH1 0x1 ADD SWAP1 DUP2 PUSH2 0x3A7 SWAP2 SWAP1 PUSH2 0xBB1 JUMP JUMPDEST POP PUSH1 0x40 DUP3 ADD MLOAD DUP2 PUSH1 0x2 ADD SWAP1 DUP2 PUSH2 0x3BD SWAP2 SWAP1 PUSH2 0xBB1 JUMP JUMPDEST POP PUSH1 0x60 DUP3 ADD MLOAD DUP2 PUSH1 0x3 ADD PUSH0 PUSH2 0x100 EXP DUP2 SLOAD DUP2 PUSH20 0xFFFFFFFFFFFFFFFFFFFFFFFFFFFFFFFFFFFFFFFF MUL NOT AND SWAP1 DUP4 PUSH20 0xFFFFFFFFFFFFFFFFFFFFFFFFFFFFFFFFFFFFFFFF AND MUL OR SWAP1 SSTORE POP PUSH1 0x80 DUP3 ADD MLOAD DUP2 PUSH1 0x3 ADD PUSH1 0x14 PUSH2 0x100 EXP DUP2 SLOAD DUP2 PUSH1 0xFF MUL NOT AND SWAP1 DUP4 PUSH1 0x2 DUP2 GT ISZERO PUSH2 0x42F JUMPI PUSH2 0x42E PUSH2 0x616 JUMP JUMPDEST JUMPDEST MUL OR SWAP1 SSTORE POP PUSH1 0xA0 DUP3 ADD MLOAD DUP2 PUSH1 0x4 ADD SSTORE SWAP1 POP POP PUSH32 0xAF6FFB6277511513E7D579327CC1FC57F0266DF2FB11A60B13487B8C9CD2C388 PUSH1 0x1 SLOAD DUP4 CALLER PUSH1 0x40 MLOAD PUSH2 0x476 SWAP4 SWAP3 SWAP2 SWAP1 PUSH2 0xC80 JUMP JUMPDEST PUSH1 0x40 MLOAD DUP1 SWAP2 SUB SWAP1 LOG1 POP POP JUMP JUMPDEST PUSH1 0x1 SLOAD DUP2 JUMP JUMPDEST PUSH0 PUSH1 0x40 MLOAD SWAP1 POP SWAP1 JUMP JUMPDEST PUSH0 PUSH0 REVERT JUMPDEST PUSH0 PUSH0 REVERT JUMPDEST PUSH0 DUP2 SWAP1 POP SWAP2 SWAP1 POP JUMP JUMPDEST PUSH2 0x4AB DUP2 PUSH2 0x499 JUMP JUMPDEST DUP2 EQ PUSH2 0x4B5 JUMPI PUSH0 PUSH0 REVERT JUMPDEST POP JUMP JUMPDEST PUSH0 DUP2 CALLDATALOAD SWAP1 POP PUSH2 0x4C6 DUP2 PUSH2 0x4A2 JUMP JUMPDEST SWAP3 SWAP2 POP POP JUMP JUMPDEST PUSH1 0x3 DUP2 LT PUSH2 0x4D8 JUMPI PUSH0 PUSH0 REVERT JUMPDEST POP JUMP JUMPDEST PUSH0 DUP2 CALLDATALOAD SWAP1 POP PUSH2 0x4E9 DUP2 PUSH2 0x4CC JUMP JUMPDEST SWAP3 SWAP2 POP POP JUMP JUMPDEST PUSH0 PUSH0 PUSH1 0x40 DUP4 DUP6 SUB SLT ISZERO PUSH2 0x505 JUMPI PUSH2 0x504 PUSH2 0x491 JUMP JUMPDEST JUMPDEST PUSH0 PUSH2 0x512 DUP6 DUP3 DUP7 ADD PUSH2 0x4B8 JUMP JUMPDEST SWAP3 POP POP PUSH1 0x20 PUSH2 0x523 DUP6 DUP3 DUP7 ADD PUSH2 0x4DB JUMP JUMPDEST SWAP2 POP POP SWAP3 POP SWAP3 SWAP1 POP JUMP JUMPDEST PUSH0 PUSH1 0x20 DUP3 DUP5 SUB SLT ISZERO PUSH2 0x542 JUMPI PUSH2 0x541 PUSH2 0x491 JUMP JUMPDEST JUMPDEST PUSH0 PUSH2 0x54F DUP5 DUP3 DUP6 ADD PUSH2 0x4B8 JUMP JUMPDEST SWAP2 POP POP SWAP3 SWAP2 POP POP JUMP JUMPDEST PUSH2 0x561 DUP2 PUSH2 0x499 JUMP JUMPDEST DUP3 MSTORE POP POP JUMP JUMPDEST PUSH0 DUP2 MLOAD SWAP1 POP SWAP2 SWAP1 POP JUMP JUMPDEST PUSH0 DUP3 DUP3 MSTORE PUSH1 0x20 DUP3 ADD SWAP1 POP SWAP3 SWAP2 POP POP JUMP JUMPDEST DUP3 DUP2 DUP4 MCOPY PUSH0 DUP4 DUP4 ADD MSTORE POP POP POP JUMP JUMPDEST PUSH0 PUSH1 0x1F NOT PUSH1 0x1F DUP4 ADD AND SWAP1 POP SWAP2 SWAP1 POP JUMP JUMPDEST PUSH0 PUSH2 0x5A9 DUP3 PUSH2 0x567 JUMP JUMPDEST PUSH2 0x5B3 DUP2 DUP6 PUSH2 0x571 JUMP JUMPDEST SWAP4 POP PUSH2 0x5C3 DUP2 DUP6 PUSH1 0x20 DUP7 ADD PUSH2 0x581 JUMP JUMPDEST PUSH2 0x5CC DUP2 PUSH2 0x58F JUMP JUMPDEST DUP5 ADD SWAP2 POP POP SWAP3 SWAP2 POP POP JUMP JUMPDEST PUSH0 PUSH20 0xFFFFFFFFFFFFFFFFFFFFFFFFFFFFFFFFFFFFFFFF DUP3 AND SWAP1 POP SWAP2 SWAP1 POP JUMP JUMPDEST PUSH0 PUSH2 0x600 DUP3 PUSH2 0x5D7 JUMP JUMPDEST SWAP1 POP SWAP2 SWAP1 POP JUMP JUMPDEST PUSH2 0x610 DUP2 PUSH2 0x5F6 JUMP JUMPDEST DUP3 MSTORE POP POP JUMP JUMPDEST PUSH32 0x4E487B7100000000000000000000000000000000000000000000000000000000 PUSH0 MSTORE PUSH1 0x21 PUSH1 0x4 MSTORE PUSH1 0x24 PUSH0 REVERT JUMPDEST PUSH1 0x3 DUP2 LT PUSH2 0x654 JUMPI PUSH2 0x653 PUSH2 0x616 JUMP JUMPDEST JUMPDEST POP JUMP JUMPDEST PUSH0 DUP2 SWAP1 POP PUSH2 0x664 DUP3 PUSH2 0x643 JUMP JUMPDEST SWAP2 SWAP1 POP JUMP JUMPDEST PUSH0 PUSH2 0x673 DUP3 PUSH2 0x657 JUMP JUMPDEST SWAP1 POP SWAP2 SWAP1 POP JUMP JUMPDEST PUSH2 0x683 DUP2 PUSH2 0x669 JUMP JUMPDEST DUP3 MSTORE POP POP JUMP JUMPDEST PUSH0 PUSH1 0xC0 DUP3 ADD SWAP1 POP PUSH2 0x69C PUSH0 DUP4 ADD DUP10 PUSH2 0x558 JUMP JUMPDEST DUP2 DUP2 SUB PUSH1 0x20 DUP4 ADD MSTORE PUSH2 0x6AE DUP2 DUP9 PUSH2 0x59F JUMP JUMPDEST SWAP1 POP DUP2 DUP2 SUB PUSH1 0x40 DUP4 ADD MSTORE PUSH2 0x6C2 DUP2 DUP8 PUSH2 0x59F JUMP JUMPDEST SWAP1 POP PUSH2 0x6D1 PUSH1 0x60 DUP4 ADD DUP7 PUSH2 0x607 JUMP JUMPDEST PUSH2 0x6DE PUSH1 0x80 DUP4 ADD DUP6 PUSH2 0x67A JUMP JUMPDEST PUSH2 0x6EB PUSH1 0xA0 DUP4 ADD DUP5 PUSH2 0x558 JUMP JUMPDEST SWAP8 SWAP7 POP POP POP POP POP POP POP JUMP JUMPDEST PUSH0 PUSH0 REVERT JUMPDEST PUSH0 PUSH0 REVERT JUMPDEST PUSH32 0x4E487B7100000000000000000000000000000000000000000000000000000000 PUSH0 MSTORE PUSH1 0x41 PUSH1 0x4 MSTORE PUSH1 0x24 PUSH0 REVERT JUMPDEST PUSH2 0x734 DUP3 PUSH2 0x58F JUMP JUMPDEST DUP2 ADD DUP2 DUP2 LT PUSH8 0xFFFFFFFFFFFFFFFF DUP3 GT OR ISZERO PUSH2 0x753 JUMPI PUSH2 0x752 PUSH2 0x6FE JUMP JUMPDEST JUMPDEST DUP1 PUSH1 0x40 MSTORE POP POP POP JUMP JUMPDEST PUSH0 PUSH2 0x765 PUSH2 0x488 JUMP JUMPDEST SWAP1 POP PUSH2 0x771 DUP3 DUP3 PUSH2 0x72B JUMP JUMPDEST SWAP2 SWAP1 POP JUMP JUMPDEST PUSH0 PUSH8 0xFFFFFFFFFFFFFFFF DUP3 GT ISZERO PUSH2 0x790 JUMPI PUSH2 0x78F PUSH2 0x6FE JUMP JUMPDEST JUMPDEST PUSH2 0x799 DUP3 PUSH2 0x58F JUMP JUMPDEST SWAP1 POP PUSH1 0x20 DUP2 ADD SWAP1 POP SWAP2 SWAP1 POP JUMP JUMPDEST DUP3 DUP2 DUP4 CALLDATACOPY PUSH0 DUP4 DUP4 ADD MSTORE POP POP POP JUMP JUMPDEST PUSH0 PUSH2 0x7C6 PUSH2 0x7C1 DUP5 PUSH2 0x776 JUMP JUMPDEST PUSH2 0x75C JUMP JUMPDEST SWAP1 POP DUP3 DUP2 MSTORE PUSH1 0x20 DUP2 ADD DUP5 DUP5 DUP5 ADD GT ISZERO PUSH2 0x7E2 JUMPI PUSH2 0x7E1 PUSH2 0x6FA JUMP JUMPDEST JUMPDEST PUSH2 0x7ED DUP5 DUP3 DUP6 PUSH2 0x7A6 JUMP JUMPDEST POP SWAP4 SWAP3 POP POP POP JUMP JUMPDEST PUSH0 DUP3 PUSH1 0x1F DUP4 ADD SLT PUSH2 0x809 JUMPI PUSH2 0x808 PUSH2 0x6F6 JUMP JUMPDEST JUMPDEST DUP2 CALLDATALOAD PUSH2 0x819 DUP5 DUP3 PUSH1 0x20 DUP7 ADD PUSH2 0x7B4 JUMP JUMPDEST SWAP2 POP POP SWAP3 SWAP2 POP POP JUMP JUMPDEST PUSH0 PUSH0 PUSH1 0x40 DUP4 DUP6 SUB SLT ISZERO PUSH2 0x838 JUMPI PUSH2 0x837 PUSH2 0x491 JUMP JUMPDEST JUMPDEST PUSH0 DUP4 ADD CALLDATALOAD PUSH8 0xFFFFFFFFFFFFFFFF DUP2 GT ISZERO PUSH2 0x855 JUMPI PUSH2 0x854 PUSH2 0x495 JUMP JUMPDEST JUMPDEST PUSH2 0x861 DUP6 DUP3 DUP7 ADD PUSH2 0x7F5 JUMP JUMPDEST SWAP3 POP POP PUSH1 0x20 DUP4 ADD CALLDATALOAD PUSH8 0xFFFFFFFFFFFFFFFF DUP2 GT ISZERO PUSH2 0x882 JUMPI PUSH2 0x881 PUSH2 0x495 JUMP JUMPDEST JUMPDEST PUSH2 0x88E DUP6 DUP3 DUP7 ADD PUSH2 0x7F5 JUMP JUMPDEST SWAP2 POP POP SWAP3 POP SWAP3 SWAP1 POP JUMP JUMPDEST PUSH0 PUSH1 0x20 DUP3 ADD SWAP1 POP PUSH2 0x8AB PUSH0 DUP4 ADD DUP5 PUSH2 0x558 JUMP JUMPDEST SWAP3 SWAP2 POP POP JUMP JUMPDEST PUSH32 0x50726F6475637420646F6573206E6F7420657869737400000000000000000000 PUSH0 DUP3 ADD MSTORE POP JUMP JUMPDEST PUSH0 PUSH2 0x8E5 PUSH1 0x16 DUP4 PUSH2 0x571 JUMP JUMPDEST SWAP2 POP PUSH2 0x8F0 DUP3 PUSH2 0x8B1 JUMP JUMPDEST PUSH1 0x20 DUP3 ADD SWAP1 POP SWAP2 SWAP1 POP JUMP JUMPDEST PUSH0 PUSH1 0x20 DUP3 ADD SWAP1 POP DUP2 DUP2 SUB PUSH0 DUP4 ADD MSTORE PUSH2 0x912 DUP2 PUSH2 0x8D9 JUMP JUMPDEST SWAP1 POP SWAP2 SWAP1 POP JUMP JUMPDEST PUSH0 PUSH1 0x40 DUP3 ADD SWAP1 POP PUSH2 0x92C PUSH0 DUP4 ADD DUP6 PUSH2 0x558 JUMP JUMPDEST PUSH2 0x939 PUSH1 0x20 DUP4 ADD DUP5 PUSH2 0x67A JUMP JUMPDEST SWAP4 SWAP3 POP POP POP JUMP JUMPDEST PUSH32 0x4E487B7100000000000000000000000000000000000000000000000000000000 PUSH0 MSTORE PUSH1 0x22 PUSH1 0x4 MSTORE PUSH1 0x24 PUSH0 REVERT JUMPDEST PUSH0 PUSH1 0x2 DUP3 DIV SWAP1 POP PUSH1 0x1 DUP3 AND DUP1 PUSH2 0x984 JUMPI PUSH1 0x7F DUP3 AND SWAP2 POP JUMPDEST PUSH1 0x20 DUP3 LT DUP2 SUB PUSH2 0x997 JUMPI PUSH2 0x996 PUSH2 0x940 JUMP JUMPDEST JUMPDEST POP SWAP2 SWAP1 POP JUMP JUMPDEST PUSH32 0x4E487B7100000000000000000000000000000000000000000000000000000000 PUSH0 MSTORE PUSH1 0x11 PUSH1 0x4 MSTORE PUSH1 0x24 PUSH0 REVERT JUMPDEST PUSH0 PUSH2 0x9D4 DUP3 PUSH2 0x499 JUMP JUMPDEST SWAP2 POP PUSH32 0xFFFFFFFFFFFFFFFFFFFFFFFFFFFFFFFFFFFFFFFFFFFFFFFFFFFFFFFFFFFFFFFF DUP3 SUB PUSH2 0xA06 JUMPI PUSH2 0xA05 PUSH2 0x99D JUMP JUMPDEST JUMPDEST PUSH1 0x1 DUP3 ADD SWAP1 POP SWAP2 SWAP1 POP JUMP JUMPDEST PUSH0 DUP2 SWAP1 POP DUP2 PUSH0 MSTORE PUSH1 0x20 PUSH0 KECCAK256 SWAP1 POP SWAP2 SWAP1 POP JUMP JUMPDEST PUSH0 PUSH1 0x20 PUSH1 0x1F DUP4 ADD DIV SWAP1 POP SWAP2 SWAP1 POP JUMP JUMPDEST PUSH0 DUP3 DUP3 SHL SWAP1 POP SWAP3 SWAP2 POP POP JUMP JUMPDEST PUSH0 PUSH1 0x8 DUP4 MUL PUSH2 0xA6D PUSH32 0xFFFFFFFFFFFFFFFFFFFFFFFFFFFFFFFFFFFFFFFFFFFFFFFFFFFFFFFFFFFFFFFF DUP3 PUSH2 0xA32 JUMP JUMPDEST PUSH2 0xA77 DUP7 DUP4 PUSH2 0xA32 JUMP JUMPDEST SWAP6 POP DUP1 NOT DUP5 AND SWAP4 POP DUP1 DUP7 AND DUP5 OR SWAP3 POP POP POP SWAP4 SWAP3 POP POP POP JUMP JUMPDEST PUSH0 DUP2 SWAP1 POP SWAP2 SWAP1 POP JUMP JUMPDEST PUSH0 PUSH2 0xAB2 PUSH2 0xAAD PUSH2 0xAA8 DUP5 PUSH2 0x499 JUMP JUMPDEST PUSH2 0xA8F JUMP JUMPDEST PUSH2 0x499 JUMP JUMPDEST SWAP1 POP SWAP2 SWAP1 POP JUMP JUMPDEST PUSH0 DUP2 SWAP1 POP SWAP2 SWAP1 POP JUMP JUMPDEST PUSH2 0xACB DUP4 PUSH2 0xA98 JUMP JUMPDEST PUSH2 0xADF PUSH2 0xAD7 DUP3 PUSH2 0xAB9 JUMP JUMPDEST DUP5 DUP5 SLOAD PUSH2 0xA3E JUMP JUMPDEST DUP3 SSTORE POP POP POP POP JUMP JUMPDEST PUSH0 PUSH0 SWAP1 POP SWAP1 JUMP JUMPDEST PUSH2 0xAF6 PUSH2 0xAE7 JUMP JUMPDEST PUSH2 0xB01 DUP2 DUP5 DUP5 PUSH2 0xAC2 JUMP JUMPDEST POP POP POP JUMP JUMPDEST JUMPDEST DUP2 DUP2 LT ISZERO PUSH2 0xB24 JUMPI PUSH2 0xB19 PUSH0 DUP3 PUSH2 0xAEE JUMP JUMPDEST PUSH1 0x1 DUP2 ADD SWAP1 POP PUSH2 0xB07 JUMP JUMPDEST POP POP JUMP JUMPDEST PUSH1 0x1F DUP3 GT ISZERO PUSH2 0xB69 JUMPI PUSH2 0xB3A DUP2 PUSH2 0xA11 JUMP JUMPDEST PUSH2 0xB43 DUP5 PUSH2 0xA23 JUMP JUMPDEST DUP2 ADD PUSH1 0x20 DUP6 LT ISZERO PUSH2 0xB52 JUMPI DUP2 SWAP1 POP JUMPDEST PUSH2 0xB66 PUSH2 0xB5E DUP6 PUSH2 0xA23 JUMP JUMPDEST DUP4 ADD DUP3 PUSH2 0xB06 JUMP JUMPDEST POP POP JUMPDEST POP POP POP JUMP JUMPDEST PUSH0 DUP3 DUP3 SHR SWAP1 POP SWAP3 SWAP2 POP POP JUMP JUMPDEST PUSH0 PUSH2 0xB89 PUSH0 NOT DUP5 PUSH1 0x8 MUL PUSH2 0xB6E JUMP JUMPDEST NOT DUP1 DUP4 AND SWAP2 POP POP SWAP3 SWAP2 POP POP JUMP JUMPDEST PUSH0 PUSH2 0xBA1 DUP4 DUP4 PUSH2 0xB7A JUMP JUMPDEST SWAP2 POP DUP3 PUSH1 0x2 MUL DUP3 OR SWAP1 POP SWAP3 SWAP2 POP POP JUMP JUMPDEST PUSH2 0xBBA DUP3 PUSH2 0x567 JUMP JUMPDEST PUSH8 0xFFFFFFFFFFFFFFFF DUP2 GT ISZERO PUSH2 0xBD3 JUMPI PUSH2 0xBD2 PUSH2 0x6FE JUMP JUMPDEST JUMPDEST PUSH2 0xBDD DUP3 SLOAD PUSH2 0x96D JUMP JUMPDEST PUSH2 0xBE8 DUP3 DUP3 DUP6 PUSH2 0xB28 JUMP JUMPDEST PUSH0 PUSH1 0x20 SWAP1 POP PUSH1 0x1F DUP4 GT PUSH1 0x1 DUP2 EQ PUSH2 0xC19 JUMPI PUSH0 DUP5 ISZERO PUSH2 0xC07 JUMPI DUP3 DUP8 ADD MLOAD SWAP1 POP JUMPDEST PUSH2 0xC11 DUP6 DUP3 PUSH2 0xB96 JUMP JUMPDEST DUP7 SSTORE POP PUSH2 0xC78 JUMP JUMPDEST PUSH1 0x1F NOT DUP5 AND PUSH2 0xC27 DUP7 PUSH2 0xA11 JUMP JUMPDEST PUSH0 JUMPDEST DUP3 DUP2 LT ISZERO PUSH2 0xC4E JUMPI DUP5 DUP10 ADD MLOAD DUP3 SSTORE PUSH1 0x1 DUP3 ADD SWAP2 POP PUSH1 0x20 DUP6 ADD SWAP5 POP PUSH1 0x20 DUP2 ADD SWAP1 POP PUSH2 0xC29 JUMP JUMPDEST DUP7 DUP4 LT ISZERO PUSH2 0xC6B JUMPI DUP5 DUP10 ADD MLOAD PUSH2 0xC67 PUSH1 0x1F DUP10 AND DUP3 PUSH2 0xB7A JUMP JUMPDEST DUP4 SSTORE POP JUMPDEST PUSH1 0x1 PUSH1 0x2 DUP9 MUL ADD DUP9 SSTORE POP POP POP JUMPDEST POP POP POP POP POP POP JUMP JUMPDEST PUSH0 PUSH1 0x60 DUP3 ADD SWAP1 POP PUSH2 0xC93 PUSH0 DUP4 ADD DUP7 PUSH2 0x558 JUMP JUMPDEST DUP2 DUP2 SUB PUSH1 0x20 DUP4 ADD MSTORE PUSH2 0xCA5 DUP2 DUP6 PUSH2 0x59F JUMP JUMPDEST SWAP1 POP PUSH2 0xCB4 PUSH1 0x40 DUP4 ADD DUP5 PUSH2 0x607 JUMP JUMPDEST SWAP5 SWAP4 POP POP POP POP JUMP INVALID LOG2 PUSH5 0x6970667358 0x22 SLT KECCAK256 DUP3 KECCAK256 SMOD 0xE2 0xD8 DATALOADN 0xD539 0xEF PUSH26 0x157E2B093B4ADB5EAD911765B9D2231E0B059093E8D964736F6C PUSH4 0x4300081D STOP CALLER "
    },
    "gasEstimates": {
      "creation": {
        "codeDepositCost": "662800",
        "executionCost": "694",
        "totalCost": "663494"
      },
      "external": {
        "createProduct(string,string)": "infinite",
        "productCount()": "2469",
        "products(uint256)": "infinite",
        "updateStatus(uint256,uint8)": "infinite"
      }
    },
    "methodIdentifiers": {
      "createProduct(string,string)": "87592bce",
      "productCount()": "e0f6ef87",
      "products(uint256)": "7acc0b20",
      "updateStatus(uint256,uint8)": "3a1b3d31"
    }
  },
  "storageLayout": {
    "storage": [
      {
        "astId": 24,
        "contract": "SupplyChain.sol:SupplyChain",
        "label": "products",
        "offset": 0,
        "slot": "0",
        "type": "t_mapping(t_uint256,t_struct(Product)19_storage)"
      },
      {
        "astId": 26,
        "contract": "SupplyChain.sol:SupplyChain",
        "label": "productCount",
        "offset": 0,
        "slot": "1",
        "type": "t_uint256"
      }
    ],
    "types": {
      "t_address": {
        "encoding": "inplace",
        "label": "address",
        "numberOfBytes": "20"
      },
      "t_enum(Status)5": {
        "encoding": "inplace",
        "label": "enum SupplyChain.Status",
        "numberOfBytes": "1"
      },
      "t_mapping(t_uint256,t_struct(Product)19_storage)": {
        "encoding": "mapping",
        "key": "t_uint256",
        "label": "mapping(uint256 => struct SupplyChain.Product)",
        "numberOfBytes": "32",
        "value": "t_struct(Product)19_storage"
      },
      "t_string_storage": {
        "encoding": "bytes",
        "label": "string",
        "numberOfBytes": "32"
      },
      "t_struct(Product)19_storage": {
        "encoding": "inplace",
        "label": "struct SupplyChain.Product",
        "members": [
          {
            "astId": 7,
            "contract": "SupplyChain.sol:SupplyChain",
            "label": "id",
            "offset": 0,
            "slot": "0",
            "type": "t_uint256"
          },
          {
            "astId": 9,
            "contract": "SupplyChain.sol:SupplyChain",
            "label": "name",
            "offset": 0,
            "slot": "1",
            "type": "t_string_storage"
          },
          {
            "astId": 11,
            "contract": "SupplyChain.sol:SupplyChain",
            "label": "description",
            "offset": 0,
            "slot": "2",
            "type": "t_string_storage"
          },
          {
            "astId": 13,
            "contract": "SupplyChain.sol:SupplyChain",
            "label": "manufacturer",
            "offset": 0,
            "slot": "3",
            "type": "t_address"
          },
          {
            "astId": 16,
            "contract": "SupplyChain.sol:SupplyChain",
            "label": "status",
            "offset": 20,
            "slot": "3",
            "type": "t_enum(Status)5"
          },
          {
            "astId": 18,
            "contract": "SupplyChain.sol:SupplyChain",
            "label": "timestamp",
            "offset": 0,
            "slot": "4",
            "type": "t_uint256"
          }
        ],
        "numberOfBytes": "160"
      },
      "t_uint256": {
        "encoding": "inplace",
        "label": "uint256",
        "numberOfBytes": "32"
      }
    }
  },
  "transientStorageLayout": {
    "storage": [],
    "types": null
  },
  "userdoc": {
    "kind": "user",
    "methods": {},
    "version": 1
  }
}